:020000040000fa
:080000000001040000000000f3
:020000040000fa
:04000800c80100002b
:020000040000fa
:04000c00c801000027
:020000040000fa
:04001000c801000023
:020000040000fa
:04001400c80100001f
:020000040000fa
:04001800c80100001b
:020000040000fa
:04001c00c801000017
:020000040000fa
:04002000c801000013
:020000040000fa
:04002400c80100000f
:020000040000fa
:04002800c80100000b
:020000040000fa
:04002c00c801000007
:020000040000fa
:04003000c801000003
:020000040000fa
:04003400c8010000ff
:020000040000fa
:04003800c8010000fb
:020000040000fa
:04003c00c8010000f7
:020000040000fa
:04004000c8010000f3
:020000040000fa
:04004400c8010000ef
:020000040000fa
:04004800c8010000eb
:020000040000fa
:04004c00c8010000e7
:020000040000fa
:04005000c8010000e3
:020000040000fa
:04005400c8010000df
:020000040000fa
:04005800c8010000db
:020000040000fa
:04005c00c8010000d7
:020000040000fa
:04006000c8010000d3
:020000040000fa
:04006400c8010000cf
:020000040000fa
:04006800c8010000cb
:020000040000fa
:04006c00c8010000c7
:020000040000fa
:04007000c8010000c3
:020000040000fa
:04007400c8010000bf
:020000040000fa
:04007800c8010000bb
:020000040000fa
:04007c00c8010000b7
:020000040000fa
:04008000c8010000b3
:020000040000fa
:04008400c8010000af
:020000040000fa
:04008800c8010000ab
:020000040000fa
:04008c00c8010000a7
:020000040000fa
:04009000c8010000a3
:020000040000fa
:04009400c80100009f
:020000040000fa
:04009800c80100009b
:020000040000fa
:04009c00c801000097
:020000040000fa
:0400a000c801000093
:020000040000fa
:0400a400c80100008f
:020000040000fa
:0400a800c80100008b
:020000040000fa
:0400ac00c801000087
:020000040000fa
:0400b000c801000083
:020000040000fa
:0400b400c80100007f
:020000040000fa
:0400b800c80100007b
:020000040000fa
:0400bc00c801000077
:020000040000fa
:0400c000c801000073
:020000040000fa
:0400c400c80100006f
:020000040000fa
:0400c800c80100006b
:020000040000fa
:0400cc00c801000067
:020000040000fa
:0400d000c801000063
:020000040000fa
:0400d400c80100005f
:020000040000fa
:0400d800c80100005b
:020000040000fa
:04010800c80100002a
:020000040000fa
:04010c00c801000026
:020000040000fa
:04011000c801000022
:020000040000fa
:04011400c80100001e
:020000040000fa
:04011800c80100001a
:020000040000fa
:04011c00c801000016
:020000040000fa
:04012000c801000012
:020000040000fa
:04012400c80100000e
:020000040000fa
:04012800c80100000a
:020000040000fa
:04012c00c801000006
:020000040000fa
:04013000c801000002
:020000040000fa
:04013400c8010000fe
:020000040000fa
:04013800c8010000fa
:020000040000fa
:04013c00c8010000f6
:020000040000fa
:04014000c8010000f2
:020000040000fa
:04014400c8010000ee
:020000040000fa
:04014800c8010000ea
:020000040000fa
:04014c00c8010000e6
:020000040000fa
:04015000c8010000e2
:020000040000fa
:04015400c8010000de
:020000040000fa
:04015800c8010000da
:020000040000fa
:04015c00c8010000d6
:020000040000fa
:04016000c8010000d2
:020000040000fa
:04016400c8010000ce
:020000040000fa
:04016800c8010000ca
:020000040000fa
:04016c00c8010000c6
:020000040000fa
:04017000c8010000c2
:020000040000fa
:04017400c8010000be
:020000040000fa
:04017800c8010000ba
:020000040000fa
:04017c00c8010000b6
:020000040000fa
:04018000c8010000b2
:020000040000fa
:04018400c8010000ae
:020000040000fa
:04018800c8010000aa
:020000040000fa
:04018c00c8010000a6
:020000040000fa
:04019000c8010000a2
:020000040000fa
:04019400c80100009e
:020000040000fa
:04019800c80100009a
:020000040000fa
:04019c00c801000096
:020000040000fa
:0401a000c801000092
:020000040000fa
:0401a400c80100008e
:020000040000fa
:0401a800c80100008a
:020000040000fa
:0401ac00c801000086
:020000040000fa
:0401b000c801000082
:020000040000fa
:0401b400c80100007e
:020000040000fa
:0401b800c80100007a
:020000040000fa
:0401bc00c801000076
:020000040000fa
:0401c000c801000072
:020000040000fa
:0401c400c80100006e
:020000040000fa
:0401c800c80100006a
:020000040000fa
:0401cc00c801000066
:020000040000fa
:0401d000c801000062
:020000040000fa
:0401d400c80100005e
:020000040000fa
:0401d800c80100005a
:020000040000fa
:100200000f8120000eff20000e018800000000007a
:10021000000020000000e000020032000001200089
:1002200020028800140007005b0007000000e000c7
:1002300003003a00c05020000100200002003700f7
:100240000000200001002000810f7000010032003a
:1002500014000700000020000000e000020032004f
:100260000000020000000000e801020000000000a1
:100270000040da000000fe004440a900a001200078
:100280000000e0000300320000002000a001880010
:100290004440a800000006008a1f78008b1f7800e9
:1002a0000000060091018800800478000000eb0047
:1002b0001a003700e284440032a0b4009905ba0065
:1002c000e284440032a0b4009906ba00e2844400fb
:1002d00032a0b4000006eb00476fde00fd07b2005d
:1002e000636ce10003003a00ebff07000000eb0045
:1002f0000a003700606ce10004003a00005deb008a
:100300008b05e900fdff3e00040037006168e10055
:10031000010032000086eb000b00070019c7ba008d
:100320001905ba000e04e00003003a000a00e000dc
:10033000e0ff3a0000000600fe07b2009e018800c0
:100340008a047800f5ff3700395dba008b05e900b3
:100350000c003200295dba008b05e900080032006c
:100360000c00e00003003a00e284440032a0b40034
:10037000f5ff370019ddba008b05e900faff3a00f6
:100380008904e800e184440032a0b40000000600c3
:0c0390000040da000000fe000000050044
:020000040000fa
:10039c000100000002000000030000000500000046
:1003ac00080000000d0000001500000022000000f5
:1003bc00370000005900000090000000e900000028
:0403cc00000000002d
:020000040000fa
:1003d0000400fa00de02a800de22a800de82a800e7
:1003e000c622ef000080eb00401588000000eb0003
:1003f000000f78000000eb00100798000017800045
:10040000610060000000e0000b003a00001780006f
:10041000620060000000e00007003a000017800062
:10042000700060000000e0000300320010002000b7
:10043000000f78004d003700001780006100600059
:100440000000e0000b003a0000178000620060002e
:100450000000e0000700320000178000700060001c
:100460000000e00003003a0020002000000f7800a8
:100470003e00370000178000610060000000e000cf
:100480000b003a0000178000620060000000e000ee
:100490000700320000178000700060000000e000dc
:1004a0000300320030002000000f78002f003700da
:1004b00000178000610060000000e0000b003200c7
:1004c00000178000620060000000e00007003a00b2
:1004d00000178000700060000000e00003003a0098
:1004e00040002000000f7800200037000017800037
:1004f000610060000000e0000b0032000017800087
:10050000620060000000e00007003a000017800071
:10051000700060000000e000030032005000200086
:10052000000f7800110037000017800061006000a4
:100530000000e0000b003200001780006200600045
:100540000000e0000700320000178000700060002b
:100550000000e00003003a0060002000000f780077
:10056000020037000000eb00000f7800ca22ef0005
:100570001e007800e30f500012003200e30f50001d
:1005800005003c00e10f50000a003200e20f50006d
:100590000a00320013003700e50f50000d00320052
:1005a000e50f500009003500e60f50000b00320047
:1005b0000c003700210007000b00370094000700f3
:1005c000090037009f00070007003700ff00070001
:1005d000050037004f00070003003700d800070070
:1005e000010037000000000080ff37000600fa001d
:1005f0002007980010002000000f78000000eb009a
:1006000010079800070037001e0fe8001e00780052
:100610000000e000fcff3a001e0090000000e8002f
:10062000100798009e0090002e009000808f5000d0
:10063000f6ff35000080fa00000006000800fa000e
:100640000000eb0020079800be009000f00f200093
:10065000808f5000030034000000eb00300798004a
:10066000030037003e0090000000e80030079800cb
:10067000be009000010f78000000eb00100798000a
:100680001b0037009e0078001000280000806000ea
:100690000000e00004003d000000e900e1ff2f0041
:1006a000008070000000e800e10f500008003a00f0
:1006b0001e0090008000400000802000008040006c
:1006c00010007800ae0090000080400020079800e5
:1006d0001e007800cf00de00008040000080d100c6
:1006e000000f78001e0090000000e800100798003e
:1006f0001e009000e70f5000e2ff34002e00900033
:100700005016880040062000b8ff07000080fa005d
:10071000000006002200fa00e8004700e21c280062
:100720000c000900b21878000000eb0030079800b8
:100730000000eb001007980030003700ca22ef00dd
:100740001e0090000000400000004700c000900024
:10075000010f78000000eb00200798001b00370015
:100760009e00780010002800008060000000e0007b
:1007700004003d000000e900e1ff2f000080700050
:100780000000e800e10f500008003a002e00900041
:1007900080004000008020000080400010007800b1
:1007a000be00900000804000300798001e007800d6
:1007b000cf00de00008040000080d100000f7800f4
:1007c0002e0090000000e800200798002e00900006
:1007d000e70f5000e2ff34003e0090005016880002
:1007e00000e2240081ff07000000eb0030079800c2
:1007f0001e0090000000e800100798001e00900006
:10080000ec0f5000cdff34000080fa00000006001d
:100810000000fa00504021005016880000e2240039
:1008200072ff0700ca22ef00a0a020005016880027
:1008300000e224006dff0700ca22ef000080fa00ea
:10084000000006001200fa001000200010079800b7
:10085000200020002007980040002000300798006a
:1008600080002000400798000020200050079800da
:10087000004020006007980000802000700798006a
:1008800000002100000f98000000eb00000f78002e
:10089000100037001e007800000040008e80e80045
:1008a00000804000900078001e00780000004000aa
:1008b0006a014700000041001000780000804000fd
:1008c0005016880000e2240048ff0700ca22ef000b
:1008d0001e0fe8001e007800e30f5000edff34000b
:1008e00030002000000f7800100037001e00780054
:1008f000000040008e80e8000080400090007800fa
:100900001e007800000040006a014700000041001e
:1009100010007800008040005016880000e224009b
:1009200032ff0700ca22ef001e0fe9001e00780008
:100930000000e000edff3c000080fa00000006002f
:100940000200fa000000eb00000f78000a003700f8
:100950001e007800800040000080200000804000e1
:10096000100078005016880000e224001fff0700e6
:10097000ca22ef001e0fe8001e007800e70f5000ab
:10098000f3ff340070002000000f78000a003700e9
:100990001e007800800040000080200000804000a1
:1009a000100078005016880000e224000fff0700b6
:1009b000ca22ef001e0fe9001e0078000000e000d0
:1009c000f3ff3c000080fa00000006000200fa007d
:1009d0000000eb00000f78000a0037001e007800ce
:1009e000800040000080200000804000100078005f
:1009f0005016880000e22400fcfe0700ca22ef0027
:100a00001e0fe8001e007800e70f5000f3ff3400cf
:080a10000080fa00000006005e
:020000040000fa
:100a180000080000100000000200000001000200b1
:100a28000004000008000000100008000004000096
:080a38000200000000000000b4
:020000040000fa
:0200000401f009
:04000000e0b9000063
:020000040000fa
:0200000401f009
:04000400ffff0000fa
:020000040000fa
:0200000401f009
:04000800ffff0000f6
:020000040000fa
:0200000401f009
:04001400ffff0000ea
:020000040000fa
:0200000401f009
:04001800ffff0000e6
:00000001FF
