:060000000A128A11CF2F45
:100008005034F20083120313071287167208F000A7
:1000180007300310F00CFF3E031D0D28013070055A
:10002800F10007087106FE39710687007208F000B2
:1000380006300310F00CFF3E031D1D28700801391F
:10004800F100F10EF10DF10D07087106BF397106C7
:1000580087007208F00005300310F00CFF3E031D06
:10006800302870080139F100F10CF10C070871060D
:100078007F39710687007208F00004300310F00C15
:10008800FF3E031D422870080139F100F10DF10D02
:10009800F10D07087106F73971068700071654280D
:1000A800552800008312031307127208F00003306A
:1000B8000310F00CFF3E031D5C2801307005F100B1
:1000C80007087106FE39710687007208F0000230D1
:1000D8000310F00CFF3E031D6C2870080139F10075
:1000E800F10EF10DF10D07087106BF397106870091
:1000F8007208F0000310700C0139F100F10CF10CDA
:10010800070871067F397106870072080139F00007
:10011800F00DF00DF00D07087006F739700687002E
:1001280007169628972800008312031307129C28A5
:100138009D2800000830F1002330F000F00BA228C1
:10014800F10BA228080001300A128A15CD200A12E4
:100158008A11831203130510851405158511630888
:10016800F1006208F0003C30F2000030F3000A169B
:100178008A1141240A128A11710883120313DC00C0
:100188007008DB005C08803AFF0080307F02031DA6
:10019800CF2801305B02031C9D2A3C30F000003060
:1001A800F100831203135C08F3005B08F2000A16DF
:1001B8008A119E250A128A11710883120313E1001D
:1001C8007008E0003C30F0000030F1005C08F300FB
:1001D8005B08F2000A168A119E250A128A11710814
:1001E800803AFF0080307F02031DFC283C307002FB
:1001F800031C2F29D93083120313A0009030A100CB
:100208003C30F0000030F1006108F3006008F200B3
:100218000A168A119E250A128A117108831203137D
:10022800A3007008A2003C30F0000030F1005C0828
:10023800F3005B08F2000A168A119E250A128A1139
:100248007008C43E83120313A40071080318013E0A
:10025800FF3EA5005B29D93083120313A00090301C
:10026800A1003C30F0000030F1006108F3006008A4
:10027800F2000A168A119E250A128A117108831241
:100288000313A3007008A2003C30F0000030F10016
:100298005C08F3005B08F2000A168A119E250A1210
:1002A8008A11710883120313A5007008A40061085D
:1002B800F1006008F0003C30F2000030F3000A164C
:1002C8008A1141240A128A11700983120313D60075
:1002D8007109D700D60A0319D70A5B085607A60082
:1002E8005C0803185C0A5707A700BA300A128A1577
:1002F800AC230A128A116830831203135B0610308C
:1003080003195C06031DA029F301F30A7030F400F9
:100318009030F50002300A168A1109250A128A114E
:10032800453083120313D4000230D5000A168A110F
:1003380001240A128A11702AD430831203135B062F
:100348000D3003195C06031DB729F301F30A703059
:10035800F4009030F50002300A168A1109250A12B5
:100368008A1145302A2A7C30831203135B060B302E
:1003780003195C06031DD829F301F30A1C30F400A5
:100388009030F50002300A168A1109250A128A11DE
:10039800B83083120313D4000130D5000A168A112D
:1003A80001240A128A11702A2430831203135B066F
:1003B800093003195C06031DF329F301F30A1C3005
:1003C800F4009030F50002300A168A1109250A1245
:1003D8008A11B83083120313D40001306A2ACC3052
:1003E800831203135B06063003195C06031D142AE7
:1003F800F301F30A4630F4009030F50002300A1693
:100408008A1109250A128A11953083120313D40020
:100418000230D5000A168A1101240A128A11702A9C
:10042800A030831203135B06053003195C06031D15
:100438002F2AF301F30A4630F4009030F500023019
:100448000A168A1109250A128A1195308312031394
:10045800D40002306A2A7430831203135B06043016
:1004680003195C06031D502AF301F30AC430F40093
:100478009030F50002300A168A1109250A128A11ED
:10048800353083120313D4000330D5000A168A11BD
:1004980001240A128A11702A1C30831203135B0686
:1004A800023003195C06031D702AF301F30AC430F5
:1004B800F4009030F50002300A168A1109250A1254
:1004C8008A11353083120313D4000330D5000A167D
:1004D8008A110F240A128A11F301F30ABA30F400C0
:1004E8000030F50004300A168A1109250A128A110B
:1004F800063083120313D8001330D700AD30D6006E
:10050800D60B842AD70B842AD80B842AFF3083126F
:100518000313DB070318DC0AFF30DC075C08803AAA
:10052800FF0080307F02031D9B2A01305B02031805
:10053800D128831203130514851005118515013080
:100548000A128A15CD200A128A11F301F30A85309E
:10055800F4009030F50002300A168A1109250A12B3
:100568008A1183120313D901DA015A08803AFF006D
:1005780080307F02031DC22A043059020318080084
:10058800831203138516F301F30A5C30F4009130EB
:10059800F50003300A168A1109250A128A11063055
:1005A80083120313D8001330D700AD30D600D60B12
:1005B800DB2AD70BDB2AD80BDB2A8312031385121D
:1005C800F301F30A5E30F4009130F50003300A16A7
:1005D8008A1109250A128A11023083120313D800DE
:1005E8008630D7009830D600D60BF82AD70BF82AD1
:1005F800D80BF82A0000013083120313D907031817
:10060800DA0A0030DA07B92A01300A128A15CD2031
:100618000A128A1183120313051085140515851112
:100628006308F1006208F0003C30F2000030F3008B
:100638000A168A1141240A128A11710883120313B7
:10064800DC007008DB005C08803AFF0080307F0225
:10065800031D302B01305B02031CFE2C3C30F000E4
:100668000030F100831203135C08F3005B08F2000A
:100678000A168A119E250A128A1171088312031319
:10068800E1007008E0003C30F0000030F1005C0848
:10069800F3005B08F2000A168A119E250A128A11D5
:1006A8007108803AFF0080307F02031D5D2B3C30CB
:1006B8007002031C902BD93083120313A0009030D2
:1006C800A1003C30F0000030F1006108F300600840
:1006D800F2000A168A119E250A128A1171088312DD
:1006E8000313A3007008A2003C30F0000030F100B2
:1006F8005C08F3005B08F2000A168A119E250A12AC
:100708008A117008C43E83120313A40071080318E9
:10071800013EFF3EA500BC2BD93083120313A00075
:100728009030A1003C30F0000030F1006108F30087
:100738006008F2000A168A119E250A128A117108A9
:1007480083120313A3007008A2003C30F0000030AD
:10075800F1005C08F3005B08F2000A168A119E2576
:100768000A128A11710883120313A5007008A400E5
:100778006108F1006008F0003C30F2000030F3003E
:100788000A168A1141240A128A1170098312031366
:10079800D6007109D700D60A0319D70A5B0856078D
:1007A800A6005C0803185C0A5707A700BA300A12AB
:1007B8008A15AC230A128A11DC30831203135B06F4
:1007C800143003195C06031D012CF301F30A703081
:1007D800F4009030F50002300A168A1109250A1231
:1007E8008A11453083120313D4000230D5000A164B
:1007F8008A1101240A128A11D12C8430831203131E
:100808005B06123003195C06031D182CF301F30A6A
:100818007030F4009030F50002300A168A1109256C
:100828000A128A1145308B2C2C30831203135B0675
:10083800103003195C06031D392CF301F30A1C3030
:10084800F4009030F50002300A168A1109250A12C0
:100858008A11B83083120313D4000130D5000A1668
:100868008A1101240A128A11D12C503083120313E1
:100878005B060A3003195C06031D542CF301F30AC6
:100888001C30F4009030F50002300A168A11092550
:100898000A128A11B83083120313D4000130CB2C0A
:1008A800F830831203135B06073003195C06031D37
:1008B800752CF301F30A4630F4009030F50002304D
:1008C8000A168A1109250A128A1195308312031310
:1008D800D4000230D5000A168A1101240A128A119E
:1008E800D12C5430831203135B06063003195C06BF
:1008F800031D902CF301F30A4630F4009030F50004
:1009080002300A168A1109250A128A1195308312B3
:100918000313D4000230CB2C7430831203135B060C
:10092800043003195C06031DB12CF301F30AC4302B
:10093800F4009030F50002300A168A1109250A12CF
:100948008A11353083120313D4000330D5000A16F8
:100958008A1101240A128A11D12C1C308312031324
:100968005B06023003195C06031DD12CF301F30A60
:10097800C430F4009030F50002300A168A110925B7
:100988000A128A11353083120313D4000330D500BC
:100998000A168A110F240A128A11F301F30ABA30CF
:1009A800F4000030F50004300A168A1109250A12ED
:1009B8008A11063083120313D8001330D700AD30E4
:1009C800D600D60BE52CD70BE52CD80BE52CFF3041
:1009D80083120313DB070318DC0AFF30DC075C080B
:1009E800803AFF0080307F02031DFC2C01305B023F
:1009F8000318322B8312031305148510051185156E
:100A080001300A128A15CD200A128A11F301F30A5D
:100A18008530F4009030F50002300A168A11092555
:100A28000A128A1183120313D901DA015A08803A8B
:100A3800FF0080307F02031D232D04305902031864
:100A48000800831203138516F301F30A5C30F400DF
:100A58009130F50003300A168A1109250A128A1105
:100A6800063083120313D8001330D700AD30D600F8
:100A7800D60B3C2DD70B3C2DD80B3C2D83120313E2
:100A88008512F301F30A5E30F4009130F50003306B
:100A98000A168A1109250A128A11023083120313D1
:100AA800D8008630D7009830D600D60B592DD70BF2
:100AB800592DD80B592D0000013083120313D90783
:100AC8000318DA0A0030DA071A2D0A128A156C217F
:100AD8000A128A1101300A128A15CD200A128A11C7
:100AE8000C300A128A15CD200A128A11823083121C
:100AF8000313DE00DD30DD00DD0B802DDE0B802DE5
:100B08000A168A1151250A128A110A168A111D24F9
:100B18000A128A110A168A11F8230A128A11003059
:100B280083120313CE00CF000A128A1534200A124A
:100B38008A1183120313081088108512051485156D
:100B4800F301F30A5B30F4009030F50001300A1627
:100B58008A1109250A128A11F301F30A3130F400C7
:100B68009030F50002300A168A1109250A128A11F6
:100B7800F301F30AAF30F4009030F50004300A16A0
:100B88008A1109250A128A1183120313061DC82D1A
:100B9800023083120313DF008630DE009830DD0058
:100BA800DD0BD42DDE0BD42DDF0BD42D00008316E6
:100BB8000313B801B901B601B7013908FA003808BA
:100BC800F9000A128A1594240A128A1105300A16A5
:100BD8008A1162240A128A11710883160313B50058
:100BE8007008B400413083120313A0009130A100B3
:100BF80083160313350883120313A3008316031304
:100C0800340883120313A200A0300A128A15AC23F9
:100C18000A128A1101300A128A15CD200A128A1185
:100C2800F301F30AA030F4000030F50001300A1691
:100C38008A1109250A128A1183120313061C8C2EA5
:100C4800013083160313B8070318B90A0030B9072F
:100C58003908803AFF0080307F02031D352E0430AA
:100C68003802031C3D2E5030831603134E06031919
:100C7800502E831603133908803AFF0080307F0214
:100C8800031D482E02303802031C582E4C308316A0
:100C980003134E06031D582E3808FF3EB8003908C6
:100CA8000318013EFF3EB9005030831603134E0669
:100CB800031D682E3908FA003808F9000A128A1547
:100CC80094240A128A117D2E4C30831603134E0683
:100CD800031D7D2E390883120313B30083160313F3
:100CE800380883120313B2000A168A1163260A12FF
:100CF8008A11023083120313DF008630DE00983039
:100D0800DD00DD0B852EDE0B852EDF0B852E00002A
:100D180083120313861CDE2EFF3083160313B807D5
:100D28000318B90AFF30B907B91F9E2E50304E0676
:100D38000319A42EB91FAC2E4C304E06031DAC2E41
:100D48003808013EB80039080318013E003EB900D2
:100D580050304E06031DBA2E3908FA003808F9003B
:100D68000A128A1594240A128A11CF2E4C3083163F
:100D780003134E06031DCF2E390883120313B30045
:100D880083160313380883120313B2000A168A1154
:100D980063260A128A11023083120313DF00863099
:100DA800DE009830DD00DD0BD72EDE0BD72EDF0BF3
:100DB800D72E00005330831603134E06031D342F1D
:100DC80001300A128A15CD200A128A11F301F30A9A
:100DD8005B30F4009030F50001300A168A110925BD
:100DE8000A128A11F301F30A3130F4009030F50049
:100DF80002300A168A1109250A128A11F301F30A28
:100E08009A30F4009030F50004300A168A1109254A
:100E18000A128A1183120313061D0E2F0230831241
:100E28000313DF008630DE009830DD00DD0B1A2F5B
:100E3800DE0B1A2FDF0B1A2F00005030831203131A
:100E4800DD005D0883160313CE00B801B901390827
:100E5800FA003808F9000A128A1594240A128A112D
:100E68005030831603134E06031D832F831203137A
:100E7800061D672F03308316031338063904031938
:100E8800672F380A0319390A0319672F4C30831260
:100E98000313DD005D0883160313CE003908B7007D
:100EA8003808B600B801B901390883120313B30032
:100EB80083160313380883120313B2000A168A1123
:100EC80063260A128A1183120313061D7A2F033030
:100ED8008316031338063904031D7A2F53308312FF
:100EE8000313DD005D0883160313CE008312861DED
:100EF800832F5330DD005D0883160313CE004C307A
:100F0800831603134E06031DEA2D83120313061DD1
:100F1800932F83160313380339040319962F83126A
:100F2800861DA82F50308312DD005D088316031339
:100F3800CE00B801B9013908FA003808F9000A12D8
:100F48008A1594240A128A1183120313061DEA2DA6
:100F58008316031336083704031DB72F0A128A15A0
:100F6800EA250A128A118316031336033704031D70
:100F7800C22F0A128A1108230A128A110230831614
:100F8800031336063704031DEA2D0A128A11A72017
:100F98000A128A11EA2D831603130A128A110420F1
:100FA8000A128A11CE00831203130A168A11EC233F
:100FB8000A128A11E4000A168A11ED230A128A110C
:100FC800E5000A168A11EE230A128A11E6000A16AB
:100FD8008A11EF230A128A11E7008313BA308400BA
:100FE800CE300A168A11F023E001E101E201E301A3
:080FF80083010A128A11692D20
:101004007808790403192F28FD01FD0AF91B162815
:1010140001300310F80DF90DFF3E031D0B280130BC
:10102400FC007C08FD07082879087B02031D1C28A6
:1010340078087A02031C24287808FA027908031C29
:10104400FB03FB0201300310F90CF80CFF3E031DF7
:1010540025280130FD02031D16287B08F9007A08B3
:10106400F80008000330831203134F02FF30031902
:101074004E02031808004F08F9004E08F8000A163B
:101084008A112D240A128A15780883120313A300E7
:101094007908A4007A08A500C030A0007F30A10020
:1010A4004430A2000A128A1521220A128A158312D8
:1010B40003132008B3002108B4002208B50000304F
:1010C400F7003D30F6000930F5000030F400640804
:1010D400D0006508D1006608D2006708D30002304A
:1010E4000310D00DD10DD20DD30DFF3E031D722878
:1010F4005308F3005208F2005108F1005008F000C0
:101104000A168A1171270A128A15730883120313A7
:10111400A9007208A8007108A7007008A6000A16A2
:101124008A11C7240A128A15831203132608B000F1
:101134002708B1002808B2000A128A15D9220A1217
:101144008A15831203133008C0003108C100320825
:10115400C2000A168A11E3260A128A15831203139F
:101164004108CF004008CE004E1CBC288312031354
:101174009716BF2883120313971217124F08D10032
:101184004E08D0000310D10CD00C0310D10CD00C9D
:10119400500895000800F200831203130712871207
:1011A4007208F00007300310F00CFF3E031DD52831
:1011B40001307005F10007087106FE3971068700D9
:1011C4007208F00006300310F00CFF3E031DE52802
:1011D40070080139F100F10EF10DF10D07087106E7
:1011E400BF39710687007208F00005300310F00C57
:1011F400FF3E031DF82870080139F100F10CF10CD1
:10120400070871067F39710687007208F000043000
:101214000310F00CFF3E031D0A2970080139F10088
:10122400F10DF10DF10D07087106F739710687000C
:1012340007161C291D2900008312031307127208C4
:10124400F00003300310F00CFF3E031D242901308D
:101254007005F10007087106FE39710687007208EF
:10126400F00002300310F00CFF3E031D3429700817
:101274000139F100F10EF10DF10D07087106BF39C6
:10128400710687007208F0000310700C0139F10038
:10129400F10CF10C070871067F397106870072089A
:1012A4000139F000F00DF00DF00D07087006F73964
:1012B4007006870007165E295F2900008312031356
:1012C40007120830F1002330F000F00B6729F10B0E
:1012D4006729080083160313071007138713871160
:1012E400071287128312031307100713871387113A
:1012F400071287120830F4002330F300F30B80291F
:10130400F40B80290830F4002330F300F30B882910
:10131400F40B88290830F4002330F300F30B9029F0
:10132400F40B90290830F4002330F300F30B9829D0
:10133400F40B98290830F4002330F300F30BA029B0
:10134400F40BA0290830F4002330F300F30BA82990
:10135400F40BA829F501F50A043075020318DB29FA
:1013640083120313071007138717871507128712B1
:10137400071007138717871507168712C129C22973
:10138400000083120313071007138717871507122A
:1013940087120830F4002330F300F30BCF29F40B49
:1013A400CF290130F3007308F50704307502031CDC
:1013B400B229831203130710071387178711071223
:1013C4008712071007138717871107168712EA2950
:1013D400EB290000831203130710071387178711E3
:1013E400071287120830F4002330F300F30BF829B6
:1013F400F40BF8292830F3007308F50075080A1275
:101404008A15CD200A128A151030F3007308F500EE
:1014140075080A128A15CD200A128A15F501F50AF3
:1014240075080A128A15CD200A128A150F30F300A6
:101434007308F50075080A128A15CD200800831276
:1014440003132308A6002408A7002508A8000310F6
:10145400270D280DA9002908AE002E08031D392ADE
:101464000030A0000030A1000030A20008002008D5
:10147400A6002108A7002208A8000310270D280DA4
:10148400A9002908AF002F08031D4F2A0030A0002F
:101494000030A1000030A20008000030AB00003092
:1014A400AC000030AD0089302F07A6002608AE023C
:1014B4002308A6002408A7002508A800103003105C
:1014C400A80CA70CA60CFF3E031D612A2608A90040
:1014D4002908AF002008A6002108A7002208A800B8
:1014E40010300310A80CA70CA60CFF3E031D732A92
:1014F4002608A9002908AF068030A6002608AF05F3
:10150400A417FF30A305FF30A4050030A505A117DB
:10151400FF30A005FF30A1050030A2051830A60059
:101524002608AA0001300310AB0DAC0DAD0DFF3E33
:10153400031D952A22082502031DA62A2108240238
:10154400031DA62A20082302031CB32A2008A30291
:101554002108031C210FA4022208031C220AA5024D
:101564002B1401300310A30DA40DA50DFF3E031D84
:10157400B42A0130AA02031D942A2B08F0002C0877
:10158400F1002D08F2002E08A6002608F3002F080B
:10159400A7002708F4000A168A11F7257008831299
:1015A4000313A0007108A1007208A20008008312AE
:1015B40003133008B6003108B7003208B80003102E
:1015C400370D380DB9003908BA003A08031DF12A5D
:1015D4000030B0000030B1000030B2000800330821
:1015E400B6003408B7003508B8000310370D380DBD
:1015F400B9003908BF003F08031D072B0030B000B5
:101604000030B1000030B20008003F087B3EB60055
:101614003608BA073008B6003108B7003208B800F7
:1016240010300310B80CB70CB60CFF3E031D132B7F
:101634003608B9003908BF003308B6003408B700CB
:101644003508B80010300310B80CB70CB60CFF3EC8
:10165400031D252B3608B9003908BF068030B600B3
:101664003608BF05B117B417FF30B305FF30B40512
:101674000030B5050030BB000030BC000030BD00B8
:101684000730B6003608BE00301C562B3308BB07A3
:10169400340803110318340A031DBC073508031169
:1016A4000318350A031DBD0701300310B20CB10C39
:1016B400B00CFF3E031D572B01300310B30DB40DC6
:1016C400B50DFF3E031D5F2B0130BE02031D462BEB
:1016D4000930B6003608BE00301C7E2B3308BB0729
:1016E400340803110318340A031DBC073508031119
:1016F4000318350A031DBD0701300310B20CB10CE9
:10170400B00CFF3E031D7F2B01300310BD0CBC0C3D
:10171400BB0CFF3E031D872B0130BE02031D6E2B45
:101724003B08F0003C08F1003D08F2003A08B6001E
:101734003608F3003F08B7003708F4000A168A1188
:10174400F725700883120313B0007108B100720802
:10175400B200080083120313B0002230A800280846
:10176400AB002108A9002008A800A00A0319A10AB7
:101774002908FF00280884000A168A1100200A128A
:101784008A15AA002A08B100310803198F2C2530C4
:1017940031060319D92B3108A80030088400280821
:1017A400831380000130A8002808B007B32BAC01D4
:1017B4002108A9002008A800A00A0319A10A2908E1
:1017C400FF00280884000A168A1100200A128A15CC
:1017D400B100003A03198F2C643A0319F52B0D3A22
:1017E4000319F52BB32B2B08840083130008AE00D8
:1017F400840A0008AF000230A8002808AB07AF1F16
:101804000C2C0330A8002808AC04AE09AF09AE0ABA
:101814000319AF0AB101B10A053031060319372C97
:101824003108A8002807123E840090300318013EB6
:10183400FF000A168A1100200A128A15A9000A1646
:101844008A1100200A128A15AA002A082F02031DF1
:101854002D2C29082E02031C372C0130A80028083F
:10186400B10705303106031D122C2C080339031966
:10187400462C2D30A80030088400280883138000EB
:101884000130A8002808B0073108A8002808AD00D6
:10189400FF30A8002808AD072D0A0319B32B0A301E
:1018A400F8000030F9002D08A8002807123E840033
:1018B40090300318013EFF000A168A1100200A1214
:1018C4008A15F0000A168A1100200A128A15F100FE
:1018D4002F08F3002E08F2000A168A118B240A122C
:1018E4008A157108FB007008FA000A128A15022092
:1018F4000A128A157808303E83120313A9002908B6
:10190400B1003108A800300884002808831380003F
:101914000130A8002808B0074A2C3008840083133B
:101924008001080001300A128A15CD200A128A1596
:1019340079087A04031DDF2CF301F30A0A30F4005A
:101944009130F50001300A168A1109250A128A1508
:10195400F301F30A1A30F4009130F50001300A164D
:101964008A1109250A128A15F301F30A2930F400B1
:101974009130F50002300A168A1109250A128A15D7
:10198400F301F30AEB30F4009030F50003300A164B
:101994008A1109250A128A15F301F30A3730F40073
:1019A4009130F50004300A168A1109253B30831260
:1019B4000313E2000030E300080079037A04031DF6
:1019C400242DF301F30A0B30F4009130F5000130BB
:1019D4000A168A1109250A128A15F301F30A193025
:1019E400F4009130F50001300A168A1109250A1213
:1019F4008A15F301F30A2930F4009130F50002301E
:101A04000A168A1109250A128A15F301F30AEB3022
:101A1400F4009030F50003300A168A1109250A12E1
:101A24008A15F301F30A3730F4009130F5000430DD
:101A34000A168A110925593083120313E200003073
:101A4400E3000800023079067A04031D6A2DF301CD
:101A5400F30A0B30F4009130F50001300A168A11B4
:101A640009250A128A15F301F30A1A30F400913099
:101A7400F50001300A168A1109250A128A15F301A4
:101A8400F30A2830F4009130F50002300A168A1166
:101A940009250A128A15F301F30AEB30F400903099
:101AA400F50003300A168A1109250A128A15F30172
:101AB400F30A3730F4009130F50004300A168A1125
:101AC4000925463083120313E2000030E3000800C6
:101AD400033079067A04031DAA2DF301F30A0B30AF
:101AE400F4009130F50001300A168A1109250A1212
:101AF4008A15F301F30A1A30F4009130F50001302D
:101B04000A168A1109250A128A15F301F30A2930E3
:101B1400F4009130F50002300A168A1109250A12E0
:101B24008A15F301F30AEA30F4009030F50003302B
:101B34000A168A1109250A128A15F301F30A3730A5
:101B4400F4009130F50004300A168A1109250800C2
:101B5400043079067A04031D0800F301F30A0B30FC
:101B6400F4009130F50001300A168A1109250A1291
:101B74008A15F301F30A1A30F4009130F5000130AC
:101B84000A168A1109250A128A15F301F30A293063
:101B9400F4009130F50002300A168A1109250A1260
:101BA4008A15F301F30AEB30F4009030F5000330AA
:101BB4000A168A1109250A128A15F301F30A363026
:101BC400F4009130F50004300A168A110925080042
:101BD40001300A128A15CD200A128A1583120313C2
:101BE40005108514051585116308F1006208F000DD
:101BF4003C30F2000030F3000A168A1141240A1224
:101C04008A15710883120313DC007008DB005C087A
:101C1400803AFF0080307F02031D122E01305B02E8
:101C2400031C952F3C30F0000030F10083120313A5
:101C34005C08F3005B08F2000A168A119E250A125A
:101C44008A15710883120313E1007008E000D9308B
:101C5400A0009030A1003C30F0000030F100610899
:101C6400F3006008F2000A168A119E250A128A15EA
:101C7400710883120313A3007008A2003C30F00023
:101C84000030F1005C08F3005B08F2000A168A11C8
:101C94009E250A128A15710883120313A500700881
:101CA400A4006108F1006008F0003C30F20000304C
:101CB400F3000A168A1141240A128A157009831244
:101CC4000313D6007109D700D60A0319D70A5B0893
:101CD4005607A6005C0803185C0A5707A700BA3029
:101CE4000A128A15AC230A128A15D43083120313FC
:101CF4005B060D3003195C06031D982EF301F30AED
:101D04007030F4009030F50002300A168A1109256B
:101D14000A128A15453083120313D4000230D50009
:101D24000A168A1101240A128A15682FA830831210
:101D340003135B060C3003195C06031DAF2EF3017D
:101D4400F30A7030F4009030F50002300A168A115C
:101D540009250A128A154530222F7C308312031379
:101D64005B060B3003195C06031DD02EF301F30A46
:101D74001C30F4009030F50002300A168A1109254F
:101D84000A128A15B83083120313D4000130D50027
:101D94000A168A1101240A128A15682F2430831224
:101DA40003135B06093003195C06031DEB2EF301D4
:101DB400F30A1C30F4009030F50002300A168A1140
:101DC40009250A128A15B83083120313D40001308E
:101DD400622FCC30831203135B06063003195C06B2
:101DE400031D0C2FF301F30A4630F4009030F50084
:101DF40002300A168A1109250A128A1595308312AF
:101E04000313D4000230D5000A168A1101240A12E1
:101E14008A15682FA030831203135B06053003195B
:101E24005C06031D272FF301F30A4630F4009030BB
:101E3400F50002300A168A1109250A128A1595300E
:101E440083120313D4000230622F743083120313FD
:101E54005B06043003195C06031D482FF301F30AE3
:101E6400C430F4009030F50002300A168A110925B6
:101E74000A128A15353083120313D4000330D500B7
:101E84000A168A1101240A128A15682F1C3083123B
:101E940003135B06023003195C06031D682FF3016C
:101EA400F30AC430F4009030F50002300A168A11A7
:101EB40009250A128A15353083120313D40003301E
:101EC400D5000A168A110F240A128A1506308312C5
:101ED4000313D8001330D700AD30D600D60B702FC3
:101EE400D70B702FD80B702FF301F30ABA30F4001C
:101EF4000030F50004300A168A1109250A128A15E1
:101F0400FF3083120313DB070318DC0AFF30DC07FE
:101F14005C08803AFF0080307F02031D932F01305C
:101F24005B020318142E8312031305148510051184
:101F3400851501300A128A15CD200A128A15F3017B
:101F4400F30A8530F4009030F50002300A168A1145
:101F540009250A128A1583120313D901DA015A08D2
:101F6400803AFF0080307F02031DBA2F04305902EB
:101F740003180800831203138516F301F30A5C3077
:101F8400F4009130F50003300A168A1109250A126B
:101F94008A15063083120313D8001330D700AD30EE
:101FA400D600D60BD32FD70BD32FD80BD32F831216
:101FB40003138512F301F30A5E30F4009130F50047
:101FC40003300A168A1109250A128A15023083126F
:101FD4000313D8008630D7009830D600D60BF02FE4
:101FE400D70BF02FD80BF02F00000130831203130E
:101FF400D9070318DA0A0030DA07B12FFF1B0A28C1
:1020040083137F1883170008840A0319FF0A080042
:102014007F087F398A000408840A0319FF0A8200B2
:10202400013400340A34003464340034E8340334B2
:102034001034273420342034203420342034203405
:102044004C3441345634413444344F3420342034F5
:1020540020342034203420342034203400342034FC
:10206400203420342034203420344C344134563449
:10207400413444344F3452344134203420342034F5
:1020840020342034203400342034203420342034CC
:1020940020342034413443344C34413452344134B8
:1020A40044344F3420342034203420342034203439
:1020B400003420342034203420342034203420349C
:1020C400413452344434553449344E344F3420343A
:1020D400203420342034203420340034203420347C
:1020E40020342034203420345034523445344C3499
:1020F40041345634413444344F3420342034203471
:10210400203420340034203420342034203420344B
:102114002034463469346E3461346C3469347A342E
:10212400613464346F342034203420342034003457
:102134002034203420342034503475346C347334D7
:102144006534203465346D34703465347A346134E4
:1021540072342034203420340034203420342034A9
:102164002034503475346C3473346534203465341D
:102174006D34653470347A346134723420342034EC
:1021840020340034203420342034203420342034CB
:10219400433445344E34543452344934463455343B
:1021A4004734413444344F34203420340034203410
:1021B40020342034203420342034253469343A3413
:1021C400253469343A3425346934203420340034D5
:1021D4002D344C3461347634613464346F342034B7
:1021E400443465346C3469346334613464346F3436
:1021F400003445346C3420346C34613476346134C6
:1022040064346F342034643475347234613400348B
:102214002D344C3461347634613464346F34203476
:102224004E346F3472346D3461346C3400342D3474
:102234004C3461347634613464346F342034523431
:1022440061347034693464346F3400342D344C3464
:1022540061347634613464346F3420344C346534FE
:102264006E3474346F3400342D3441346334653443
:102274007234633461342034643465340034253476
:10228400643420346D3469346E34753474346F348A
:10229400733400342D3449346E346934633469340E
:1022A4006134723400342D34533461346C34693401
:0C22B40072340034313400343234003411
:1027D800883413340034003464008001840A040609
:1027E800031900340406F12B831203131F171F1457
:1027F800831603139F171F17080083120313550826
:10280800CF005408CE000A128A153420831203130D
:10281800081488100800831203135508CF005408C1
:10282800CE000A128A153420831203130810881464
:102838000800831603130614861406158615073038
:102848009F00051085100511851108108810851244
:1028580008007808F0007908F100F2018E30FB00DA
:102868007B08F300F4010A168A11F7257008F800AE
:102878007108F9007208FA000800F401F501701CEB
:102888004B2C7208F4070318F50A7308F507013092
:102898000310F20DF30DFF3E031D4C2C0130031005
:1028A800F10CF00CFF3E031D532C70087104031D3E
:1028B800432C7508F1007408F0000800F40001309A
:1028C800F2007208831203139F057408F2000230A5
:1028D8000310F20DFF3E031D6C2C0310720DF30064
:1028E80073089F040330F3009730F200F20B7A2C40
:1028F800F30B7A2C7F2C831203131F151F19822CBC
:102908001E08F100831603131E08F0000800F501E5
:10291800F601700871040319C22CF701F70AF11BBC
:10292800A12C01300310F00DF10DFF3E031D962C74
:102938000130F4007408F707932C01300310F50DEB
:10294800F60DFF3E031DA22C71087302031DAE2C69
:1029580070087202031CB72C7008F2027108031C7D
:10296800F303F302751401300310F10CF00CFF3E71
:10297800031DB82C0130F702031DA12C7608F100C5
:102988007508F0000800FC018E30F9007908FB009A
:1029980083120313A91FDD2CA609A709A809A909F1
:1029A800A60A0319A70A0319A80A0319A90AFC0108
:1029B800FC0AFF3029050319EF2C01300310A90C7C
:1029C800A80CA70CA60CFF3E031DE22C0130F90051
:1029D8007908FB07DD2C2608F0002708F1002808F5
:1029E800F2007B08F9007908F3007C08FA007A08FD
:1029F800F4000A168A11F725700883120313A6003B
:102A08007108A7007208A8000800F7001A2D7308BB
:102A18007F3E162D7308BF3E162D7308933E162D64
:102A28007308D33EF6007608F800282D7708013A97
:102A380003190B2D033A03190E2D013A0319112D11
:102A4800073A0319142D282D78080A128A15CD2063
:102A58000A168A11750883120313FF00740884008C
:102A68000A168A1100200A168A11003A031908006A
:102A7800750883120313FF00740884000A168A116C
:102A880000200A168A110A128A1105200A168A11CC
:102A98000130F4070318F50A2E2D83160313870156
:102AA8000F30831203139700F93083160313920033
:102AB800323083120313950012156408F900650873
:102AC800FA006608FB006708FC0002300310F90DE5
:102AD800FA0DFB0DFC0DFF3E031D6A2D023003109D
:102AE800F90DFA0DFB0DFC0DFF3E031D732D7C083F
:102AF800F3007B08F2007A08F1007908F000003052
:102B0800F7003D30F6000930F5000030F4000A16F1
:102B18008A1171277008FF3E8316031392008312EF
:102B28000313971517151214921012158316031311
:102B380007110800F601F11FA82DF009F109F00AA4
:102B48000319F10AF601F60AF31FB32DF209F30986
:102B5800F20A0319F30A0130F4007408F606F701C3
:102B6800F801700871040319EA2DF501F50AF11B43
:102B7800C92D01300310F00DF10DFF3E031DBE2DD0
:102B88000130F4007408F507BB2D01300310F70D70
:102B9800F80DFF3E031DCA2D71087302031DD62DC3
:102BA80070087202031CDF2D7008F2027108031C02
:102BB800F303F302771401300310F10CF00CFF3E1D
:102BC800031DE02D0130F502031DC92D76080319F8
:102BD800F22DF709F809F70A0319F80A7808F1003D
:102BE8007708F000080073080319FF2D72087104B4
:102BF8007004031D122E0030F0000030F100003088
:102C0800F20008000130F5007508F30701300310E1
:102C1800F20CF10CF00CFF3E031D0B2EFE3072057A
:102C280003192D2E062E0130F5007508F307013023
:102C3800F007003003180130F107003003180130A5
:102C4800F20701300310F20CF10CF00CFF3E031DEB
:102C5800262EFF30720503193C2E172E0130F30281
:102C680001300310F00DF10DF20DFF3E031D352E5E
:102C7800F11B422E023073020318322E73184A2EAB
:102C8800FF30F0057F30F105FF30F2050310F30C3B
:102C98007308F500F601F70110300310F50DF60D75
:102CA800F70DFF3E031D512E7508F0047608F10458
:102CB8007708F204740803190800F2170800413075
:102CC80083120313A0009130A1006308A3006208D7
:102CD800A20034300A128A15AC230A168A11013070
:102CE8000A128A15CD200A168A1183120313320894
:102CF8003304031DAE2EF301F30AFB30F4009030C9
:102D0800F50001300A168A1109250A168A11F301FD
:102D1800F30A3430F4000030F50002300A168A1144
:102D280009250A168A11F301F30A4C30F400913090
:102D3800F50003300A168A1109250A168A11F301CB
:102D4800F30A5630F4009130F50004300A168A115F
:102D5800092508008312031332033304031D0800F6
:102D6800F301F30AFB30F4009030F50001300A1645
:102D78008A1109250A168A11F301F30A3430F4007E
:102D88000030F50002300A168A1109250A168A1140
:102D9800F301F30A4D30F4009130F50003300A16C0
:102DA8008A1109250A168A11F301F30A5530F4002D
:102DB8009130F50004300A168A110925080083129B
:102DC80003134008C4004108C5004208C6000310A8
:102DD800450D460DC7004708CD004D08031DFD2EC3
:102DE8000030C3000030C2000030C1000030C00015
:102DF80008004008C4004108C5004208C600173052
:102E08000310C60CC50CC40CFF3E031D042F440858
:102E1800C7004708C800C117FF30C005FF30C1050B
:102E28000030C2054008C9004108CA004208CB006A
:102E3800CC018E30CD02CD1F3F2F4D08803A8F3EFA
:102E480003182F2F0030C3000030C2000030C1002B
:102E58000030C000080001300310CC0CCB0CCA0CA9
:102E6800C90CFF3E031D302F0130C4004408CD07B4
:102E780003195A2F2F2F18304D02031C572F0030DB
:102E8800C3000030C2000030C1000030C00008009C
:102E98000130C4000310C90DCA0DCB0DCC0DC40BF5
:102EA8004E2F0130CD024D08031D4C2F4808031941
:102EB800682FC909CA09CB09CC09C90A0319CA0A62
:102EC8000319CB0A0319CC0A4C08C3004B08C200EB
:102ED8004A08C1004908C000080083120313A10171
:102EE800F31F832FF009F109F209F309F00A031916
:102EF800F10A0319F20A0319F30AA101A10AF71F3B
:102F0800942FF409F509F609F709F40A0319F50AE3
:102F18000319F60A0319F70A0130F8007808A10620
:102F28000030A5000030A4000030A3000030A2004B
:102F380073087204710470040319E92FA001A00A30
:102F4800F31BB42F0130F8000310F00DF10DF20D52
:102F5800F30DF80BA82F0130F8007808A007A42F6C
:102F68000130F8000310A20DA30DA40DA50DF80B58
:102F7800B62F73087702031DCB2F72087602031D44
:102F8800CB2F71087502031DCB2F70087402031C28
:102F9800DC2F7008F4027108031C710FF502720827
:102FA800031C720FF6027308031C730FF702221436
:102FB80001300310F30CF20CF10CF00CFF3E031D72
:102FC800DD2F0130A002031DB42F21080319F72FAC
:102FD800A209A309A409A509A20A0319A30A0319A6
:102FE800A40A0319A50A2508F3002408F2002308F7
:082FF800F1002208F0000800BE
:02400E00B13FC0
:00000001FF
