:020000040000fa
:080000000001040000000000f3
:020000040000fa
:04000800c80100002b
:020000040000fa
:04000c00c801000027
:020000040000fa
:04001000c801000023
:020000040000fa
:04001400c80100001f
:020000040000fa
:04001800c80100001b
:020000040000fa
:04001c00c801000017
:020000040000fa
:04002000c801000013
:020000040000fa
:04002400c80100000f
:020000040000fa
:04002800c80100000b
:020000040000fa
:04002c00c801000007
:020000040000fa
:04003000c801000003
:020000040000fa
:04003400c8010000ff
:020000040000fa
:04003800c8010000fb
:020000040000fa
:04003c00c8010000f7
:020000040000fa
:04004000c8010000f3
:020000040000fa
:04004400c8010000ef
:020000040000fa
:04004800c8010000eb
:020000040000fa
:04004c00c8010000e7
:020000040000fa
:04005000c8010000e3
:020000040000fa
:04005400c8010000df
:020000040000fa
:04005800c8010000db
:020000040000fa
:04005c00c8010000d7
:020000040000fa
:04006000c8010000d3
:020000040000fa
:04006400c8010000cf
:020000040000fa
:04006800c8010000cb
:020000040000fa
:04006c00c8010000c7
:020000040000fa
:04007000c8010000c3
:020000040000fa
:04007400c8010000bf
:020000040000fa
:04007800c8010000bb
:020000040000fa
:04007c00c8010000b7
:020000040000fa
:04008000c8010000b3
:020000040000fa
:04008400c8010000af
:020000040000fa
:04008800c8010000ab
:020000040000fa
:04008c00c8010000a7
:020000040000fa
:04009000c8010000a3
:020000040000fa
:04009400c80100009f
:020000040000fa
:04009800c80100009b
:020000040000fa
:04009c00c801000097
:020000040000fa
:0400a000c801000093
:020000040000fa
:0400a400c80100008f
:020000040000fa
:0400a800c80100008b
:020000040000fa
:0400ac00c801000087
:020000040000fa
:0400b000c801000083
:020000040000fa
:0400b400c80100007f
:020000040000fa
:0400b800c80100007b
:020000040000fa
:0400bc00c801000077
:020000040000fa
:0400c000c801000073
:020000040000fa
:0400c400c80100006f
:020000040000fa
:0400c800c80100006b
:020000040000fa
:0400cc00c801000067
:020000040000fa
:0400d000c801000063
:020000040000fa
:0400d400c80100005f
:020000040000fa
:0400d800c80100005b
:020000040000fa
:04010800c80100002a
:020000040000fa
:04010c00c801000026
:020000040000fa
:04011000c801000022
:020000040000fa
:04011400c80100001e
:020000040000fa
:04011800c80100001a
:020000040000fa
:04011c00c801000016
:020000040000fa
:04012000c801000012
:020000040000fa
:04012400c80100000e
:020000040000fa
:04012800c80100000a
:020000040000fa
:04012c00c801000006
:020000040000fa
:04013000c801000002
:020000040000fa
:04013400c8010000fe
:020000040000fa
:04013800c8010000fa
:020000040000fa
:04013c00c8010000f6
:020000040000fa
:04014000c8010000f2
:020000040000fa
:04014400c8010000ee
:020000040000fa
:04014800c8010000ea
:020000040000fa
:04014c00c8010000e6
:020000040000fa
:04015000c8010000e2
:020000040000fa
:04015400c8010000de
:020000040000fa
:04015800c8010000da
:020000040000fa
:04015c00c8010000d6
:020000040000fa
:04016000c8010000d2
:020000040000fa
:04016400c8010000ce
:020000040000fa
:04016800c8010000ca
:020000040000fa
:04016c00c8010000c6
:020000040000fa
:04017000c8010000c2
:020000040000fa
:04017400c8010000be
:020000040000fa
:04017800c8010000ba
:020000040000fa
:04017c00c8010000b6
:020000040000fa
:04018000c8010000b2
:020000040000fa
:04018400c8010000ae
:020000040000fa
:04018800c8010000aa
:020000040000fa
:04018c00c8010000a6
:020000040000fa
:04019000c8010000a2
:020000040000fa
:04019400c80100009e
:020000040000fa
:04019800c80100009a
:020000040000fa
:04019c00c801000096
:020000040000fa
:0401a000c801000092
:020000040000fa
:0401a400c80100008e
:020000040000fa
:0401a800c80100008a
:020000040000fa
:0401ac00c801000086
:020000040000fa
:0401b000c801000082
:020000040000fa
:0401b400c80100007e
:020000040000fa
:0401b800c80100007a
:020000040000fa
:0401bc00c801000076
:020000040000fa
:0401c000c801000072
:020000040000fa
:0401c400c80100006e
:020000040000fa
:0401c800c80100006a
:020000040000fa
:0401cc00c801000066
:020000040000fa
:0401d000c801000062
:020000040000fa
:0401d400c80100005e
:020000040000fa
:0401d800c80100005a
:020000040000fa
:100200002f8020000eff20000e018800000000005b
:10021000000020000000e000020032000001200089
:1002200020028800140007005b0007000000e000c7
:1002300003003a00806f2000010020000200370018
:100240000000200001002000810f7000010032003a
:1002500014000700000020000000e000020032004f
:100260000000020000000000fe010200000000008b
:100270000040da000000fe004440a9000003200016
:100280000000e0000300320000002000a001880010
:100290004440a800000006008a1f78008b1f7800e9
:1002a0000000060091018800800478000000eb0047
:1002b0001a003700e284440032a0b4009905ba0065
:1002c000e284440032a0b4009906ba00e2844400fb
:1002d00032a0b4000006eb00476fde00fd07b2005d
:1002e000636ce10003003a00ebff07000000eb0045
:1002f0000a003700606ce10004003a00005deb008a
:100300008b05e900fdff3e00040037006168e10055
:10031000010032000086eb000b00070019c7ba008d
:100320001905ba000e04e00003003a000a00e000dc
:10033000e0ff3a0000000600fe07b2009e018800c0
:100340008a047800f5ff3700395dba008b05e900b3
:100350000c003200295dba008b05e900080032006c
:100360000c00e00003003a00e284440032a0b40034
:10037000f5ff370019ddba008b05e900faff3a00f6
:100380008904e800e184440032a0b40000000600c3
:0c0390000040da000000fe000000050044
:020000040000fa
:10039c000100000002000000040000000800000042
:1003ac000002000020000000040000000800000013
:1003bc0040000000000100000004000010000000dc
:1003cc000100000002000000040000000800000012
:1003dc0000020000200000000400000008000000e3
:1003ec0040000000000100000004000010000000ac
:020000040000fa
:1003fc000200fa00de02a800de22a800de82a800bd
:10040c00c622ef000080eb0040158800d222ef00de
:10041c00de22ef00cc22ef000000eb00000f780092
:10042c0000178000610060000000e00007003a0047
:10043c0000178000620060000000e00003003a003a
:10044c0010002000000f78002300370000178000f8
:10045c00610060000000e00007003200001780001f
:10046c00620060000000e00003003a002000200061
:10047c00000f780018003700001780006100600042
:10048c000000e00007003a000017800062006000e6
:10049c000000e0000300320030002000000f780064
:1004ac000d00370000178000610060000000e000c4
:1004bc000700320000178000620060000000e000be
:1004cc000300320040002000000f780002003700cb
:1004dc000000eb00000f78001e007800e20f5000c7
:1004ec000c003200e20f500003003c00e10f500002
:1004fc0006003200c8ff3700e30f5000070032003f
:10050c00e40f500007003200c3ff3700b5000700ae
:10051c00060037007b010700040037004401070088
:10052c00020037001600070000000000baff370079
:10053c000600fa002007980010002000000f780039
:10054c000000eb0010079800070037001e0fe800b2
:10055c001e0078000000e000fcff3a001e00900036
:10056c000000e800100798009e0090002e009000fc
:10057c00808f5000f6ff35000080fa000000060066
:10058c004a00fa00e20047000f0009008018eb0057
:10059c001000200010079800200020002007980071
:1005ac004000200030079800800020004007980091
:1005bc0000012000500798000002200060079800fe
:1005cc00001020007007980000202000000f9800f9
:1005dc0000402000100f980000002100200f980010
:1005ec0040002000300f980080002000400f980041
:1005fc0000022000500f980000402000600f98006f
:10060c0000102000700f98008e0078002102b000be
:10061c000f0009008018eb0000408000e40f500030
:10062c0002003400100020000040880001408000cf
:10063c0010002800008060000000e00004003d0075
:10064c000000e900e1ff2f00008070000000e800ce
:10065c00e10f50001b003a000000eb00000f780087
:10066c00150037009e007800100028000080600004
:10067c000000e00004003d000000e900e1ff2f0055
:10068c00008070000000e800e10f500009003a0003
:10069c001e00780000004000000047009000900011
:1006ac001e00780000004000000047002002b0004f
:1006bc00010878001e0fe8001e007800ef0f5000b4
:1006cc00e8ff3400d0e221005016880040062000dc
:1006dc001017880000102000b01688008000200041
:1006ec0010279800002020002027980000002400ec
:1006fc003027980000002200402798000000eb00f3
:10070c00000f7800320037001e0078000000e00077
:10071c0003003a004e209000801688002700370016
:10072c001e007800e10f500003003a003e209000bc
:10073c0080168800210037001e007800e20f500060
:10074c0006003a004e209000801688002e20900063
:10075c000010b000b0168800180037001e0078009a
:10076c00e30f500006003a003e20900080168800ef
:10077c001e2090000010b000b01688000f0037004b
:10078c001e007800e40f500004003a002e20900068
:10079c000010b000b0168800080037001e0078006a
:1007ac00e50f500005003a003e20900080168800ae
:1007bc001e2090000010b000b016880000e224004b
:1007cc005bff0700d022ef00d622ef001e0fe800df
:1007dc001e007800e50f5000cbff34000080fa00bb
:1007ec00000006002600fa00800020003007980068
:1007fc0000202000400798000000240050079800bb
:10080c000000220060079800ee004700621e2800de
:10081c000b000900b2187800000026008016880032
:10082c0080202000b01688000000eb00000f78003c
:10083c007a003700ca22ef00d022ef00d622ef0058
:10084c00e222ef001e007800e10f50003f003c0058
:10085c001e00780000004000e600470000804000c9
:10086c0010007800b01688000000eb00100798000c
:10087c00310037001e009000e40f50000b003400d4
:10088c001e009000e80f500008003c001e00900075
:10089c000000400000004700700090001017880016
:1008ac0000e2240022ff07001e0037001e0090000b
:1008bc00e90f500014003a001e00900000004000a8
:1008cc0000004700f00090001e007800000040007f
:1008dc0066014700000041001000780000804000d5
:1008ec00b016880000e2240011ff07001e007800fb
:1008fc0000004000e6004700008040001000780037
:10090c00b0168800070037001e0090000000400061
:10091c0000004700700090005016880000e2240090
:10092c0003ff0700ca22ef00e222ef001e00900036
:10093c000000e800100798001e009000eb0f50001c
:10094c00ccff3400d622ef00330037001e007800b5
:10095c0000004000e60047000080400010007800d6
:10096c00801688000000eb00200798002600370056
:10097c002e009000e40f50000b0034002e0090006d
:10098c00e80f500008003c002e00900000004000d2
:10099c0000004700700090001017880000e224004f
:1009ac00e3fe0700120037002e009000e90f500004
:1009bc0008003a002e0090000000400000004700a4
:1009cc0070009000b016880000e22400d8fe0700ea
:1009dc00070037002e009000000040000000470088
:1009ec00700090005016880000e22400d0fe070032
:1009fc00ca22ef00e222ef00d622ef002e00900078
:100a0c000000e800200798002e009000eb0f50002b
:100a1c00d7ff3400d022ef001e0fe8001e00780034
:100a2c00e30f500083ff34000080fa000000060042
:100a3c001000fa00f0f3210010079800c006200007
:100a4c00200798000010200030079800800020003c
:100a5c004007980000202000500798000000240058
:100a6c006007980000002200700798000000eb005f
:100a7c00000f78001e0037001e00900050168800f2
:100a8c002e009000101788003e009000b0168800d1
:100a9c001e007800e10f500009003c001e00780099
:100aac0000004000e8004700008040009000780003
:100abc003e00900000804000b01688000600370011
:100acc001e00780000004000e80047000080400055
:100adc001000780080168800401f200094fe07004c
:100aec003e009000b0168800d022ef001e0fe800e8
:100afc001e007800e30f5000dfff34000080fa0086
:100b0c00000006002e00fa008000200070079800fc
:100b1c0000202000000f980000002400100f980007
:100b2c0000002200200f9800f6004700e21c28006d
:100b3c000b000900b21878008020200050079800a4
:100b4c0000002600600798000000eb00000f780002
:100b5c000000eb00100798000000eb002007980045
:100b6c0000e2240072fe07000000eb004007980032
:100b7c00970037004e009000e10f500047003c00fa
:100b8c000000eb0030079800400037004e0090004a
:100b9c0000004000ee00470000804000100078008c
:100bac00b01688003e0090000000e00003003a0000
:100bbc009e0078006f8f4000230037003e009000ad
:100bcc00e10f500006003a00022020001e0f4100e9
:100bdc001e0090004002b000100798001a00370069
:100bec003e009000e20f500006003a001e009000fc
:100bfc008004b00010079800001020002007980017
:100c0c00110037003e009000e30f500003003a0043
:100c1c00004120001e0f40000b0037003e009000ea
:100c2c00e40f500003003a00011220001e8f400018
:100c3c00050037003e009000e50f500002003a001e
:100c4c00008021001e0f40001e009000101788002d
:100c5c001e007800501688004e00900000004000e6
:100c6c00ee00470000804000900078002e009000bd
:100c7c0000804000b016880000e224002cfe070023
:100c8c003e0090000000e800300798003e00900005
:100c9c00e50f5000bdff3400400037000000eb00b2
:100cac00300798003a0037004e00900000004000da
:100cbc00ee0047000080400010007800801688008d
:100ccc003e0090000000e00003003a001e01780096
:100cdc006f0f4100230037003e009000e10f5000e1
:100cec0006003a00012020001e8f40001e009000dc
:100cfc004002b000100798001a0037003e00900028
:100d0c00e20f500006003a001e0090008004b00074
:100d1c0010079800001020002007980011003700e1
:100d2c003e009000e30f500003003a000041200009
:100d3c001e0f40000b0037003e009000e40f5000e7
:100d4c0003003a00021220001e0f4100050037007c
:100d5c003e009000e50f500002003a000080210098
:100d6c001e0f40001e009000101788001e00780017
:100d7c00501688002e009000b016880000e2240067
:100d8c00ebfd07003e0090000000e80030079800e3
:100d9c003e009000e50f5000c3ff3400e222ef004c
:100dac00ca22ef00d622ef00d022ef000000eb00a9
:100dbc00200798000000eb00000f78000000eb000b
:100dcc00100798004e0090000000e80040079800c3
:100ddc004e009000e30f500066ff34000080fa00d4
:040dec0000000600fd
:020000040000fa
:100df00000080000020000000200000001000000e6
:040e000000000000ee
:020000040000fa
:0200000401f009
:04000000e0b9000063
:020000040000fa
:0200000401f009
:04000400ffff0000fa
:020000040000fa
:0200000401f009
:04000800ffff0000f6
:020000040000fa
:0200000401f009
:04001400ffff0000ea
:020000040000fa
:0200000401f009
:04001800ffff0000e6
:00000001FF
