:020000040000fa
:080000000001040000000000f3
:020000040000fa
:0400080000020000f2
:020000040000fa
:04000c0000020000ee
:020000040000fa
:0400100000020000ea
:020000040000fa
:0400140000020000e6
:020000040000fa
:0400180000020000e2
:020000040000fa
:04001c0000020000de
:020000040000fa
:0400200000020000da
:020000040000fa
:0400240000020000d6
:020000040000fa
:0400280000020000d2
:020000040000fa
:04002c0000020000ce
:020000040000fa
:0400300000020000ca
:020000040000fa
:0400340000020000c6
:020000040000fa
:0400380000020000c2
:020000040000fa
:04003c0000020000be
:020000040000fa
:0400400000020000ba
:020000040000fa
:04004400c8010000ef
:020000040000fa
:0400480000020000b2
:020000040000fa
:04004c0000020000ae
:020000040000fa
:0400500000020000aa
:020000040000fa
:0400540000020000a6
:020000040000fa
:0400580000020000a2
:020000040000fa
:04005c00000200009e
:020000040000fa
:04006000000200009a
:020000040000fa
:040064000002000096
:020000040000fa
:040068000002000092
:020000040000fa
:04006c00000200008e
:020000040000fa
:04007000000200008a
:020000040000fa
:040074000002000086
:020000040000fa
:040078000002000082
:020000040000fa
:04007c00000200007e
:020000040000fa
:04008000000200007a
:020000040000fa
:040084000002000076
:020000040000fa
:040088000002000072
:020000040000fa
:04008c00000200006e
:020000040000fa
:04009000000200006a
:020000040000fa
:040094000002000066
:020000040000fa
:040098000002000062
:020000040000fa
:04009c00000200005e
:020000040000fa
:0400a000000200005a
:020000040000fa
:0400a4000002000056
:020000040000fa
:0400a8000002000052
:020000040000fa
:0400ac00000200004e
:020000040000fa
:0400b000000200004a
:020000040000fa
:0400b4000002000046
:020000040000fa
:0400b8000002000042
:020000040000fa
:0400bc00000200003e
:020000040000fa
:0400c000000200003a
:020000040000fa
:0400c4000002000036
:020000040000fa
:0400c8000002000032
:020000040000fa
:0400cc00000200002e
:020000040000fa
:0400d000000200002a
:020000040000fa
:0400d4000002000026
:020000040000fa
:0400d8000002000022
:020000040000fa
:0401080000020000f1
:020000040000fa
:04010c0000020000ed
:020000040000fa
:0401100000020000e9
:020000040000fa
:0401140000020000e5
:020000040000fa
:0401180000020000e1
:020000040000fa
:04011c0000020000dd
:020000040000fa
:0401200000020000d9
:020000040000fa
:0401240000020000d5
:020000040000fa
:0401280000020000d1
:020000040000fa
:04012c0000020000cd
:020000040000fa
:0401300000020000c9
:020000040000fa
:0401340000020000c5
:020000040000fa
:0401380000020000c1
:020000040000fa
:04013c0000020000bd
:020000040000fa
:0401400000020000b9
:020000040000fa
:0401440000020000b5
:020000040000fa
:0401480000020000b1
:020000040000fa
:04014c0000020000ad
:020000040000fa
:0401500000020000a9
:020000040000fa
:0401540000020000a5
:020000040000fa
:0401580000020000a1
:020000040000fa
:04015c00000200009d
:020000040000fa
:040160000002000099
:020000040000fa
:040164000002000095
:020000040000fa
:040168000002000091
:020000040000fa
:04016c00000200008d
:020000040000fa
:040170000002000089
:020000040000fa
:040174000002000085
:020000040000fa
:040178000002000081
:020000040000fa
:04017c00000200007d
:020000040000fa
:040180000002000079
:020000040000fa
:040184000002000075
:020000040000fa
:040188000002000071
:020000040000fa
:04018c00000200006d
:020000040000fa
:040190000002000069
:020000040000fa
:040194000002000065
:020000040000fa
:040198000002000061
:020000040000fa
:04019c00000200005d
:020000040000fa
:0401a0000002000059
:020000040000fa
:0401a4000002000055
:020000040000fa
:0401a8000002000051
:020000040000fa
:0401ac00000200004d
:020000040000fa
:0401b0000002000049
:020000040000fa
:0401b4000002000045
:020000040000fa
:0401b8000002000041
:020000040000fa
:0401bc00000200003d
:020000040000fa
:0401c0000002000039
:020000040000fa
:0401c4000002000035
:020000040000fa
:0401c8000002000031
:020000040000fa
:0401cc00000200002d
:020000040000fa
:0401d0000002000029
:020000040000fa
:0401d4000002000025
:020000040000fa
:0401d8000002000021
:020000040000fa
:100200008f8120000eff20000e01880000000000fa
:10021000000020000000e000020032000001200089
:1002200020028800140007002c0307000000e000f3
:1002300003003a0020a62000010020000200370041
:100240000000200001002000810f7000010032003a
:1002500014000700000020000000e000020032004f
:100260000000020000000000c609020000000000bb
:100270000040da000000fe004440a900c002200057
:100280000000e0000300320000002000a001880010
:100290004440a800000006008a1f78008b1f7800e9
:1002a0000000060091018800800478000000eb0047
:1002b0001a003700e284440032a0b4009905ba0065
:1002c000e284440032a0b4009906ba00e2844400fb
:1002d00032a0b4000006eb00476fde00fd07b2005d
:1002e000636ce10003003a00ebff07000000eb0045
:1002f0000a003700606ce10004003a00005deb008a
:100300008b05e900fdff3e00040037006168e10055
:10031000010032000086eb000b00070019c7ba008d
:100320001905ba000e04e00003003a000a00e000dc
:10033000e0ff3a0000000600fe07b2009e018800c0
:100340008a047800f5ff3700395dba008b05e900b3
:100350000c003200295dba008b05e900080032006c
:100360000c00e00003003a00e284440032a0b40034
:10037000f5ff370019ddba008b05e900faff3a00f6
:100380008904e800e184440032a0b40000000600c3
:100390003600f800809fbe00829fbe00849fbe0092
:1003a000869fbe000000fa000040800011408000df
:1003b00002002000833c24007b03070002002f0082
:1003c000f3572400c6020700070307000000780067
:1003d000000c88006000b8000040880011408800d0
:1003e00084e0a9000080fa004f03be004f02be0067
:1003f0004f01be004f00be003600f900004006006d
:100400000040da000000fe000200fa00004f780011
:1004100079020700cb22a900cb42a900cb62a90038
:10042000cb82a900e2a2a900e242a900e282a900cf
:10043000c722a900c742a900c762a900c782a900b4
:10044000dea2a900de42a900de82a90000c3b3003b
:100450005b0107006802070000c3b30058010700f2
:100460009202070000c3b300550107008f02070086
:1004700000cfb3001e406000510107001e4078000d
:100480004f0107006d020700c0c0b3004c01070018
:100490006a02070010c0b3004901070067020700a5
:1004a00060c0b300460107000080fa0000000600ab
:1004b0000200fa00004f7800e2a2a900e242a9007f
:1004c000c722a900c742a900c762a900c782a90024
:1004d000cb22a8009e00fb000004200000806000ea
:1004e0004680de0000407800614060000080fb0034
:1004f000610060004a00dd005116800001a0a100eb
:1005000001007000501688009e00fb0000022000d1
:10051000008060004580de0000407800614060009f
:100520000080fb00610060004b00dd005116800080
:1005300001b0a10001007000501688001e00fb00f1
:10054000700060004480de00004078006140600080
:100550000080fb00610060004c00dd00511680004f
:1005600001c0a1000100700050168800e282a800be
:1005700015020700e282a900e2a2a900e242a90056
:100580001e00fb00680060004380de000040780031
:10059000614060000080fb00610060004900dd00f8
:1005a000511680000190a1000100700050168800d3
:1005b0001e00fb00640060004280de000040780006
:1005c000614060000080fb00610060004a00dd00c7
:1005d0005116800001a0a100010070005016880093
:1005e0001e00fb00620060000080d1000040780027
:1005f000614060000080fb00610060004b00dd0096
:100600005116800001b0a100010070005016880052
:100610001e40780061406000614060006140600001
:100620000080fb00610060004c00dd00511680007e
:1006300001c0a1000100700050168800e282a800ed
:10064000e1010700e282a900c722a800c742a80072
:10065000c762a800c782a800140207000080fa0041
:10066000000006000000fa00c722a800c742a80048
:10067000c762a800c782a800e2a2a800e242a900bf
:10068000d1010700e282a800cf01070041168000d7
:1006900000202000008060000000e0000400320024
:1006a000e282a900f601070010c0b3000300370082
:1006b000e282a900f20107000040eb000080fa008e
:1006c000000006000c00fa00c722a800c742a800dc
:1006d000c762a800c782a800e2a2a800e242a9005f
:1006e000b9010700e282a800b701070040168000a8
:1006f0004a00de0061406000204f98002e489000c4
:100700000000fb004600dd0000407800204f98000c
:10071000401680004b00de0061406000104f9800e2
:100720001e4890000000fb004500dd0000407800fe
:10073000104f9800401680004c00de0061406000c1
:10074000004f98000e4890000000fb004400dd00c0
:1007500000407800004f9800e282a900e2a2a800c1
:10076000e242a900e282a80097010700401680003b
:100770004900de0061406000704798007e409000b4
:100780000000fb004300dd00004078007047980047
:10079000401680004a00de0061406000604798001b
:1007a0006e4090000000fb004200dd000040780039
:1007b00060479800401680004b00de0061406000fa
:1007c000504798005e4090000000fb000000400091
:1007d0000040780050479800401680004c00de0032
:1007e0006140600040479800e282a9000000eb00f1
:1007f0001007980008003700e40047001e00900032
:1008000000804000104078001e4f70001e009000d5
:100810000000e800100798001e009000e70f50004d
:10082000f5ff34001e4078000080fa00000006004a
:100830000c00fa00c722a800c742a800c762a8009f
:10084000c782a800e2a2a800e242a8005e01070059
:10085000e282a8005c010700401680004900de002b
:1008600061406000304f98003e4890000000fb005f
:100870004700dd0000407800304f980040168000af
:100880004a00de0061406000204f98002e48900032
:100890000000fb004600dd0000407800204f98007b
:1008a000401680004b00de0061406000104f980051
:1008b0001e4890000000fb004500dd00004078006d
:1008c000104f9800401680004c00de006140600030
:1008d000004f98000e4890000000fb004400dd002f
:1008e00000407800004f9800e282a900e2a2a80030
:1008f000e242a800e282a80033010700401680000f
:100900004900de0061406000704798007e40900022
:100910000000fb004300dd000040780070479800b5
:10092000401680004a00de00614060006047980089
:100930006e4090000000fb004200dd0000407800a7
:1009400060479800401680004b00de006140600068
:10095000504798005e4090000000fb0000004000ff
:100960000040780050479800401680004c00de00a0
:100970006140600040479800e282a9000000eb005f
:100980001007980008003700e40047001e009000a0
:1009900000804000104078001e4f70001e00900044
:1009a0000000e800100798001e009000e70f5000bc
:1009b000f5ff34001e4078000080fa0000000600b9
:1009c0000200fa00004f7800e2a2a900e242a9006a
:1009d000c722a900c742a900c762a900c782a9000f
:1009e0009e00fb0000082000008060004780de00c1
:1009f00000407800614060000080fb006100600002
:100a00004900dd00511680000190a1000100700036
:100a1000501688009e00fb0000042000008060004b
:100a20004680de0000407800614060000080fb00ee
:100a3000610060004a00dd005116800001a0a100a5
:100a400001007000501688009e00fb00000220008c
:100a5000008060004580de0000407800614060005a
:100a60000080fb00610060004b00dd00511680003b
:100a700001b0a10001007000501688001e00fb00ac
:100a8000700060004480de0000407800614060003b
:100a90000080fb00610060004c00dd00511680000a
:100aa00001c0a1000100700050168800e282a80079
:100ab000c5000700e282a900e2a2a900e242a90063
:100ac0001e00fb00680060004380de0000407800ec
:100ad000614060000080fb00610060004900dd00b3
:100ae000511680000190a10001007000501688008e
:100af0001e00fb00640060004280de0000407800c1
:100b0000614060000080fb00610060004a00dd0081
:100b10005116800001a0a10001007000501688004d
:100b20001e00fb00620060000080d10000407800e1
:100b3000614060000080fb00610060004b00dd0050
:100b40005116800001b0a10001007000501688000d
:100b50001e407800614060006140600061406000bc
:100b60000080fb00610060004c00dd005116800039
:100b700001c0a1000100700050168800e282a800a8
:100b800091000700e282a90000000000b5fe070006
:100b90000004e000fdff3a000080fa0000000600bb
:100ba0000200fa00004f7800e2a2a900e242a80089
:100bb000c722a900c742a900c762a900c782a9002d
:100bc0009e00fb0000082000008060004780de00df
:100bd00000407800614060000080fb006100600020
:100be0004900dd00511680000190a1000100700055
:100bf000501688009e00fb0000042000008060006a
:100c00004680de0000407800614060000080fb000c
:100c1000610060004a00dd005116800001a0a100c3
:100c200001007000501688009e00fb0000022000aa
:100c3000008060004580de00004078006140600078
:100c40000080fb00610060004b00dd005116800059
:100c500001b0a10001007000501688001e00fb00ca
:100c6000700060004480de00004078006140600059
:100c70000080fb00610060004c00dd005116800028
:100c800001c0a1000100700050168800e282a80097
:100c90004d000700e282a900e2a2a900e242a800fa
:100ca0001e00fb00680060004380de00004078000a
:100cb000614060000080fb00610060004900dd00d1
:100cc000511680000190a1000100700050168800ac
:100cd0001e00fb00640060004280de0000407800df
:100ce000614060000080fb00610060004a00dd00a0
:100cf0005116800001a0a10001007000501688006c
:100d00001e00fb00620060000080d10000407800ff
:100d1000614060000080fb00610060004b00dd006e
:100d20005116800001b0a10001007000501688002b
:100d30001e407800614060006140600061406000da
:100d40000080fb00610060004c00dd005116800057
:100d500001c0a1000100700050168800e282a800c6
:100d600019000700e282a900c722a800c742a80014
:100d7000c762a800c782a800e242a90000000000e4
:100d800038fe07000004e000fdff3a000080fa0092
:100d9000000006000200fa00000f7800040037008f
:100da0001e007800104078007dff07001e0fe8004d
:100db0001e007800104078000004e000f8ff3a00c0
:100dc0000080fa00000006000200fa000000eb00bc
:100dd000000f7800020037000060fe001e0fe800e0
:100de000100320009e007800808f5000faff34002e
:100df0000080fa00000006000400fa006000b8005d
:100e0000008fbe00050037000060fe0012002000c9
:100e1000030020001e0f41005e974900f087230069
:100e2000110020001e01be00800f5100818f59006b
:100e3000f5ff34000080fa00000006000400fa000c
:100e40006000b800008fbe00050037000060fe00a3
:100e500012002000030020001e0f41005e97490091
:100e600070322200010020001e01be00800f5100e0
:100e7000818f5900f5ff34000080fa000000060061
:100e80000200fa000000eb00000f780002003700bb
:100e90000060fe001e0fe8001e007800e90f500001
:100ea000fbff34000080fa00000006000200fa0098
:100eb0000000eb00000f7800020037000060fe0029
:100ec0001e0fe800703e20009e007800808f5000ca
:100ed000faff34000080fa00000006000000050060
:100ee000889fbe008a9fbe008c1f78009600070076
:100ef0009d00330003866c006450e1002e00320038
:100f00006420e100330032006150e1002f00320024
:100f10006120e1003100320085855500eb07b0000b
:100f200009002000080420000500370008044400e0
:100f300089844c000a0031000603430087834b007c
:100f40000001530081815b00f8ff33000203be0003
:100f50000800a0000804440089844c00f6ff390012
:100f6000c639dd0083017300010032001300200048
:100f70008904d1000884d3000998a3000500320039
:100f80000800a7000300a0008904d1000884d30052
:100f90008b05e8008904d1000884d3000001eb0030
:100fa0000281d2002d00070001f0a1000cf0a70083
:100fb00001f0a000750037006420e10077003200e6
:100fc0000801be000200be00f7ff37006120e1000b
:100fd000720032006000b800f3ff3700000020000c
:100fe00001f82700f0ff37000001be0041000700b4
:100ff0000470a70003f0a10003f8a30013003a0057
:101000006509b10010003200090035006928e100cf
:10101000020035000100280000000500000040002b
:10102000818048008502e900fcff3a0000000600cc
:10103000f88f4200050035008100d1000080d30008
:101040008502e800fcff3a00000006008000eb008b
:10105000000005006011b800870037008100200003
:10106000618055000b003d000b00200061fe2f0049
:101070000100e1001d003400828171006101640003
:101080008904d1000884d3000000e800faff3a0088
:101090007100200061006400030070000200600025
:1010a0000900320061044400e0844c000988a50076
:1010b000050032008b05e8006808e10002003a00f4
:1010c0008904d1000884d300f20f20000258e10007
:1010d00005003d00c75ddd00f907b200898075009d
:1010e00008007800000006000bf827008b0078004d
:1010f00000000500c70ade00f107b200f50fb200dc
:1011000008003200e1cf4200020032000170a0006e
:1011100024000500810f7000010032000408050062
:1011200044000500810f700002003a001400050021
:101130008502e9000000400081c04800fcff3b0040
:101140000170a000240005000004be00e9ff0700b4
:101150000003be000405be000200be00e5ff07005c
:10116000844f7500000006000200be006450e100dc
:10117000050036006420e100020036000968a30083
:1011800001003a000800be000160a0004f06780090
:101190004f05be004f04be0000000600f0ff2f0008
:1011a000f1ff2700f9ff3700889fbe008a9fbe002d
:1011b0008c1f7800e4ff0700ebff330003866c0010
:1011c0006450e100240032006420e1002700320076
:1011d0006150e100220032006120e1002100320074
:1011e0008b854200eb07b1000134b800003ab8002b
:1011f0000804420089844a00013ab8000030b8006f
:101200008880400009014a000400330000004000cb
:1012100081804800020149008b05e900c909dd0011
:10122000830170000100320013002000c814de00aa
:101230004814dd004709de001200b200c808de00d5
:101240000884700085ff070001f0a1000cf0a700e2
:1012500001f0a000cdff37006120e100cfff320098
:101260000801be000200be00f7ff37006150e10038
:10127000fcff3a00c9ff3700889fbe008a9fbe006e
:1012800000827000040271000482710026003200a6
:101290000004be000200be006011b8006b0920000f
:1012a000950220000182cf000a0039000541b100fb
:1012b0000082cf00070039000541b1000982cf004c
:1012c000040039000541b1000882cf000100390057
:1012d0000541b10005425200120032000a003b00f5
:1012e00082817100610164008100d1000080d3001f
:1012f0008984d3000884d3008b05e8000442e80009
:10130000f7ff3a00070037000804440089844c00c6
:1013100000004800818048008b05e9000442e90094
:10132000f9ff3a004dff07004f05be004f04be0015
:0413300000000600b3
:020000040000fa
:101334004d750000736900006361000020410000e6
:101344004443000020200000202000002020000052
:1013540020200000202000002000000020200000a9
:101364002020000020200000202000002020000079
:101374002020000020200000202000002020000069
:08138400202000002000000001
:020000040000fa
:10138c000000fa00c602a800a802a90011158000ee
:10139c00f0ff21000080600000f0a0001015880014
:1013ac003115800000ff2f00008060003015880090
:1013bc002115800000fc2f0080806000400320007d
:1013cc000100700020158800a1e2a800a042a8002e
:1013dc0021158000f00f2e0080806000003020006e
:1013ec00010070002015880001158000000e2000ff
:1013fc0001007000001588001115800030fc2f00d2
:10140c00008060000020a000101588000a21ef0069
:10141c00001920007008880091088000f0fc2f0053
:10142c0000806000900888001221a90013e1a80038
:10143c00b1048000f0ff28000080600000e0a000f4
:10144c00b004880084e0a9008ce0a8008461a800a6
:10145c008221ef00210c800080ff2f0000806000b3
:10146c006000b300200c8800e0002000200c8800f5
:10147c00f0c2b300e1fb07000000000076fc07009f
:10148c000004e000fdff3a00a09928003efe070092
:10149c0000c4b30003fc0700009b28003afe0700c1
:1014ac00001480008000eb00e7fe0700004088007d
:0814bc0011408800faff37001f
:020000040000fa
:1014c40000080000180000000000000000000000f8
:020000040000fa
:0200000401f009
:04000000e7bf000056
:020000040000fa
:0200000401f009
:04000400ffff0000fa
:020000040000fa
:0200000401f009
:04000800ffff0000f6
:020000040000fa
:0200000401f009
:04001400ffff0000ea
:020000040000fa
:0200000401f009
:04001800ffff0000e6
:00000001FF
