:020000040000fa
:080000000001040000000000f3
:020000040000fa
:0400080000030000f1
:020000040000fa
:04000c0000030000ed
:020000040000fa
:0400100000030000e9
:020000040000fa
:0400140000030000e5
:020000040000fa
:0400180000030000e1
:020000040000fa
:04001c0000030000dd
:020000040000fa
:0400200000030000d9
:020000040000fa
:0400240000030000d5
:020000040000fa
:0400280000030000d1
:020000040000fa
:04002c0000030000cd
:020000040000fa
:0400300000030000c9
:020000040000fa
:0400340000030000c5
:020000040000fa
:0400380000030000c1
:020000040000fa
:04003c0000030000bd
:020000040000fa
:0400400000030000b9
:020000040000fa
:04004400c8010000ef
:020000040000fa
:0400480000030000b1
:020000040000fa
:04004c0000030000ad
:020000040000fa
:0400500000030000a9
:020000040000fa
:0400540000030000a5
:020000040000fa
:0400580000030000a1
:020000040000fa
:04005c00000300009d
:020000040000fa
:040060000003000099
:020000040000fa
:040064006602000030
:020000040000fa
:040068000003000091
:020000040000fa
:04006c00000300008d
:020000040000fa
:040070000003000089
:020000040000fa
:040074000003000085
:020000040000fa
:040078000003000081
:020000040000fa
:04007c00000300007d
:020000040000fa
:040080000003000079
:020000040000fa
:040084000003000075
:020000040000fa
:040088000003000071
:020000040000fa
:04008c00000300006d
:020000040000fa
:040090000003000069
:020000040000fa
:040094000003000065
:020000040000fa
:040098000003000061
:020000040000fa
:04009c00000300005d
:020000040000fa
:0400a0000003000059
:020000040000fa
:0400a4000003000055
:020000040000fa
:0400a8000003000051
:020000040000fa
:0400ac00000300004d
:020000040000fa
:0400b0000003000049
:020000040000fa
:0400b4000003000045
:020000040000fa
:0400b8000003000041
:020000040000fa
:0400bc00000300003d
:020000040000fa
:0400c0000003000039
:020000040000fa
:0400c4000003000035
:020000040000fa
:0400c8000003000031
:020000040000fa
:0400cc00000300002d
:020000040000fa
:0400d0000003000029
:020000040000fa
:0400d4000003000025
:020000040000fa
:0400d8000003000021
:020000040000fa
:0401080000030000f0
:020000040000fa
:04010c0000030000ec
:020000040000fa
:0401100000030000e8
:020000040000fa
:0401140000030000e4
:020000040000fa
:0401180000030000e0
:020000040000fa
:04011c0000030000dc
:020000040000fa
:0401200000030000d8
:020000040000fa
:0401240000030000d4
:020000040000fa
:0401280000030000d0
:020000040000fa
:04012c0000030000cc
:020000040000fa
:0401300000030000c8
:020000040000fa
:0401340000030000c4
:020000040000fa
:0401380000030000c0
:020000040000fa
:04013c0000030000bc
:020000040000fa
:0401400000030000b8
:020000040000fa
:0401440000030000b4
:020000040000fa
:0401480000030000b0
:020000040000fa
:04014c0000030000ac
:020000040000fa
:0401500000030000a8
:020000040000fa
:0401540000030000a4
:020000040000fa
:0401580000030000a0
:020000040000fa
:04015c00000300009c
:020000040000fa
:040160000003000098
:020000040000fa
:040164000003000094
:020000040000fa
:040168000003000090
:020000040000fa
:04016c00000300008c
:020000040000fa
:040170000003000088
:020000040000fa
:040174000003000084
:020000040000fa
:040178000003000080
:020000040000fa
:04017c00000300007c
:020000040000fa
:040180000003000078
:020000040000fa
:040184000003000074
:020000040000fa
:040188000003000070
:020000040000fa
:04018c00000300006c
:020000040000fa
:040190000003000068
:020000040000fa
:040194000003000064
:020000040000fa
:040198000003000060
:020000040000fa
:04019c00000300005c
:020000040000fa
:0401a0000003000058
:020000040000fa
:0401a4000003000054
:020000040000fa
:0401a8000003000050
:020000040000fa
:0401ac00000300004c
:020000040000fa
:0401b0000003000048
:020000040000fa
:0401b4000003000044
:020000040000fa
:0401b8000003000040
:020000040000fa
:0401bc00000300003c
:020000040000fa
:0401c0000003000038
:020000040000fa
:0401c4000003000034
:020000040000fa
:0401c8000003000030
:020000040000fa
:0401cc00000300002c
:020000040000fa
:0401d0000003000028
:020000040000fa
:0401d4000003000024
:020000040000fa
:0401d8000003000020
:020000040000fa
:100200002fb420000eff20000e0188000000000027
:10021000000020000000e000020032000001200089
:100220002002880014000700f70007000000e0002b
:1002300003003a0060632000010020000200370044
:100240000000200001002000810f7000010032003a
:1002500014000700000020000000e000020032004f
:100260000000020000000000320502000000000053
:100270000040da000000fe004440a9000000200019
:100280000000e0000300320000002000a001880010
:100290004440a800000006008a1f78008b1f7800e9
:1002a0000000060091018800800478000000eb0047
:1002b0001a003700e284440032a0b4009905ba0065
:1002c000e284440032a0b4009906ba00e2844400fb
:1002d00032a0b4000006eb00476fde00fd07b2005d
:1002e000636ce10003003a00ebff07000000eb0045
:1002f0000a003700606ce10004003a00005deb008a
:100300008b05e900fdff3e00040037006168e10055
:10031000010032000086eb000b00070019c7ba008d
:100320001905ba000e04e00003003a000a00e000dc
:10033000e0ff3a0000000600fe07b2009e018800c0
:100340008a047800f5ff3700395dba008b05e900b3
:100350000c003200295dba008b05e900080032006c
:100360000c00e00003003a00e284440032a0b40034
:10037000f5ff370019ddba008b05e900faff3a00f6
:100380008904e800e184440032a0b40000000600c3
:100390003600f800809fbe00829fbe00849fbe0092
:1003a000869fbe000400fa006000b800604f88001d
:1003b000714f88000000eb00000f78001600370036
:1003c0001e007800c200dd00008020000080400098
:1003d0001002be001e007800c200dd0080852000f3
:1003e000008040001000be000001be000400be00fe
:1003f000240107000002be00604f8000714f8000a2
:100400000001be000400be0081000700604f8800ac
:10041000714f88001e0fe800b04280009e007800f7
:10042000808f5000e6ff35000000eb00000f7800e1
:100430000b0037001e00e800c200dd000080200035
:10044000008040001000be001e017800c211dd00d7
:1004500002802000028141000089be001e0fe800da
:100460001e007800f30f5000f2ff340000148000eb
:10047000100798009e009000d01420000088b9005a
:1004800080007800f0ff20000001780011000900d2
:100490008200d800000c8800001480008000eb006f
:1004a000b8000700804288009142880084e0a900db
:1004b0000080fa004f03be004f02be004f01be0095
:1004c0004f00be003600f90000400600809fbe00cd
:1004d000829fbe000200fa004016800061006000aa
:1004e0000000e000130032000000eb00000f780075
:1004f0000d003700b04280001e0050000000e900ef
:10050000c200dd0060a42000008040001000be009a
:100510001e017800c211dd008285200002814100a9
:100520000089be001e0fe8001e007800f40f500086
:10053000f0ff340040168000620060000000e00020
:10054000130032000000eb00000f78000d003700b0
:10055000b04280001e0050000000e900c200dd0033
:10056000a0a92000008040001000be001e017800fd
:10057000c211dd0082852000028141000089be0099
:100580001e0fe8001e007800f40f5000f0ff34004a
:1005900040168000680060000000e0001300320098
:1005a0000000eb00000f78000d003700b042800023
:1005b0001e0050000000e900c200dd00e0ae200097
:1005c000008040001000be001e017800c211dd0056
:1005d00082852000028141000089be001e0fe800d4
:1005e0001e007800f40f5000f0ff340085e0a900f1
:1005f0000080fa004f01be004f00be000040060020
:100600000040da000000fe000000050003f0a20038
:10061000889fbe008a9fbe008c1f78008100070063
:10062000880033006450e1004f0032006420e10094
:100630005200320003826c0007003b000905d00025
:100640000306d000820f54000c065d000200390042
:100650000200320089017800030678008582550087
:1006600004003d000003fd008103fd008502ea0057
:100670008b854200840f720002003b006000100076
:10068000e08018006011b8000005eb007a28e10056
:100690000a00390006007800c75ddd00f707b200e8
:1006a000878075002d003700828171000a01780073
:1006b000610560008180d1000080d3008502e900df
:1006c000f9ff3b00060440008784480002003b001d
:1006d00060041400e0841c000988a30007003200b5
:1006e0008a81710082817100610164008904d100f6
:1006f0000884d3008b05e800170037000978a300b1
:1007000013003a000b00e000130034008b05e900f1
:100710000804440089844c000a4474000978a3004a
:100720000d003a000b00e000070034008b05e900e3
:100730000804440089844c0001003a000b002000aa
:100740000978a300f7ff32000001eb000200370038
:10075000828171000a0178000c0007000cf0a700ec
:1007600001f0a000400037006420e10002003a00e0
:10077000838f6c00400033000801be000200be0001
:10078000390037006011b800720037008100200086
:10079000618055000b003d000b00200061fe2f0022
:1007a0000100e1001d0034008281710061016400dc
:1007b0008904d1000884d3000000e800faff3a0061
:1007c00071002000610064000300700002006000fe
:1007d0000900320061044400e0844c000988a5004f
:1007e000050032008b05e8006808e10002003a00cd
:1007f0008904d1000884d300f20f20000258e100e0
:1008000005003d00c75ddd00f907b2008980750075
:1008100008007800000006000bf827008b00780025
:10082000000005000004be00790007000003be00c0
:100830000405be000200be0075000700844f75006d
:10084000000006000200be006450e1000500360012
:100850006420e100020036000968a30001003a00ac
:100860000800be000160a0004f0678004f05be00e2
:100870004f04be0000000600f0ff2f00f1ff27002c
:10088000f9ff3700889fbe008a9fbe008c1f78004a
:10089000e4ff0700ebff330003866c006450e100c7
:1008a000240032006420e100270032006150e100a2
:1008b000220032006120e100210032008b854200dd
:1008c000eb07b1000134b800003ab8000804420058
:1008d00089844a00013ab8000030b800888040009e
:1008e00009014a00040033000000400081804800f4
:1008f000020149008b05e900c909dd008301700090
:100900000100320013002000c814de004814dd008e
:100910004709de001200b200c808de00088470003b
:100920009aff070001f0a1000cf0a70001f0a00061
:10093000cdff37006120e100cfff32000801be008b
:100940000200be00f7ff37006150e100fcff3a00f3
:10095000c9ff3700889fbe008a9fbe0000827000da
:100960000402710004827100260032000004be00ff
:100970000200be006011b8006b0920009502200043
:100980000182cf000a0039000541b1000082cf008a
:10099000070039000541b1000982cf000400390089
:1009a0000541b1000882cf00010039000541b100c6
:1009b00005425200120032000a003b0082817100a1
:1009c000610164008100d1000080d3008984d300dc
:1009d0000884d3008b05e8000442e800f7ff3a00e2
:1009e000070037000804440089844c0000004800d8
:1009f000818048008b05e9000442e900f9ff3a00d4
:100a000062ff07004f05be004f04be000000060055
:100a1000c70ade00f107b200f50fb200080032008d
:100a2000e1cf4200020032000170a0002400050066
:100a3000810f700001003200040805004400050029
:100a4000810f700002003a00140005008502e900e1
:100a50000000400081c04800fcff3b000170a00086
:040a60002400050069
:020000040000fa
:100a64000200fa002d000700510007006c00070087
:100a740050012000a042880050012000b0428800ac
:100a84000000eb00000f7800130037001e00780010
:100a9400c200dd0000802000008140006000b8003a
:100aa4000089be00b04280001e0050000000e90032
:100ab400c200dd00209f2000008040001000be0026
:100ac4001e017800c211dd008285200002814100f0
:100ad4000089be001e0fe8001e007800f40f5000cd
:100ae400eaff3400ffff37000000fa000c02a900ff
:100af4006110800090ff2f0000806000601088006b
:100b04000d42a90090012000a01088000de2a80069
:100b14000f42a8000080fa00000006000000fa005e
:100b2400c642a800a842a90011158000f0ff2100c8
:100b34000080600000f0a0001015880031158000ce
:100b440000ff2f00008060000010a0003015880016
:100b54002115800000fc2f0080806000c00320006d
:100b64000100700020158800a1e2a800a042a8009e
:100b740021158000f00f2e00008060000080a0008e
:100b84002015880001158000000e2000010070006f
:100b9400001588001115800030fc2f0000806000d3
:100ba4000020a000101588000080fa000000060054
:100bb4000000fa000a21ef00d01420007008880019
:100bc40091088000f0fc2f000080600090088800ed
:100bd4001221a90013e1a80084e0a9008ce0a80078
:100be400b1048000f0ff28000080600000e0a00055
:100bf400b00488008461a8008221ef00210c8000e9
:100c040080ff2f00008060006000b300200c88008b
:100c1400e0002000200c88000080fa00000006009c
:100c24000000fa00c602a800c622a800c662a800f6
:100c3400a802a800a822a800a862a800c040a80092
:100c4400c060a800c0a0a80085e0a900d10480006d
:100c54000000270001007000d00488008de0a80087
:080c64000080fa000000060008
:020000040000fa
:100c6c0000080000f201000000000000f209000082
:100c7c005001000002000000000000000057a3001b
:100c8c00ebbb050064b9bc0097503f00bd78f10088
:100c9c00a1bd3100f0f2bd00fb732700beef6c006c
:100cac0058bec500b584be009f9a9b00be092a00a1
:100cbc005b409f009a9bbe00c5b58400beef6c00e4
:100ccc0058befb007327be0031f0f200bd78f10076
:100cdc00a1bd9700503fbd000564b900bc57a300ef
:100cec00ebbb000000000000d3b33100a12556007f
:100cfc00a2ac5e006e96b100fa520e00b5a8580078
:100d0c00a5b7e10023a7b900d1c12f00bb3d250039
:100d1c0055bc7700b21ebd0093ac9600bd3fba0027
:100d2c00683f9300ac96bd0077b21e00bd3d250018
:100d3c0055bcd100c12fbb00e123a700b9a85800b6
:100d4c00a5b7fa00520eb5005e6e9600b12556009e
:100d5c00a2acd300b331a100000000000057a300e7
:100d6c00ebbb050064b9bc0097503f00bd78f100a7
:100d7c00a1bd3100f0f2bd00fb732700beef6c008b
:100d8c0058bec500b584be009f9a9b00be092a00c0
:100d9c005b409f009a9bbe00c5b58400beef6c0003
:100dac0058befb007327be0031f0f200bd78f10095
:100dbc00a1bd9700503fbd000564b900bc57a3000e
:100dcc00ebbb0000000000000000000000d7f800a2
:100ddc004a39c50096d73a00f5e7cb003bee300018
:100dec00863c6600250c3d00aa9e75003d13fe0056
:100dfc00b93d9300aaf73d00f37f12003ea0d90045
:100e0c001a3ef3007f123e0093aaf7003d13fe003a
:100e1c00b93daa009e753d0066250c003dee3000e4
:100e2c00863cf500e7cb3b00c596d7003ad7f800d7
:0c0e3c004a390000000000000000000027
:020000040000fa
:0200000401f009
:04000000e7bf000056
:020000040000fa
:0200000401f009
:04000400ffff0000fa
:020000040000fa
:0200000401f009
:04000800ffff0000f6
:020000040000fa
:0200000401f009
:04001400ffff0000ea
:020000040000fa
:0200000401f009
:04001800ffff0000e6
:00000001FF
