:020000040000fa
:080000000001040000000000f3
:020000040000fa
:04000800720e000074
:020000040000fa
:04000c00720e000070
:020000040000fa
:04001000720e00006c
:020000040000fa
:04001400720e000068
:020000040000fa
:04001800720e000064
:020000040000fa
:04001c00720e000060
:020000040000fa
:04002000720e00005c
:020000040000fa
:04002400720e000058
:020000040000fa
:04002800720e000054
:020000040000fa
:04002c00720e000050
:020000040000fa
:04003000720e00004c
:020000040000fa
:04003400720e000048
:020000040000fa
:04003800720e000044
:020000040000fa
:04003c00720e000040
:020000040000fa
:04004000720e00003c
:020000040000fa
:04004400720e000038
:020000040000fa
:04004800720e000034
:020000040000fa
:04004c00720e000030
:020000040000fa
:04005000720e00002c
:020000040000fa
:04005400720e000028
:020000040000fa
:04005800720e000024
:020000040000fa
:04005c00720e000020
:020000040000fa
:04006000720e00001c
:020000040000fa
:04006400cc010000cb
:020000040000fa
:04006800720e000014
:020000040000fa
:04006c00720e000010
:020000040000fa
:04007000720e00000c
:020000040000fa
:04007400720e000008
:020000040000fa
:04007800720e000004
:020000040000fa
:04007c00720e000000
:020000040000fa
:04008000720e0000fc
:020000040000fa
:04008400720e0000f8
:020000040000fa
:04008800720e0000f4
:020000040000fa
:04008c00720e0000f0
:020000040000fa
:04009000720e0000ec
:020000040000fa
:04009400720e0000e8
:020000040000fa
:04009800720e0000e4
:020000040000fa
:04009c00720e0000e0
:020000040000fa
:0400a000720e0000dc
:020000040000fa
:0400a400720e0000d8
:020000040000fa
:0400a800720e0000d4
:020000040000fa
:0400ac00720e0000d0
:020000040000fa
:0400b000720e0000cc
:020000040000fa
:0400b400720e0000c8
:020000040000fa
:0400b800720e0000c4
:020000040000fa
:0400bc00720e0000c0
:020000040000fa
:0400c000720e0000bc
:020000040000fa
:0400c400720e0000b8
:020000040000fa
:0400c800720e0000b4
:020000040000fa
:0400cc00720e0000b0
:020000040000fa
:0400d000720e0000ac
:020000040000fa
:0400d400720e0000a8
:020000040000fa
:0400d800720e0000a4
:020000040000fa
:04010800720e000073
:020000040000fa
:04010c00720e00006f
:020000040000fa
:04011000720e00006b
:020000040000fa
:04011400720e000067
:020000040000fa
:04011800720e000063
:020000040000fa
:04011c00720e00005f
:020000040000fa
:04012000720e00005b
:020000040000fa
:04012400720e000057
:020000040000fa
:04012800720e000053
:020000040000fa
:04012c00720e00004f
:020000040000fa
:04013000720e00004b
:020000040000fa
:04013400720e000047
:020000040000fa
:04013800720e000043
:020000040000fa
:04013c00720e00003f
:020000040000fa
:04014000720e00003b
:020000040000fa
:04014400720e000037
:020000040000fa
:04014800720e000033
:020000040000fa
:04014c00720e00002f
:020000040000fa
:04015000720e00002b
:020000040000fa
:04015400720e000027
:020000040000fa
:04015800720e000023
:020000040000fa
:04015c00720e00001f
:020000040000fa
:04016000720e00001b
:020000040000fa
:04016400720e000017
:020000040000fa
:04016800720e000013
:020000040000fa
:04016c00720e00000f
:020000040000fa
:04017000720e00000b
:020000040000fa
:04017400720e000007
:020000040000fa
:04017800720e000003
:020000040000fa
:04017c00720e0000ff
:020000040000fa
:04018000720e0000fb
:020000040000fa
:04018400720e0000f7
:020000040000fa
:04018800720e0000f3
:020000040000fa
:04018c00720e0000ef
:020000040000fa
:04019000720e0000eb
:020000040000fa
:04019400720e0000e7
:020000040000fa
:04019800720e0000e3
:020000040000fa
:04019c00720e0000df
:020000040000fa
:0401a000720e0000db
:020000040000fa
:0401a400720e0000d7
:020000040000fa
:0401a800720e0000d3
:020000040000fa
:0401ac00720e0000cf
:020000040000fa
:0401b000720e0000cb
:020000040000fa
:0401b400720e0000c7
:020000040000fa
:0401b800720e0000c3
:020000040000fa
:0401bc00720e0000bf
:020000040000fa
:0401c000720e0000bb
:020000040000fa
:0401c400720e0000b7
:020000040000fa
:0401c800720e0000b3
:020000040000fa
:0401cc00720e0000af
:020000040000fa
:0401d000720e0000ab
:020000040000fa
:0401d400720e0000a7
:020000040000fa
:0401d800720e0000a3
:020000040000fa
:100200006f9020000eff20000e018800000000000b
:10021000000020000000e000020032000001200089
:100220002002880014000700650907000000e000b4
:1002300003003a0060e223000100200002003700c2
:100240000000200001002000810f7000010032003a
:1002500014000700000020000000e000020032004f
:100260000000020000000000f6380200000000005c
:100270000040da000000fe004440a900003c2000dd
:100280000000e0000300320000002000a001880010
:100290004440a800000006008a1f78008b1f7800e9
:1002a0000000060091018800800478000000eb0047
:1002b0001a003700e284440032a0b4009905ba0065
:1002c000e284440032a0b4009906ba00e2844400fb
:1002d00032a0b4000006eb00476fde00fd07b2005d
:1002e000636ce10003003a00ebff07000000eb0045
:1002f0000a003700606ce10004003a00005deb008a
:100300008b05e900fdff3e00040037006168e10055
:10031000010032000086eb000b00070019c7ba008d
:100320001905ba000e04e00003003a000a00e000dc
:10033000e0ff3a0000000600fe07b2009e018800c0
:100340008a047800f5ff3700395dba008b05e900b3
:100350000c003200295dba008b05e900080032006c
:100360000c00e00003003a00e284440032a0b40034
:10037000f5ff370019ddba008b05e900faff3a00f6
:100380008904e800e184440032a0b40000000600c3
:1003900000000000000000003600f800809fbe0052
:1003a000829fbe00849fbe00869fbe00889fbe00c5
:1003b0008a9fbe001400fa000040eb00750607009b
:1003c000b0552b00ac08070000c4b300710607004d
:1003d000b0552b00a808070041168000001020002f
:1003e000008060000000e00020003a00401680001d
:1003f000610060000000e00004003a00a00020005e
:1004000001002000a0408800b14088004016800014
:10041000620060000000e00004003a00b00020002c
:1004200001002000a0408800b140880040168000f4
:10043000640060000000e00004003a00c0002000fa
:1004400001002000a0408800b140880040168000d4
:10045000680060000000e00004003a00d0002000c6
:1004600001002000a0408800b1408800cb02a80015
:100470004116800000042000008060000000e000c1
:1004800020003a0040168000610060000000e0009b
:1004900004003a003000200001002000a040880045
:1004a000b140880040168000620060000000e0005b
:1004b00004003a006000200001002000a0408800f5
:1004c000b140880040168000640060000000e00039
:1004d00004003a009000200001002000a0408800a5
:1004e000b140880040168000680060000000e00015
:1004f00004003a00e000200001002000a040880035
:10050000b1408800cac2a800401680007000600098
:100510000000e00020003a0040168000610060000a
:100520000000e00004003a0010002000010020005c
:10053000a0408800b1408800401680006200600042
:100540000000e00004003a0040002000010020000c
:10055000a0408800b1408800401680006400600020
:100560000000e00004003a007000200001002000bc
:10057000a0408800b14088004016800068006000fc
:100580000000e00004003a00f0002000010020001c
:10059000a0408800b1408800ca82a80041168000af
:1005a00000022000008060000000e0001e003a0011
:1005b00040168000610060000000e00004003a0086
:1005c0002000200001002000a0408800b1408800e9
:1005d00040168000620060000000e00004003a0065
:1005e0005000200001002000a0408800b140880099
:1005f00040168000640060000000e00004003a0043
:100600008000200001002000a0408800b140880048
:1006100040168000680060000000e00002003a0020
:100620001428ef001628ef00caa2a800c0408000de
:100630000000e00040003a00a2408000b34080008b
:10064000f000200001002000800f5100818f590030
:1006500028003a0090408000e30f500001003a006b
:100660001228ef00904080000000e00008003a00ef
:100670000040eb00c705070010572b00fe070700de
:1006800000c4b300c305070070582b00fa07070029
:1006900090408000e10f500008003a000040eb005d
:1006a000bc050700d0592b00f307070000c4b300b6
:1006b000b8050700305b2b00ef0707009040800073
:1006c000e20f500008003a000040eb00b1050700bf
:1006d000905c2b00e807070000c4b300ad050700dd
:1006e000f05d2b00e4070700904080000000e80068
:1006f00090408800a2408000b3408000900020001d
:1007000001002000800f5100818f59000a003c0039
:10071000a0408000b140800000007800d0408800f8
:1007200010002000c04088000001200001002000cf
:10073000a0408800b1408800c0408000e10f500018
:100740005e053a000040eb0092050700b0552b0013
:10075000c907070000c4b3008e050700b0552b0081
:10076000c5070700d04080000000e000ad003a005f
:100770000040eb0087050700505f2b00be07070015
:1007800000c4b30083050700b0552b00ba0707006b
:10079000a2408000b34080009000200001002000b3
:1007a000800f5100818f590069003c00e0408000bb
:1007b000e80f500044003c00018120009140780087
:1007c00000c5b30080cf50001d003a000040eb0090
:1007d00070050700b0602b00a7070700e24080000b
:1007e000a0408000b1408000c211dd00e281200005
:1007f000028141000089be00ca1a0700f042880049
:1008000001438800f042800001438000809fbe00c9
:1008100010622b00801f78000080200074100700f9
:10082000e687570000c4b3005a0507000080200087
:1008300091070700e04080000000e800e0408800e9
:10084000018120009140780030c5b30080cf500076
:100850001d003a000040eb004e05070050622b00df
:1008600085070700e2408000a0408000b140800082
:10087000c211dd00e2812000028141000089be003a
:10088000a81a070010438800214388001043800005
:1008900021438000809fbe0010622b00801f7800e3
:1008a0000080200052100700e687570000c4b30004
:1008b00038050700008020006f070700e040800037
:1008c0000000e800e04088000181200091407800ad
:1008d00000c5b30080cf50000c003a00f042800009
:1008e00001438000809fbe0010622b00801f7800b3
:1008f000008020003e100700e687570000c4b300c8
:1009000024050700008020005b070700018120000c
:100910009140780030c5b30080cf50000c003a0001
:100920001043800021438000809fbe0010622b0096
:10093000801f7800008020002d100700e6875700f8
:1009400000c4b30013050700008020004a07070019
:10095000a2408000b3408000a000200001002000e1
:10096000800f5100818f590007003a00f04280004b
:1009700001438000f0428800014388001c28ef00fa
:1009800030c5b30010e8b700a2408000b34080003b
:10099000b000200001002000800f5100818f59001d
:1009a000ad043a000040eb00fa040700b0632b00ee
:1009b0003107070010438000214380001043880066
:1009c000214388001c28ef0000c5b30010e8b700e1
:1009d000f2428000034380001043800021438000e6
:1009e0000200400083804800304388004143880073
:1009f0003043800041438000809fbe0010622b0086
:100a0000801f780000802000f90f0700e68757005c
:100a100000c4b300df0407000080200016070700b1
:100a20008d043700d0408000e10f5000ad003a0047
:100a30000040eb00d704070010652b000e070700ed
:100a400000c4b300d3040700b0552b000a07070009
:100a5000a2408000b34080009000200001002000f0
:100a6000800f5100818f590069003c00e0408000f8
:100a7000e80f500044003c000181200091407800c4
:100a800000c5b30080cf50001d003a000040eb00cd
:100a9000c004070070662b00f7060700e2408000e4
:100aa000a0408000b1408000c211dd00e281200042
:100ab000028141000089be001a1a0700f042880036
:100ac00001438800f042800001438000809fbe0007
:100ad00010622b00801f780000802000c40f0700e8
:100ae000e687570000c4b300aa0407000080200076
:100af000e1060700e04080000000e800e0408800d8
:100b0000018120009140780030c5b30080cf5000b3
:100b10001d003a000040eb009e040700d0672b0048
:100b2000d5060700e2408000a0408000b140800070
:100b3000c211dd00e2812000028141000089be0077
:100b4000f8190700104388002143880010438000f3
:100b500021438000809fbe0010622b00801f780020
:100b600000802000a20f0700e687570000c4b300f2
:100b70008804070000802000bf060700e0408000d6
:100b80000000e800e04088000181200091407800ea
:100b900000c5b30080cf50000c003a00f042800046
:100ba00001438000809fbe0010622b00801f7800f0
:100bb000008020008e0f0700e687570000c4b300b6
:100bc0007404070000802000ab06070001812000ac
:100bd0009140780030c5b30080cf50000c003a003f
:100be0001043800021438000809fbe0010622b00d4
:100bf000801f7800008020007d0f0700e6875700e7
:100c000000c4b30063040700008020009a060700b8
:100c1000a2408000b3408000a0002000010020001e
:100c2000800f5100818f590007003a00f042800088
:100c300001438000f0428800014388001c28ef0037
:100c400030c5b30010e8b700a2408000b340800078
:100c5000b000200001002000800f5100818f59005a
:100c6000fd033a000040eb004a04070030692b0006
:100c70008106070010438000214380001043880054
:100c8000214388001c28ef0000c5b30010e8b7001e
:100c9000f242800003438000104380002143800023
:100ca0000000510081805900304388004143880092
:100cb0003043800041438000809fbe0010622b00c3
:100cc000801f780000802000490f0700e68757004a
:100cd00000c4b3002f040700008020006606070050
:100ce000dd033700d0408000e20f5000b3003a002f
:100cf0000040eb0027040700906a2b005e06070007
:100d000000c4b30023040700b0552b005a060700a7
:100d1000a2408000b340800090002000010020002d
:100d2000800f5100818f590069003c00e040800035
:100d3000e80f500044003c00018120009140780001
:100d400000c5b30080cf50001d003a000040eb000a
:100d500010040700f06b2b0047060700e2408000fc
:100d6000a0408000b1408000c211dd00e28120007f
:100d7000028141000089be006a190700f042880024
:100d800001438800f042800001438000809fbe0044
:100d900010622b00801f780000802000140f0700d5
:100da000e687570000c4b300fa0307000080200064
:100db00031060700e04080000000e800e0408800c5
:100dc000018120009140780030c5b30080cf5000f1
:100dd0001d003a000040eb00ee030700506d2b00b1
:100de00025060700e2408000a0408000b14080005e
:100df000c211dd00e2812000028141000089be00b5
:100e000048190700104388002143880010438000e0
:100e100021438000809fbe0010622b00801f78005d
:100e200000802000f20e0700e687570000c4b300e0
:100e3000d8030700008020000f060700e040800074
:100e40000000e800e0408800018120009140780027
:100e500000c5b30080cf50000c003a00f042800083
:100e600001438000809fbe0010622b00801f78002d
:100e700000802000de0e0700e687570000c4b300a4
:100e8000c403070000802000fb050700018120004b
:100e90009140780030c5b30080cf50000c003a007c
:100ea0001043800021438000809fbe0010622b0011
:100eb000801f780000802000cd0e0700e6875700d5
:100ec00000c4b300b303070000802000ea05070058
:100ed000a2408000b3408000a0002000010020005c
:100ee000800f5100818f590007003a00f0428000c6
:100ef00001438000f0428800014388001c28ef0075
:100f000030c5b30010e8b700a2408000b3408000b5
:100f1000b000200001002000800f5100818f590097
:100f20004d033a000040eb009a030700b06e2b001f
:100f3000d105070010438000214380001043880042
:100f4000214388001c28ef0000c5b30010e8b7005b
:100f5000f242800003438000104380002143800060
:100f6000009ab90004027800028bb900860278006a
:100f7000050242000010b80001024200840078001f
:100f80003043880041438800304380004143800063
:100f9000809fbe0010622b00801f78000080200020
:100fa000930e0700e687570000c4b30079030700db
:100fb00000802000b005070027033700d0408000e4
:100fc000e30f5000af003a000040eb007103070050
:100fd00010702b00a805070000c4b3006d030700c4
:100fe000b0552b00a4050700a2408000b34080004c
:100ff0009000200001002000800f5100818f5900d7
:1010000069003c00e0408000e80f500044003c00d4
:10101000018120009140780000c5b30080cf5000ce
:101020001d003a000040eb005a03070070712b00ce
:1010300091050700e2408000a0408000b1408000a0
:10104000c211dd00e2812000028141000089be0062
:10105000b4180700f042880001438800f042800085
:1010600001438000809fbe0010622b00801f78002b
:10107000008020005e0e0700e687570000c4b30022
:1010800044030700008020007b050700e04080004b
:101090000000e800e04088000181200091407800d5
:1010a00030c5b30080cf50001d003a000040eb0077
:1010b00038030700d0722b006f050700e240800064
:1010c000a0408000b1408000c211dd00e28120001c
:1010d000028141000089be00921807001043880079
:1010e000214388001043800021438000809fbe0080
:1010f00010622b00801f7800008020003c0e07004b
:10110000e687570000c4b3002203070000802000d8
:1011100059050700e04080000000e800e04088003a
:10112000018120009140780000c5b30080cf5000bd
:101130000c003a00f042800001438000809fbe0016
:1011400010622b00801f780000802000280e07000e
:10115000e687570000c4b3000e030700008020009c
:1011600045050700018120009140780030c5b3009b
:1011700080cf50000c003a001043800021438000d3
:10118000809fbe0010622b00801f7800008020002e
:10119000170e0700e687570000c4b300fd020700e2
:1011a0000080200034050700a2408000b34080008a
:1011b000a000200001002000800f5100818f590005
:1011c00007003a00f042800001438000f0428800ae
:1011d000014388001c28ef0030c5b30010e8b700b9
:1011e000a2408000b3408000b00020000100200039
:1011f000800f5100818f590097023a000040eb00a8
:10120000e402070030742b001b0507001043800028
:101210002143800010438800214388001c28ef00f0
:1012200000c5b30010e8b700f04280000143800021
:10123000d70507000004be00104380002143800052
:10124000d30507000001be000800be005f050700cf
:10125000008fbe001e00be00809fbe0090752b0058
:10126000801f780000802000e10d0700e68757000e
:1012700000c4b300c702070000802000fe0407007e
:1012800075023700d0408000e40f50006a003a0039
:101290000040eb00bf020700e0752b00f6040700da
:1012a00000c4b300bb020700b0552b00f2040700d6
:1012b000a2408000b3408000900020000100200088
:1012c000800f5100818f590036003c00e0408000c3
:1012d000e80f500022003c0001812000914078007e
:1012e00000c5b30080cf50001d003a000040eb0065
:1012f000a802070040772b00df040700e2408000cf
:10130000a0408000b1408000c211dd00e2812000d9
:10131000028141000089be0002180700f0428800e7
:1013200001438800f042800001438000809fbe009e
:1013300010622b00801f780000802000ac0d070099
:10134000e687570000c4b300920207000080200027
:10135000c9040700e04080000000e800e040880089
:10136000018120009140780000c5b30080cf50007b
:101370000c003a00f042800001438000809fbe00d4
:1013800010622b00801f780000802000980d07005d
:10139000e687570000c4b3007e02070000802000eb
:1013a000b5040700a2408000b3408000b0002000d8
:1013b00001002000800f5100818f590026023a0061
:1013c0000040eb0073020700a0782b00aa0407007e
:1013d000f042800001438000f04288000143880011
:1013e0001c28ef0000c5b30010e8b700f0428000f1
:1013f0000143800066050700b80707002007980032
:10140000310798002e009000be009000809fbe0023
:1014100090752b00801f780000802000740d07005d
:10142000e687570000c4b3005a020700008020007e
:101430009104070008023700d0408000e50f5000fb
:101440006a003a000040eb0052020700007a2b00cd
:101450008904070000c4b3004e020700b0552b00fa
:1014600085040700a2408000b34080009000200067
:1014700001002000800f5100818f590036003c0090
:10148000e0408000e80f500022003c000181200075
:101490009140780000c5b30080cf50001d003a0095
:1014a0000040eb003b020700607b2b00720407004a
:1014b000e2408000a0408000b1408000c211dd0009
:1014c000e2812000028141000089be0095170700db
:1014d000f042880001438800f04280000143800010
:1014e000809fbe0010622b00801f780000802000cb
:1014f0003f0d0700e687570000c4b3002502070030
:10150000008020005c040700e04080000000e8004c
:10151000e0408800018120009140780000c5b300c0
:1015200080cf50000c003a00f04280000143800060
:10153000809fbe0010622b00801f7800008020007a
:101540002b0d0700e687570000c4b3001102070007
:101550000080200048040700a2408000b3408000c3
:10156000b000200001002000800f5100818f590041
:10157000b9013a000040eb0006020700a07c2b00f6
:101580003d040700f042800001438000f0428800e3
:10159000014388001c28ef0000c5b30010e8b70025
:1015a000f042800001438000f90407008504070031
:1015b00040079800510798004e009000de00900010
:1015c000809fbe0090752b00801f78000080200057
:1015d000070d0700e687570000c4b300ed010700c0
:1015e00000802000240407009b013700d0408000c9
:1015f000e60f50006a003a000040eb00e5010700ea
:10160000f07d2b001c04070000c4b300e1010700bb
:10161000b0552b0018040700a2408000b3408000a2
:101620009000200001002000800f5100818f5900a0
:1016300036003c00e0408000e80f500022003c00f3
:10164000018120009140780000c5b30080cf500098
:101650001d003a000040eb00ce010700507f2b0038
:1016600005040700e2408000a0408000b1408000f7
:10167000c211dd00e2812000028141000089be002c
:1016800028170700f042880001438800f0428000dc
:1016900001438000809fbe0010622b00801f7800f5
:1016a00000802000d20c0700e687570000c4b3007a
:1016b000b801070000802000ef030700e040800031
:1016c0000000e800e040880001812000914078009f
:1016d00000c5b30080cf50000c003a00f0428000fb
:1016e00001438000809fbe0010622b00801f7800a5
:1016f00000802000be0c0700e687570000c4b3003e
:10170000a401070000802000db030700a240800046
:10171000b3408000b000200001002000800f510085
:10172000818f59004c013a000040eb0099010700fd
:1017300080802b00d0030700f0428000014380002e
:10174000f0428800014388001c28ef0000c5b30068
:1017500010e8b700f0428000014380008c040700cd
:10176000e206070060079800710798006e0090007d
:10177000fe009000809fbe0090752b00801f7800b7
:10178000008020009a0c0700e687570000c4b300d1
:101790008001070000802000b70307002e013700fa
:1017a000d0408000e70f5000b3003a000040eb004b
:1017b00078010700b0812b00af03070000c4b3001d
:1017c00074010700b0552b00ab030700a240800056
:1017d000b34080009000200001002000800f5100e5
:1017e000818f590069003c00e0408000e80f500004
:1017f00044003c00018120009140780000c5b30006
:1018000080cf50001d003a000040eb00610107004e
:1018100030832b0098030700e2408000a040800046
:10182000b1408000c211dd00e28120000281410050
:101830000089be00bb160700f04288000143880003
:10184000f042800001438000809fbe0010622b00a8
:10185000801f780000802000650c0700e687570095
:1018600000c4b3004b010700008020008203070082
:10187000e04080000000e800e04088000181200096
:101880009140780030c5b30080cf50001d003a0071
:101890000040eb003f01070080842b007603070027
:1018a000e2408000a0408000b1408000c211dd0015
:1018b000e2812000028141000089be0099160700e4
:1018c000104388002143880010438000214380009a
:1018d000809fbe0010622b00801f780000802000d7
:1018e000430c0700e687570000c4b3002901070036
:1018f0000080200060030700e04080000000e80056
:10190000e0408800018120009140780000c5b300cc
:1019100080cf50000c003a00f0428000014380006c
:10192000809fbe0010622b00801f78000080200086
:101930002f0c0700e687570000c4b300150107000d
:10194000008020004c0307000181200091407800b6
:1019500030c5b30080cf50000c003a001043800027
:1019600021438000809fbe0010622b00801f780002
:10197000008020001e0c0700e687570000c4b3005b
:1019800004010700008020003b030700a240800004
:10199000b3408000a000200001002000800f510013
:1019a000818f590007003a00f04280000143800017
:1019b000f0428800014388001c28ef0030c5b300c6
:1019c00010e8b700a2408000b3408000b0002000c3
:1019d00001002000800f5100818f59009e003a00c5
:1019e0000040eb00eb000700d0852b00220307002e
:1019f0001043800021438000104388002143880069
:101a00001c28ef0000c5b30010e8b70010438000a9
:101a100021438000db0307000205be000004be0076
:101a2000f042800001438000d60307000802be0098
:101a30000a03be00a2040700a60307003043880083
:101a4000414388003043800041438000809fbe00b6
:101a500010622b00801f780000802000e40b07003c
:101a6000e687570000c4b300ca00070000802000ca
:101a70000103070078003700d0408000e80f5000d5
:101a80006a003a000040eb00c200070030872b00dc
:101a9000f902070000c4b300be000700b0552b00d8
:101aa000f5020700a2408000b340800090002000b3
:101ab00001002000800f5100818f590036003c004a
:101ac000e0408000e80f500022003c00018120002f
:101ad0009140780000c5b30080cf50001d003a004f
:101ae0000040eb00ab00070080882b00e2020700fb
:101af000e2408000a0408000b1408000c211dd00c3
:101b0000e2812000028141000089be000516070025
:101b1000f042880001438800f042800001438000c9
:101b2000809fbe0010622b00801f78000080200084
:101b3000af0b0700e687570000c4b300950007000d
:101b400000802000cc020700e04080000000e80098
:101b5000e0408800018120009140780000c5b3007a
:101b600080cf50000c003a00f0428000014380001a
:101b7000809fbe0010622b00801f78000080200034
:101b80009b0b0700e687570000c4b30081000700e5
:101b900000802000b8020700a2408000b34080000f
:101ba000b000200001002000800f5100818f5900fb
:101bb00029003a000040eb0076000700d0892b0096
:101bc000ad020700f042800001438000f04288002f
:101bd000014388001c28ef0000c5b30010e8b700df
:101be000f04280000143800069030700a903070059
:101bf000000f9800110f98000e0890009e089000aa
:101c0000809fbe0090752b00801f78000080200010
:101c1000770b0700e687570000c4b3005d0007009c
:101c200000802000940207000b003700d0408000a5
:101c3000e90f500008003a000040eb005500070093
:101c4000308b2b008c02070000c4b300510007004a
:101c5000b0552b0088020700a2408000b3408000ee
:101c6000f000200001002000800f5100818f5900fa
:101c700012003a000040eb0046000700908c2b0059
:101c80007d02070000c4b30042000700f08d2b0066
:101c9000790207001828ef00000120000100200051
:101ca000a0408800b14088001c28ef005e28ef00ab
:101cb0006028ef006228ef006428ef0085e0a900ab
:101cc0000080fa004f05be004f04be004f03be0067
:101cd0004f02be004f01be004f00be003600f900ab
:101ce000004006000040da000000fe000200fa009a
:101cf000004f780079020700cb22a900cb42a9004f
:101d0000cb62a900cb82a900e2a2a900e242a9000d
:101d1000e282a900c722a900c742a900c762a900a0
:101d2000c782a900dea2a900de42a900de82a900c6
:101d300000c3b3005b0107006802070000c3b300e3
:101d4000580107009202070000c3b30055010700c5
:101d50008f02070000cfb3001e4060005101070052
:101d60001e4078004f0107006d020700c0c0b3009d
:101d70004c0107006a02070010c0b30049010700c8
:101d80006702070060c0b300460107000080fa0048
:101d9000000006000200fa00004f7800e2a2a9004d
:101da000e242a900c722a900c742a900c762a90050
:101db000c782a900cb22a8009e00fb0000042000df
:101dc000008060004680de000040780061406000d6
:101dd0000080fb00610060004a00dd0051168000b9
:101de00001a0a10001007000501688009e00fb00b9
:101df00000022000008060004580de000040780086
:101e0000614060000080fb00610060004b00dd006d
:101e10005116800001b0a10001007000501688002a
:101e20001e00fb00700060004480de00004078006f
:101e3000614060000080fb00610060004c00dd003c
:101e40005116800001c0a1000100700050168800ea
:101e5000e282a80015020700e282a900e2a2a9001e
:101e6000e242a9001e00fb00680060004380de0023
:101e700000407800614060000080fb00610060006d
:101e80004900dd00511680000190a10001007000a2
:101e9000501688001e00fb00640060004280de00d7
:101ea00000407800614060000080fb00610060003d
:101eb0004a00dd005116800001a0a1000100700061
:101ec000501688001e00fb00620060000080d100f8
:101ed00000407800614060000080fb00610060000d
:101ee0004b00dd005116800001b0a1000100700020
:101ef000501688001e40780061406000614060001c
:101f0000614060000080fb00610060004c00dd006b
:101f10005116800001c0a100010070005016880019
:101f2000e282a800e1010700e282a900c722a8001e
:101f3000c742a800c762a800c782a8001402070011
:101f40000080fa00000006000000fa00c722a80086
:101f5000c742a800c762a800c782a800e2a2a800e2
:101f6000e242a900d1010700e282a800cf010700e8
:101f70004116800000202000008060000000e0008a
:101f800004003200e282a900f601070010c0b3008d
:101f900003003700e282a900f20107000040eb00d5
:101fa0000080fa00000006000c00fa00c722a8001a
:101fb000c742a800c762a800c782a800e2a2a80082
:101fc000e242a900b9010700e282a800b7010700b8
:101fd000401680004a00de0061406000204f9800fb
:101fe0002e4890000000fb004600dd000040780015
:101ff000204f9800401680004b00de0061406000da
:10200000104f98001e4890000000fb004500dd00c6
:1020100000407800104f9800401680004c00de0011
:1020200061406000004f98000e4890000000fb00e7
:102030004400dd0000407800004f9800e282a900d3
:10204000e2a2a800e242a900e282a80097010700ec
:10205000401680004900de00614060007047980033
:102060007e4090000000fb004300dd00004078004f
:1020700070479800401680004a00de006140600012
:10208000604798006e4090000000fb004200dd00b9
:102090000040780060479800401680004b00de004a
:1020a00061406000504798005e4090000000fb00d7
:1020b0000000400000407800504798004016800023
:1020c0004c00de006140600040479800e282a900b9
:1020d0000000eb001007980008003700e4004700fc
:1020e0001e00900000804000104078001e4f7000dd
:1020f0001e0090000000e800100798001e009000ed
:10210000e70f5000f5ff34001e4078000080fa0011
:10211000000006000c00fa00c722a800c742a80071
:10212000c762a800c782a800e2a2a800e242a800f5
:102130005e010700e282a8005c01070040168000f3
:102140004900de0061406000304f98003e4890003a
:102150000000fb004700dd0000407800304f980091
:10216000401680004a00de0061406000204f980069
:102170002e4890000000fb004600dd000040780083
:10218000204f9800401680004b00de006140600048
:10219000104f98001e4890000000fb004500dd0035
:1021a00000407800104f9800401680004c00de0080
:1021b00061406000004f98000e4890000000fb0056
:1021c0004400dd0000407800004f9800e282a90042
:1021d000e2a2a800e242a800e282a80033010700c0
:1021e000401680004900de006140600070479800a2
:1021f0007e4090000000fb004300dd0000407800be
:1022000070479800401680004a00de006140600080
:10221000604798006e4090000000fb004200dd0027
:102220000040780060479800401680004b00de00b8
:1022300061406000504798005e4090000000fb0045
:102240000000400000407800504798004016800091
:102250004c00de006140600040479800e282a90027
:102260000000eb001007980008003700e40047006a
:102270001e00900000804000104078001e4f70004b
:102280001e0090000000e800100798001e0090005b
:10229000e70f5000f5ff34001e4078000080fa0080
:1022a000000006000200fa00004f7800e2a2a90038
:1022b000e242a900c722a900c742a900c762a9003b
:1022c000c782a9009e00fb0000082000008060007b
:1022d0004780de0000407800614060000080fb0025
:1022e000610060004900dd00511680000190a100ee
:1022f00001007000501688009e00fb0000042000c2
:10230000008060004680de00004078006140600090
:102310000080fb00610060004a00dd005116800073
:1023200001a0a10001007000501688009e00fb0073
:1023300000022000008060004580de000040780040
:10234000614060000080fb00610060004b00dd0028
:102350005116800001b0a1000100700050168800e5
:102360001e00fb00700060004480de00004078002a
:10237000614060000080fb00610060004c00dd00f7
:102380005116800001c0a1000100700050168800a5
:10239000e282a800c5000700e282a900e2a2a9002b
:1023a000e242a9001e00fb00680060004380de00de
:1023b00000407800614060000080fb006100600028
:1023c0004900dd00511680000190a100010070005d
:1023d000501688001e00fb00640060004280de0092
:1023e00000407800614060000080fb0061006000f8
:1023f0004a00dd005116800001a0a100010070001c
:10240000501688001e00fb00620060000080d100b2
:1024100000407800614060000080fb0061006000c7
:102420004b00dd005116800001b0a10001007000da
:10243000501688001e4078006140600061406000d6
:10244000614060000080fb00610060004c00dd0026
:102450005116800001c0a1000100700050168800d4
:10246000e282a80091000700e282a90000000000bb
:10247000b5fe07000004e000fdff3a000080fa000e
:10248000000006000200fa00004f7800e2a2a90056
:10249000e242a800c722a900c742a900c762a9005a
:1024a000c782a9009e00fb00000820000080600099
:1024b0004780de0000407800614060000080fb0043
:1024c000610060004900dd00511680000190a1000c
:1024d00001007000501688009e00fb0000042000e0
:1024e000008060004680de000040780061406000af
:1024f0000080fb00610060004a00dd005116800092
:1025000001a0a10001007000501688009e00fb0091
:1025100000022000008060004580de00004078005e
:10252000614060000080fb00610060004b00dd0046
:102530005116800001b0a100010070005016880003
:102540001e00fb00700060004480de000040780048
:10255000614060000080fb00610060004c00dd0015
:102560005116800001c0a1000100700050168800c3
:10257000e282a8004d000700e282a900e2a2a900c1
:10258000e242a8001e00fb00680060004380de00fd
:1025900000407800614060000080fb006100600046
:1025a0004900dd00511680000190a100010070007b
:1025b000501688001e00fb00640060004280de00b0
:1025c00000407800614060000080fb006100600016
:1025d0004a00dd005116800001a0a100010070003a
:1025e000501688001e00fb00620060000080d100d1
:1025f00000407800614060000080fb0061006000e6
:102600004b00dd005116800001b0a10001007000f8
:10261000501688001e4078006140600061406000f4
:10262000614060000080fb00610060004c00dd0044
:102630005116800001c0a1000100700050168800f2
:10264000e282a80019000700e282a900c722a800c0
:10265000c742a800c762a800c782a800e242a9003a
:102660000000000038fe07000004e000fdff3a0013
:102670000080fa00000006000200fa00000f780057
:10268000040037001e007800104078007dff07002e
:102690001e0fe8001e007800104078000004e000e3
:1026a000f8ff3a000080fa00000006000200fa007d
:1026b0000000eb00000f7800020037000060fe0011
:1026c0001e0fe800100320009e007800808f50004d
:1026d000faff34000080fa00000006000400fa004f
:1026e0006000b800008fbe00050037000060fe00eb
:1026f00012002000030020001e0f41005e974900d9
:10270000f0872300110020001e01be00800f510041
:10271000818f5900f5ff34000080fa0000000600a8
:102720000400fa006000b800008fbe00050037000a
:102730000060fe0012002000030020001e0f410078
:102740005e97490070322200010020001e01be0089
:10275000800f5100818f5900f5ff34000080fa008e
:10276000000006000200fa000000eb00000f7800f5
:10277000020037000060fe001e0fe8001e00780017
:10278000e90f5000fbff34000080fa000000060053
:102790000200fa000000eb00000f78000200370092
:1027a0000060fe001e0fe800703e20009e007800d2
:1027b000808f5000faff34000080fa00000006000d
:1027c000000005000081eb005b023700889fbe001f
:1027d0008a9fbe008c1f7800960007009d00330082
:1027e00003866c006450e1002e0032006420e1009a
:1027f000330032006150e1002f0032006120e1001f
:102800003100320085855500eb07b000090020003b
:1028100008042000050037000804440089844c00a7
:102820000a0031000603430087834b000001530078
:1028300081815b00f8ff33000203be000800a000a6
:102840000804440089844c00f6ff3900c639dd00d5
:102850008301730001003200130020008904d100bd
:102860000884d3000998a300050032000800a700df
:102870000300a0008904d1000884d3008b05e80080
:102880008904d1000884d3000001eb000281d2004a
:102890004200070001f0a1000cf0a70001f0a00029
:1028a000750037006420e100770032000801be00a7
:1028b0000200be00f7ff37006120e1007200320025
:1028c0006000b800f3ff37000000200001f8270087
:1028d000f0ff37001400fa00889fbe008a9fbe00f8
:1028e0008c9fbe000004be000205be0068004700c9
:1028f0000a90be000890be00a40407000070a70064
:102900000bf0a100304320009e0290008082520014
:10291000b0fe2f000028e10011003d00b0fc2f00a8
:102920000028e100150034001e0990008e08900078
:102930007e0090000501b0000201d1008180d3002b
:102940000080d3008502e800fbff3a000b00e000a6
:10295000c9043b0060001000e0801800c604370086
:10296000f0ff2f00f1ff27000b00e000c2043b0046
:102970000100280000002000bf0437006000b800fc
:10298000bd0437004f89de00820178007c053700e6
:102990004f89de0082017800890537008100200020
:1029a000618055000b003d000b00200061fe2f00f0
:1029b0000100e1001d0034008281710061016400aa
:1029c0008904d1000884d3000000e800faff3a002f
:1029d00071002000610064000300700002006000cc
:1029e0000900320061044400e0844c000988a5001d
:1029f000050032008b05e8006808e10002003a009b
:102a00008904d1000884d300f20f20000258e100ad
:102a100005003d00c75ddd00f907b2008980750043
:102a200008007800000006000bf827008b007800f3
:102a3000000005000004be00390607000003be00c8
:102a40000405be000200be0035060700844f750075
:102a5000000006000200be006450e10005003600e0
:102a60006420e100020036000968a30001003a007a
:102a70000800be000160a0004f0678004f05be00b0
:102a80004f04be0000000600f0ff2f00f1ff2700fa
:102a9000f9ff3700889fbe008a9fbe008c9fbe0052
:102aa0006f020700850478000005be006420e10085
:102ab00049003e006220e1000300320009003500b9
:102ac0000bf8a300440032000bf8a300080032000a
:102ad0001002200070438800f0ff2f00f1ff270054
:102ae0003d00370001f82f00000020003a003700b9
:102af0003d000700e60207000006be000a00be0017
:102b0000324f200053f32300fa040700060034007c
:102b10000c00be0034000700dd0207000006be0006
:102b20000a00be00020037008904e9000c00be0064
:102b30002d0007002e0007002b000700d50207001c
:102b40000001be000c00be0020ff07000005be0013
:102b50000001be00260007000006be00a2f323000d
:102b6000430d2c00cb020700809fbe000c00be006e
:102b7000d2e32700d3f02b001d0007004f01be0059
:102b800012ff07000006be000a01be001800070081
:102b90000a01be00bf0207000006be006148b9007e
:102ba0007bff07000005be0032082800e3952b00dc
:102bb0000f0007000c01be00b60207000006be00b1
:102bc0000a00be000200280013f3230008000700db
:102bd0000c01be00af0207004f06be004f05be004d
:102be0004f04be000000060003f0230002000500b1
:102bf000889fbe008a9fbe008c1f78008dff070053
:102c000094ff330003866c006450e100240032001e
:102c10006420e100270032006150e1002200320010
:102c20006120e100210032008b854200eb07b100fa
:102c30000134b800003ab8000804420089844a0010
:102c4000013ab8000030b8008880400009014a000d
:102c50000400330000004000818048000201490068
:102c60008b05e900c909dd00830170000100320015
:102c700013002000c814de004814dd004709de0000
:102c80001200b200c808de000884700043ff07008d
:102c900001f0a1000cf0a70001f0a00076ff3700c2
:102ca0006120e10078ff32000801be000200be0092
:102cb000f7ff37006150e100fcff3a0072ff370078
:102cc0001e00fa00889fbe008a9fbe008c9fbe0037
:102cd0000404be000605be00009fbe000297be00b1
:102ce00098030700040678000800be000a01be0031
:102cf000940307008406780004002000c202070045
:102d000005003a008d02b30014002000be02070047
:102d100001003a00f8866e000802be000a03be00f9
:102d2000f90007003e00be002e01be00d2033200b3
:102d30000bf0a7000de0a00003f0a7000df0a0002d
:102d40000d08a300d6003a003e02be002e03be00ce
:102d500007f0a10037079800eb0007000df0a60070
:102d6000cf00320001003c000dd0a0008d4f760056
:102d7000be0333006000b8006011b8006260e1007b
:102d8000c9003900d1003e000d28a300d2003a004e
:102d90000df8a300080032000d58a300d80032003f
:102da0003e02be002e03be00d70007003e00be005c
:102db0002e01be00c00032003e00be002e01be004b
:102dc0006a02470039050700009fbe000297be0057
:102dd0000df0a7000d30a6000df0a1006d079800c2
:102de00067fe2300e6092a00f5672600d4bc23000d
:102df000c902070009003d003e00be002e01be00d2
:102e0000140020005b0507005e029000009fbe00da
:102e10000297be000402e900540798005e0090008b
:102e20006100b900d7fe070070079800010f9800f5
:102e3000120f9800230f98000802be000a03be007c
:102e400017060700a3fe07000006be000100e00011
:102e500002003d0060001000e0801800f2ff270033
:102e6000820f5000e08f580083003e000c00be002f
:102e7000c4fe0700300f9800410f9800520f9800d1
:102e8000630f98000800be000a01be0091fe070013
:102e900040079800f23f2000820f5000e08f58005a
:102ea00005003c0012c02f00f3ff2f00820f5000de
:102eb000838f58000a003d005e0690000c00e00081
:102ec0000300320001003c000201ea000206780023
:102ed0006000b8006011b800400798002700370074
:102ee0000800be000a01be00411add004522de00d6
:102ef000f43fb1008400b10043020700809fbe0090
:102f0000829fbe007e0290008e0a90001e0b9000f1
:102f1000ae0b9000e20507003e0a9000ce0a90003a
:102f20005e0b9000ee0b9000ee0007004f03be001a
:102f30004f02be00809fbe00829fbe000800be0000
:102f40000a01be00e70007007e0290008e0a900092
:102f50001e0b9000ae0b9000d10507004f03be0082
:102f60004f02be004c01070067fe230026e422004a
:102f7000a5ef2f00f49e2300c9050700809fbe0027
:102f8000829fbe004e0090006100b9007dfe0700e8
:102f900003f0a2000802be000a03be003e010700c3
:102fa000809fbe00829fbe003e00be002e01be007c
:102fb000230507004f03be004f02be00b8050700ff
:102fc0004f03be004f02be00330107002f0307006e
:102fd000809fbe00829fbe004d000700ce0690007d
:102fe0000df0a7008d06ea00090037003e00be0084
:102ff0002e01be003e02be002e03be00a805070043
:10300000009fbe000297be000800be000a01be007d
:103010003e02be002e03be000d00a700a005070063
:103020000004be000205be008d06d100efff3a008d
:103030006e02900004e0a600060037000002be0009
:103040000203be0032000700380207000004be0081
:103050000205be004f03be004f02be0090050700f0
:103060000c027800c3040700ee0690000df0a700e4
:1030700003f0a20000033700ee06900029000700cd
:10308000260007000dd0a7000dc0a0000de0a7008e
:103090000dc0a2000dc0a60003002000f2ff370003
:1030a0001b000700f40237000bf8a30002003200f7
:1030b0001e000700190007000df8a300ee02320001
:1030c0000d30a70003f0a200eb0237000bf8a300bd
:1030d000f9ff3a00f7ff37003e02be002e03be00a4
:1030e00009000700eeff320001003c000bf0a200d7
:1030f0000a0007000bf0a60003002000de023700e4
:103100000a000700d9023700010007000202370059
:1031100003ff23006000b8000200050003ff270042
:10312000fcff3700200220000100370010022000c1
:103130007043880000000600889fbe008a9fbe0082
:103140008c9fbe00820578000004be007404070056
:103150000800be006420e1000700390002003a00c8
:10316000f1ff2700f0ff2f000160a00012022000f5
:1031700072438800550037006120e10003003a00e7
:103180000b00a70001f823005000370001f0a10058
:103190000200210093642400540307000800be00cd
:1031a00004003500b2fd2000930c2400ee0307005c
:1031b0000004be000005eb000b00a6004f0dde0072
:1031c00001f0a1000004be0032982f0023ea230082
:1031d00087fe07000001eb0003f023000b00a700af
:1031e00003f823002b010700440307000000a70099
:1031f0000a00a200e6fd07000b00e0000300320019
:103200000200200003f023002101070001f0a200ca
:103210000006be00020020009304240074fe070094
:103220000801be001b010700809fbe000c00be000d
:1032300022a22a00d3a723006dfe07004f01be0083
:10324000140107000004be0001f0a10002002000ec
:1032500003982300250307000800be00190035006d
:103260000001be0062fe07000006be00b2c52900d4
:10327000e36223005efe070022222b00f3942b0062
:10328000040107000c01be0059fe0700e27328008c
:1032900083c02300ff0007000c01be0054fe07009e
:1032a00042aa2a00a3e22b00fa0007000c01be008c
:1032b0004ffe07000801be004dfe07000801be00da
:1032c000f40007000a00a70001f0a2004f06be00ac
:1032d0004f05be004f04be00000006000001eb00d9
:1032e00095ff370007f0a2006b003700889fbe00f3
:1032f0008a9fbe000004be00090407000800be004b
:103300006420e1000700390002003a00f1ff2700c5
:10331000f0ff2f000160a00012022000724388001d
:103320004c00370001f0a10002802000935c2400d3
:10333000ee0207000800be0004003500b2fd2000c8
:1033400093042400880307000004be0032982f0075
:1033500023f2230026fe07000200200003f02300d2
:1033600001f0a70003f0a000ca000700e302070075
:10337000801f780086fd070001f0a2000005be0056
:103380000200200093fc230019fe07000801be0084
:10339000c0000700809fbe000a00be0022a22a00d3
:1033a000d39f230012fe07004f01be00b9000700a3
:1033b0000004be0001f0a1000200200003982300d9
:1033c000cc02070003003d000000200001f82300ac
:1033d000180037000800be000001be0004fe070010
:1033e0000005be00823b230043dc2b0000fe0700eb
:1033f0000801be00fefd07000801be00a500070091
:103400000004be000a00be0052372300f3c12300af
:10341000f7fd0700f27a2b00b3ed2b009d000700ab
:103420000a01be00f2fd07000200200003f823009d
:10343000980007004f00a600030037000801be00f7
:1034400003f0a200020037000001be000800be0029
:10345000defc07004f05be004f04be000000060062
:103460000003be00ae0307006220e100020032004c
:103470000600be0005000500e507b100f107b20037
:1034800004f023008480700007f0a70001f0a00082
:1034900024000500000000002800fa00889fbe00fc
:1034a0008a9fbe008c9fbe00070678008786690051
:1034b0000c003b00030478008704780008f0a100aa
:1034c00009f0a100840f5000858f5800860f590025
:1034d000890f5c00030033000cf0a20001003a00e9
:1034e0000cf0a100d00107006400e1005f00320091
:1034f000780147006408e100610032006c01470078
:10350000748557003200be001201be003a04be00ae
:103510001a05be001e039000be0a900085035300ea
:1035200006003d000004fd008104fd000205fd00d1
:103530008305fd008703ea00050378000df8a3006a
:103540000400320060041400e0841c0060051d00cb
:10355000e0851d006022b8007d0320000d38e100e9
:103560008006eb000b0039004433dd00f300b200ad
:103570008301730039003700848272000d027800e5
:10358000e10664008b85d1000a85d3008984d300cd
:103590000884d3008703e900f7ff3b0008004000e0
:1035a000898048000a0149008b81490004003b00e2
:1035b00060001000e080180060011900e08119002f
:1035c0000358a300090032008d82720084827200c9
:1035d000610260008301d1000281d3008180d300a9
:1035e0000080d3000603e8001b0037000348a30057
:1035f00017003a000600e000170034000603e90057
:103600000d00a3000000480081804800020149002d
:10361000838149000348a3000f003a000600e00040
:10362000090034000603e9000000400081804800e2
:10363000020149008381490001003a000003eb00c8
:103640000348a300f5ff32006022b80002003700f3
:1036500084827200618266000e01070003f0a100ff
:103660000cf0a70003f0a0008301370064014700bd
:103670006408e10002003a000df8a3007b013a0063
:103680003200be001201be007b01370000000000c6
:1036900003f0a200889fbe008a9fbe008c1f7800a6
:1036a000e4fc0700ebfc33006450e1004f00320003
:1036b0006420e1005200320003826c0007003b00ee
:1036c0000905d0000306d000820f54000c065d00ef
:1036d00002003900020032008901780003067800f8
:1036e0008582550004003d000003fd008103fd00bc
:1036f0008502ea008b854200840f720002003b00c5
:1037000060001000e08018006011b8000005eb00b8
:103710007a28e1000a00390006007800c75ddd0064
:10372000f707b200878075002d0037008281710095
:103730000a017800610560008180d1000080d3001b
:103740008502e900f9ff3b00060440008784480039
:1037500002003b0060041400e0841c000988a30000
:10376000070032008a81710082817100610164006a
:103770008904d1000884d3008b05e80017003700c6
:103780000978a30013003a000b00e0001300340096
:103790008b05e9000804440089844c000a44740045
:1037a0000978a3000d003a000b00e0000700340088
:1037b0008b05e9000804440089844c0001003a00ac
:1037c0000b0020000978a300f7ff32000001eb0096
:1037d00002003700828171000a0178006ffc070047
:1037e0000cf0a70001f0a000a3fc37006420e1006a
:1037f00002003a00838f6c00a3fc33000801be0076
:103800000200be009cfc37001400fa00889fbe0036
:103810008a9fbe008c9fbe0004067800e802470025
:103820008292be008092be0005007800d70007009b
:103830006200e10033003a006000b8006011b80097
:103840001e0390000c035300f63fb1002200350028
:103850004b0320000b30e1002a003d00fb0120005b
:10386000faff2f006154b9006c0147008b05d100ad
:103870000a85d3008984d3000884d3000603e900b5
:10388000faff3b003200be001201be0000026400dd
:103890008182640002036500838365000502720073
:1038a0000602720007027200160032000884ea0065
:1038b0008984ea000a85ea008b85ea00000064003a
:1038c0008180640002016500838165006022b80088
:1038d0001e0390006f000700de03900007f0a700b2
:1038e00003f0a0000082eb000400e0008e029000d4
:1038f0004f06be004f05be004f04be000080fa0018
:103900000000060064014700040020003200be00f1
:103910001201be00f4ff37008f1fd100d60307004d
:103920008f87e9000000e000000006002800fa0090
:10393000889fbe008a9fbe008c9fbe0003866b00de
:10394000b90007006400e100440032006408e100af
:103950004a0032006100e100460032006108e100e7
:1039600049003200ec0647006000b8003d02be008e
:103970003d03be00f48657006011b8003d04be0050
:103980003d05be007d0320000b0037000000a000b5
:103990008d06e900130032000402420085824a00cd
:1039a00006034b0087834b000000400081804800e5
:1039b00002014900838149000802520089825a00ad
:1039c0000a035b008b835b00f0ff3b0008024200b0
:1039d00089824a000a034b008b834b008d06e90065
:1039e000edff3a008482720086827200f707b2000f
:1039f0008782720001003200150020001e04900032
:103a00003e0b900006035400e63fb0000368a3009d
:103a1000070032000000a7000500a0008301d100cc
:103a20000281d3008180d3000080d3000603e80028
:103a30008301d1000281d3008180d3000080d300b4
:103a40000002eb000482d2001200070003f0a10084
:103a50000cf0a70003f0a0008700370064024700c5
:103a60006408e100810032003400be003401be0071
:103a7000f6ff37006108e1007c0032006011b800f9
:103a80006000b800f1ff370003ff270002002000ac
:103a9000fbff3700180020005700200008045300e7
:103aa0000d003d000600200097fc2f000740e100bc
:103ab0001e00340084827200610260008301d10024
:103ac0000281d3008180d3000080d3000804e80085
:103ad000f8ff3a004700200061046000050474000c
:103ae000040464000d00320061004000e0804800e2
:103af00060014900e081490003b8a50007003200d9
:103b00000603e8006538e10004003a008301d100b3
:103b10000281d3008180d3000080d300f87f200091
:103b20000830e10003003500080378006000b800a9
:103b30006011b8004433dd00f300b200830173006c
:103b40000000060005ff2700058261000700320023
:103b50000428e100010032002400050006000700ef
:103b600001003a00440005000408050002000700b7
:103b7000f9ff3a00140005006f82610081027000b5
:103b80008502710085027200000006008000780046
:103b90005002be005003be004439de00f700b20000
:103ba000f37f200003016100090032000218e100e8
:103bb00016003a008501720083017300838173004f
:103bc0000008200015003a004000200013003700d4
:103bd00085017200830173008381730005003a0040
:103be00004a8be0006a8be00100020000b0037008d
:103bf0000201e9000402420085824a0006034b00ec
:103c000087834b000748a300f9ff32000740a0005c
:103c100004a8be0006a8be00200020008000980076
:103c20009200980000000600680447000294be005d
:103c30000094be00fc0447008694be008494be003d
:103c400009007800d1ff070008007800cfff0700c7
:103c500099007800814f70000b003b000800be0007
:103c6000330307004f00b10003003700f3ff2700c4
:103c7000f2ff2f006110b9004f06be004f05be00d5
:103c80004f04be000080fa00000006000800fa00a1
:103c9000889fbe008a9fbe008c9fbe000004be00ad
:103ca0000205be00a7ff07006420e100f2ff3e000e
:103cb0008a0032006708240026e42200a5ef2f00c6
:103cc000f49e2300150307007a003c000800be00a4
:103cd0000a01be0077082c0056382400d54624007f
:103ce000341c27000cff0700780035000800be00d8
:103cf0000a01be0003f0a10007c92300060020004e
:103d0000050020000400200003ff070071003500bb
:103d10000800be000a01be0077ff23007654210090
:103d2000b5522600e42f28005d02070007fe23009d
:103d3000060020006022b80003f0a70007f0a000f2
:103d4000d5fd0700e3fa07000006be000dfb0700e3
:103d500003f0a200009fbe000297be0067fe230092
:103d6000060023006022b8004d0207000802be00d2
:103d70000a03be00c8fd0700809fbe00829fbe00f0
:103d80003e00be002e01be00b7f22b0006012d0042
:103d900015c6250084ca2000410207004f03be005b
:103da0004f02be00bcfd0700809fbe00829fbe0088
:103db0000002be000203be0039020700009fbe00e1
:103dc0000297be0017ef2300462a250085f526003e
:103dd000c4c12d0032020700c7f72300460e27009a
:103de00035fb2600046e2f00abfd07003e02be002f
:103df0002e03be002a02070007fd23000600200054
:103e00000500200004002000a3fd07004f03be00b2
:103e10004f02be0022020700809fbe00829fbe00ac
:103e20003e00be002e01be0007f4230096f92300d9
:103e3000e5fd26009480230019020700c7fa23003d
:103e4000e618270025142700341b250092fd0700e3
:103e50003e02be002e03be001102070007fe230033
:103e60000600200005002000040020008afd070055
:103e7000ffbb97006fbb9700dfba97004fba970060
:103e800018fd07000002be000203be004f01be0085
:103e90004f00be00a5fe070007fe2300060020001d
:103ea0006022b8007cfd0700610246003101070076
:103eb00071ff370003ff27002202200072438800b1
:103ec0000001eb006000b8006bff37008001eb00e1
:103ed000f9ff370003ff2300f9ff370003f8a300c1
:103ee00065ff32008001eb00f5ff37001400200071
:103ef0009d023700f4ff2f009b0237000001be0037
:103f0000070107000470a70003f0a1006509b100d4
:103f1000160032000d0035006828e100060035006b
:103f2000f0ff2f00f1ff27000300e00013003b002b
:103f300001002800000005000000400081804800ca
:103f40008502e900fcff3a0008003700f88f4200c4
:103f500002003c008000eb00000005008100d10061
:103f60000080d3008502e800fcff3a000300e00077
:103f700002003b0060001000e08018000000060016
:103f8000881f7800030478000300e00007003d006c
:103f900060001000e080180060011900e081190045
:103fa00002003b0001f02d00030037001400070061
:103fb00008f0a70003f0a0004f04780000000600fe
:103fc000881f7800030478000300e00007003d002c
:103fd00060001000e080180060011900e081190005
:103fe00002003b0001f02d00030037002f00070006
:103ff00008f0a70001f0a0004f04780000000600c0
:10400000889fbe000082700004027100048271006b
:104010002400320036432000c50020008383cf00f7
:104020000a0039000541b1008283cf000700390042
:104030000541b1008183cf00040039000541b10082
:104040008083cf00010039000541b10085c35300d2
:104050006022b800120032000a003b008482720025
:10406000610260008301d1000281d3008180d3000e
:104070000080d3000603e8008743e800f7ff3a001a
:10408000070037000000400081804800020149001d
:10409000838149000603e9008743e900f9ff3a00fc
:1040a0007cfe07004f04be0000000600889fbe0093
:1040b0008a9fbe00008270000402710004827100b9
:1040c000260032000004be000200be006011b800ed
:1040d0006b092000950220000182cf000a00390000
:1040e0000541b1000082cf00070039000541b10051
:1040f0000982cf00040039000541b1000882cf00d9
:10410000010039000541b1000542520012003200a1
:104110000a003b0082817100610164008100d100ce
:104120000080d3008984d3000884d3008b05e80085
:104130000442e800f7ff3a00070037000804440093
:1041400089844c0000004800818048008b05e9000c
:104150000442e900f9ff3a0010fa07004f05be00db
:104160004f04be00000006000400200000003700dd
:10417000889fbe008a9fbe008c1f78004f26dd00fe
:104180002cfa070033fa33006120e10043003200cb
:104190006250e10041003e003e0039006420e10031
:1041a0003c003200058255000f003b000402e8008d
:1041b00038003a00800f5300818f5b0035003400d7
:1041c0000800be0003f0a10001f0a60003f0a0006b
:1041d0000cf0a7002ffd070027fa37000603430065
:1041e00087834b000c4646000005530081855b0029
:1041f000020033000a03be000c00a0000402e90024
:10420000f6ff3b00850578000602430087824b00dd
:1042100004003a006000b80009f0a70001f0a00017
:1042200015fa37000002520081825a000704e000ac
:10423000040033000603430087834b008b05e9002d
:10424000faff3700090578000604be000203be002d
:104250006011b800d1f90700e00f5200e08f5a005a
:104260000700350002003c000c08a30004003200e7
:104270000601be0003f0a0000cf0a70005fd07003a
:104280000a85680001f0a1000af0a70001f0a00073
:10429000f9f937000800be00f7f9370010022000d6
:1042a0000cf0a60070438800f7f937001400fa00fc
:1042b000889fbe008a9fbe008c9fbe0004067800c7
:1042c0000004be000205be00680047000a90be0060
:1042d0000890be002dfe07006200e1000800be004d
:1042e0000a01be00040020000b003a001e029000ec
:1042f000e43fb1006e009000fe0090000e099000b7
:104300009e099000f300b20005fe23008581710034
:104310000bf0a70003f0a000040e780056fe370053
:10432000c70ade00f107b200f50fb2000800320044
:10433000e1cf4200020032000170a000240005001d
:10434000810f7000010032000408050044000500e0
:10435000810f700002003a00140005008502e90098
:104360000000400081c04800fcff3b000170a0003d
:10437000240005001400fa00889fbe008a9fbe003a
:104380008c9fbe00040678000004be000205be003b
:10439000680047000a90be000890be00fbfd0700c1
:1043a0006200e1000800be000a01be0023003a00de
:1043b0006e009000fe0090000e0990009e09900093
:1043c0009e02900085024600e47f20000428e10060
:1043d00005003c00d4fc2f000428e10008003d004b
:1043e0000500200001003700f57f2000200220009a
:1043f000704388006000b8006011b8000a00370000
:10440000140020000482520007003d008301d10007
:104410000281d3008180d3000080d3000402e80031
:10442000faff3a0005002000c42add00f300b200c4
:10443000858171000bf0a70003f0a0000efe37008d
:104440000800fa00889fbe008a9fbe008c9fbe00b5
:10445000bcfd07006420e10007fe3e006220e10091
:10446000030032008700350003f8a30002fe32008b
:1044700003f8a30087003a000e0278008bff0700c4
:104480001e0678000004be000205be007a00070088
:1044900094fb0700009fbe000297be000800be000c
:1044a0000a01be0067fe2300e6092a00f567260020
:1044b000d4bc230019010700090034003e00be00ef
:1044c0002e01be006c00070086fb0700009fbe00a7
:1044d0000297be000800be000a01be0003003700bc
:1044e0000c06e9003e00be002e01be00620007007f
:1044f0006b00070060000700e7fb07000002be003a
:104500000203be003e00be002e01be0007fd0700f4
:104510000004be000205be000002be000203be0091
:104520005f000700009fbe000297be0017042c002a
:1045300006582d0075b62400f4e02c00d6fb0700c9
:104540003e02be002e03be005500070037072400c0
:104550003608280055a12f00e4672200cefb070093
:104560003e02be002e03be004d00070087082c004f
:10457000e6bf2000d5c0290074072900c6fb07004c
:10458000809fbe00829fbe0097fe2b0056412400f4
:1045900065352b0094d22b003e00be002e01be00dc
:1045a0003f00070007032400a6242600650122001f
:1045b000d4fe2a00b8fb07003e02be002e03be0058
:1045c0003700070007052c00f67f2000352b21005f
:1045d000a4592b00b0fb07003e02be002e03be0014
:1045e0002f0007004f03be004f02be00cffc0700a4
:1045f000009fbe000297be000802be000a03be0074
:10460000270007000802be000a03be00a2fb070045
:104610000004be000205be006160b900d9f80700c1
:10462000009fbe000297be00b7f22b0006012d00ce
:1046300015c6250084ca2000190007000802be0024
:104640000a03be0094fb07000004be000205be0082
:104650003e00be002e01be0067fe230006002300c0
:104660006022b8000e0007000802be000a03be0068
:1046700089fb070080fd370007fe23006022b80099
:104680000600050003ff2f00020020006000b800b4
:1046900079fd3700100220007043880073fd370059
:1046a0002800fa00889fbe008a9fbe008c9fbe0033
:1046b00003866b005cfd07000028a30064003a003d
:1046c0000128a30067003a000008a30062003a0036
:1046d0000108a30065003a001e009000be0890008b
:1046e00081064000ed3fb100f4805700ee019000dc
:1046f000111ab8008e099000311bb8009e09900075
:10470000311cb800511db800f48557004600070061
:10471000fe0190003a0007008b85e8003e0007008c
:104720008e09900040000700ee0190003400070061
:104730008b85e800380007008e09900040000700d4
:104740009e0990001b18b800890440000a854800a3
:10475000fe019000340007008b85e8003800070058
:10476000ee019000300007008e0990001b18b80081
:10477000890440000a8548000a98a30008003a000e
:104780000402420085824a0006034b0087834b00e7
:1047900008044c0089844c000a054d008d06e90090
:1047a00084827200850273004c3add00850272003b
:1047b0000100320015002000443ade001400b2006f
:1047c0004538de00cb45dd000b007000c540de0043
:1047d000cb4ddd008b8070004549de00cb55dd0000
:1047e0000b017100c551de000d037800a9fc070024
:1047f00003f0a1000cf0a70003f0a0001efd37009d
:104800001b18b8008502400006834800e0834b0077
:1048100060044c00070037001b18b8000603400076
:1048200087834800faff37001b18b8008703400051
:1048300008844800e0844c0060054d00000006003c
:104840001b18b8000804400089844800faff3700ac
:104850000108a30005fd3a005800be005801be0043
:10486000e3ff37000008a30000fd3a0009047800c8
:10487000f9ff370000000000889fbe008a9fbe003d
:104880008c9fbe000404be000605be00809fbe00d3
:10489000829fbe00abfc0700040678000800be0043
:1048a0000a01be00a7fc0700840678004f03be0083
:1048b0004f02be008d4f76007fb09700130033008b
:1048c000f0ff2f008b8f6b0006003b000d0666008b
:1048d0000c00a7000a00370007f0a6001000200017
:1048e0000a003700880f5200898f5a008a0f5b0038
:1048f0008b8f5b00030039001000200001003e0098
:104900000000200007f0a7000000ea004f06be00ec
:104910004f05be004f04be0000000600809feb0064
:10492000d5ff07008f87e9000000e00000000600c7
:10493000e48240001078a3000700320064024000c7
:104940001178a3003400be001401be000400320040
:104950000330a700000006003500be001501be00b0
:104960000330a00000000600889fbe008a9fbe00a2
:10497000841f78002ff807004f00780011003300e3
:10498000f0ff2f00838f6c0006003b0004056500dc
:104990000a00a7000800370009f0a6001000200058
:1049a00008003700820f5400838f5c000300390039
:1049b0001000200001003e000000200009f0a700c8
:1049c0000000ea004f05be004f04be000000e000fa
:1049d00000000600881f78000204780008017800b3
:1049e000c4000700080040004f04780000000600e3
:1049f0000000fa00881f780000047800ea81570060
:104a00003fb9970088007800a04e220007000700f9
:104a10000000e000020035008040eb0001747800e7
:104a20004f0478000080fa00000006006200fa00df
:104a3000889fbe008a1f78000005780081047800f6
:104a4000020478008300780080f92f000f004000f6
:104a5000770107009a979f00a9979f000000eb003d
:104a6000b09f9f001885fb008a04fb000a05ea003e
:104a70004f55de0050022000808f54000d003200a0
:104a8000e10f55000b003a000a0178008800780019
:104a90002f9097009f91970003000100a0979f001f
:104aa0000000e0008e0032003f9897000000e80010
:104ab000b09f9f000a04440050022000808f5400e1
:104ac000040032000900e000e6ff3a003f9897003a
:104ad000840037000000eb00909f9f00809f9f00a4
:104ae000f0979f00e0979f00d0979f00c0979f008e
:104af00007003700e18f2000010050000000400057
:104b0000218f200061007800df989700010070007d
:104b1000d09f9f0088047800090478003845780009
:104b20008a00fb00e08f2000790007000000e00011
:104b3000f0ff3a00a1c2b300814f55000e003a00c9
:104b4000cf8897000180e900c08f9f001000780097
:104b5000c09f9f000000e00005003d000000ea004b
:104b6000c09f9f005f9897000020a000d09f9f00eb
:104b70000904e8000f003700c09f9f000000eb0011
:104b800005003700f2ff2700820f500002003200bc
:104b90006a01b900028040000904780088047800a6
:104ba000b900fb000103b100e98f5000f5ff3600aa
:104bb000c09f9f00e0c2b300984f10000200320077
:104bc0000080eb0019003700a0c2b300d84f1000de
:104bd00007003a00cf8897000180e900c08f9f004e
:104be00010007800a09f9f000804e8001000370024
:104bf0000000eb00a09f9f008800780005003700b0
:104c0000f3ff2700830f5000020032006a02b90050
:104c10000400410001047800880078003101fb00a5
:104c20000203b100e90f5100f5ff3600a09f9f007d
:104c3000984478008900fb00a08e20003400070013
:104c40000000e000020032000804e8000100370024
:104c50008044eb00c97f9f0080c6b30080cf540022
:104c600004003a0098cf14000a003a006640500051
:104c700006003700c0c6b30080cf540005003a00dc
:104c800098cf140003003a0065404000c07f9f00a9
:104c90000804e8001801fb00e3fb2f008f814100ae
:104ca00081f92f008f804000a0f92f000f004000f5
:104cb000e10007000000e00009003a00e1fb2f00de
:104cc0008f804000a0f92f000f0040001c0007005b
:104cd0000000e000020035000804e80061ff370032
:104ce0000080eb004f0578004f04be000080fa0002
:104cf000000006008001780002003700b1597800fa
:104d00000201e9000200e000fcff3a00000006009a
:104d1000020037000304e0000600320000017800c2
:104d200002007800b041780081cf5100f9ff3a00cd
:104d3000010037000001eb000200780000000600cf
:104d40000400fa00889fbe008a9fbe008c1f780076
:104d50000004780001067800f80d900078009000bb
:104d6000808555000808900080855500180890003f
:104d700080855500280890008085550038089000ef
:104d8000808555004808900080855500000222006b
:104d900090bf9f0000032300a0bf9f000810900059
:104da0000028a30015003a000b00e00013003400b7
:104db0000b0578008a047800e20f550001003600e8
:104dc00029002000c801900009017800ee805700fa
:104dd0005800900003000100500498000000e0001b
:104de0008c0032006808900009004000600c9800b8
:104df000090555004240a900eeff3c0078019000f3
:104e00000200e0000c003400c80190008c00780023
:104e10005800900003000100500498008080eb00cf
:104e20000000e0007c003200e8089000780090006c
:104e300000804000600c9800880c90000900e000a1
:104e40001100340009057800e28f5400010036009b
:104e50002a002000c80190000a017800ec80570069
:104e60005800900003000100500498000000e0008a
:104e700068003200680890000a004000600c98004a
:104e80008a845400edff3700180990000200e0000a
:104e90000c003400c8019000e80090005800900019
:104ea00003000100500498008080eb000000e00047
:104eb00059003200e8089000180890000080400077
:104ec000600c9800a80c90000900e000110034006c
:104ed00009057800e28f5400010036002a00200006
:104ee000c80190000a017800ec805700580090003b
:104ef00003000100500498000000e000450032006b
:104f0000680890000a004000600c98008a845400f1
:104f1000edff3700380990000200e0000e00340079
:104f2000e80090001808900080804000c8019000c0
:104f30005800900003000100500498008080eb00ae
:104f40000000e00034003200e808900038089000cb
:104f500000804000600c9800c80c90000900e00040
:104f60001100340009057800e28f5400010036007a
:104f70002a002000c80190000a017800ec80570048
:104f80005800900003000100500498000000e00069
:104f900020003200680890000a004000600c980071
:104fa0008a845400edff3700081090008000eb0069
:104fb0000028a300180032000b00e00016003400a7
:104fc0008b04780009057800e28f54000100360058
:104fd0002a002000c80190000a017800ee805700e6
:104fe0005800900003000100500498000000e00009
:104ff00008003200680890000a004000600c980029
:105000008a8454004240a900eeff3c008000eb007f
:10501000010037008080eb00010078004f06780027
:105020004f05be004f04be000080fa0000000600dd
:105030000108780000000600889fbe008a1f7800e3
:1050400000047800824478000305780070c6b3003d
:1050500080cf54001a003c0000c0e90080cf54000b
:10506000cd003d006d40500080cf540077003200ed
:105070000b003c007140500080cf540035013c00d3
:1050800000c0e90080cf5400c3003d0050c2b3000f
:1050900080cf54002c0132007c40400005003700d6
:1050a00030c6b30080cf54001a0032001e003c000e
:1050b00000c0e90080cf540026013a00b600370056
:1050c000f0c6b30080cf54006000320007003c00ff
:1050d0006640500080cf540013003200654040000d
:1050e00080cf54001b013a00d400370050c7b300f2
:1050f00080cf5400550032006340400080cf540000
:105100005200320002c7b30082cf540011013a00ae
:10511000ff0037001181e9008208780078009000d4
:10512000127578001101370028609000c2c6b300e4
:10513000824f500007003a001101780064005100ce
:10514000800878001000be004f89de0082017800e0
:105150001400370012c7b300824f500003003a001a
:10516000110278006800520005003700a2c6b300a3
:10517000824f500006003a00910278006880520089
:10518000800878005001be004000be0005003700d6
:105190001180e9008008780010007800cf80de00e0
:1051a0006109b900009cbe000294be002862900014
:1051b00085c6b300854f52000d00320025c6b300ee
:1051c000854f520004003a000000fb00cf80de0053
:1051d0006109b9000800370045c7b300854f520088
:1051e00003003200e6c24200854f520004003a003c
:1051f000cf80de006109b900009cbe000294be00b1
:105200003802be002803be0078009000d1c2b3006f
:10521000e00f5200e08f5a00e00f5b00e08f5b0070
:1052200008003500881090000118a3000200320029
:10523000b1c2b300030037000108a30051003200df
:1052400001c2b300017578004c003700286090005f
:10525000c2c6b300824f500008003a001103780024
:1052600064005300800878001002be006033b8006c
:105270000400be000601be001400370012c7b300d0
:10528000824f500003003a0091027800688052007b
:1052900005003700a2c6b300824f500006003a0056
:1052a0001103780068005300800878005001be00a8
:1052b0004000be00050037001180e900800878003a
:1052c000100078008000eb006011b800009cbe0068
:1052d0000294be002862900085c6b300854f52003c
:1052e0000d00320025c6b300854f520004003a007d
:1052f0000080fb008000eb006011b8000800370060
:1053000045c7b300854f520003003200e6c2420099
:10531000854f520004003a008000eb006011b80095
:10532000009cbe000294be00081090000038a3004c
:10533000140032003800be002801be00e00f50000b
:10534000e08f5800e00f5900e08f59000d00320047
:1053500080c7b30080cf54000300320080c5b30083
:1053600080cf540007003a007800900001c3b300da
:10537000017578000000e800097578000000e80079
:105380007004980078009000000545006a049800b9
:10539000894078006900370028619000c0c4b300dc
:1053a000804f510006003a00910378006880530056
:1053b000800878005001be004000be0005003700a4
:1053c0001101780064005100800878001000be00d0
:1053d0006c040700009cbe000294be00b800900060
:1053e000780090000100e00002003d00d1c2b3004f
:1053f00008003700881090000118a3000200320056
:10540000b1c2b300030037000108a300040032005a
:1054100001c2b300017578000000e8007004980034
:1054200078009000000545006a0498008900fb00a0
:1054300008007800530007004e00370028619000f4
:10544000c3c6b3001180e900834f5100240032002d
:105450000a003c00e4c15100834f51002700320094
:1054600083c1e800834f51001500320020c6b3000d
:10547000804f510020003a000a00370043c7b300b4
:10548000834f51001d003200e6c14100834f51009f
:105490001a00320010c7b300804f510016003a00c6
:1054a000060037001180e9008008780010007800bd
:1054b000485c9000084878002e0037001180e90011
:1054c0008008780010007800680a9000cfa2de0003
:1054d000612bb9000498be000690be00250037007d
:1054e000800878001000780068099000cf91de00f5
:1054f0000288be001f0037001180e9008008780094
:1055000010007800680c9000080878001900370037
:105510001181e9008208780012027800cfa2de0033
:10552000612bb900049cbe000694be00f8009000f8
:10553000010545006a049800804078000800780062
:10554000860207000b00370078009000097578008c
:105550000600370078009000000545000904e000cf
:1055600001003a0059c2b300094d78000000e8007c
:10557000700498000000eb004f0578004f04be0057
:10558000000006002f04b000889fbe008a9fbe0066
:105590008c9fbe008e1f78000007780081f79f0067
:1055a0003e04be002e05be005e0890000000e00034
:1055b00002003d0060002000500f98008e0078002f
:1055c00020fb2f000f0040003a020700e20f5000be
:1055d0000a003a0030002000100f9800b1c9b30053
:1055e0000ff097008140400040872000e1cf50003d
:1055f0000d003e00008720000b0037000000e00097
:105600000f00340030002000100f9800b1c9b30023
:105610000ff1970081404100c0872000e1cf50008a
:1056200001003e0080872000ee009000b048780026
:10563000b06878001040780090409800f300370080
:105640000000e00005003a0022fb2f000f0141009e
:10565000001978008001eb00e70037006022b800f5
:105660006033b8000800be000a01be00aaf80700b7
:105670000000e00001003d000bf0a200705927007f
:105680009f9897000088b900026a28001300200044
:10569000ad030700640650009c9f9f0013003b0071
:1056a00063061600c0ff2f00000666008c01ea00aa
:1056b000939f9f000d8820000800be000a01be00d5
:1056c000070037000c08a300030032003d02be00b3
:1056d0002d03be00f2fb07000c86d100e8864600d1
:1056e0000c00e000f7ff3c00180037000c00e00061
:1056f00018003200c0ff2f00000666009c9f9f002c
:105700000d8820006000b8000200200003ff230085
:10571000070037000c08a300030032003d02be0062
:105720002d03be00defb07000c86d100e886460094
:105730000c00e000f7ff3c000002be000203be00c8
:105740000800be000a01be0078f807000004be0091
:105750000205be00de08900060c6b3000ff297009d
