:100000000A128A11FC2F00308A000408840A820731
:100010000034013400340A34003464340034E834E9
:100020000334103427342D343E342034203420342B
:100030002034503452344534533449344F344E34E0
:10004000413444344F340034503455344C345334F8
:10005000413444344F345234003444344F344D34FA
:100060004F345434493443345334003449344E34D7
:100070004E344F3456344134003425346434203403
:060080002034203400349E
:10026600F600442973087F3E40297308BF3E4029A3
:100276007308933E40297308D33EF5007508F700CE
:1002860052297608013A03193529033A0319382900
:10029600013A03193B29073A03193E2952297708DF
:1002A6000A128A1144220A128A1174080A128A1141
:1002B600DF2208007808790403198A29FD01FD0A5E
:1002C600F91B712901300310F80DF90DFF3E031DCE
:1002D60066290130FC007C08FD07632979087B024A
:1002E600031D772978087A02031C7F297808FA0209
:1002F6007908031CFB03FB0201300310F90CF80C10
:10030600FF3E031D80290130FD02031D71297B0874
:10031600F9007A08F8000800F600A02973087F3E65
:100326009C297308BF3E9C297308933E9C29730839
:10033600D33EF5007508F700AE297608013A031991
:100346009129033A03199429013A03199729073A7F
:1003560003199A29AE2977080A128A1144220A1229
:100366008A117408840083130008031908007408AE
:100376008400831300080A128A11DF220A128A11E6
:100386000130F5007508F407B429F501F601700887
:1003960071040319FF29F701F70AF11BDE29013061
:1003A6000310F00DF10DFF3E031DD3290130F400BB
:1003B6007408F707D02901300310F50DF60DFF3E3E
:1003C600031DDF2971087302031DEB2970087202F1
:1003D600031CF4297008F2027108031CF303F302EC
:1003E600751401300310F10CF00CFF3E031DF529C6
:1003F6000130F702031DDE297608F1007508F000CA
:100406000800F600152A73087F3E112A7308BF3EBE
:10041600112A7308933E112A7308D33EF500750816
:10042600F700232A7608013A0319062A033A031924
:10043600092A013A03190C2A073A03190F2A232A13
:1004460077080A128A1144220A128A117408840053
:100456000A128A1103200A128A11003A03190800A7
:10046600740884000A128A1103200A128A110A12D9
:100476008A11DF220A128A110130F5007508F40785
:10048600292AF20083120313071287127208F0005A
:1004960007300310F00CFF3E031D4C2A0130700597
:1004A600F10007087106FE39710687007208F00030
:1004B60006300310F00CFF3E031D5C2A700801395C
:1004C600F100F10D07087106FD3971068700720803
:1004D600F00005300310F00CFF3E031D6D2A700876
:1004E6000139F100F10DF10D07087106FB397106AE
:1004F60087007208F00004300310F00CFF3E031D65
:100506007F2A70080139F100F10DF10DF10D070890
:100516007106F739710687000716912A922A00009C
:100526008312031307127208F00003300310F00C55
:10053600FF3E031D992A01307005F1000708710678
:10054600FE39710687007208F00002300310F00CC5
:10055600FF3E031DA92A70080139F100F10D0708B5
:100566007106FD39710687007208F0000310700CE1
:100576000139F100F10DF10D07087106FB3971061D
:10058600870072080139F000F00DF00DF00D070834
:100596007006F739700687000716D12AD22A00009E
:1005A6008312031307120830F1002330F000F00B1A
:1005B600DA2AF10BDA2A0800F20083120313071273
:1005C60087167208F00007300310F00CFF3E031D7B
:1005D600E72A01307005F10007087106FE39710639
:1005E60087007208F00006300310F00CFF3E031D72
:1005F600F72A70080139F100F10D07087106FD3977
:10060600710687007208F00005300310F00CFF3EFB
:10061600031D082B70080139F100F10DF10D0708D3
:100626007106FB39710687007208F000043003106A
:10063600F00CFF3E031D1A2B70080139F100F10D75
:10064600F10DF10D07087106F739710687000716D7
:100656002C2B2D2B00008312031307127208F000B7
:1006660003300310F00CFF3E031D342B01307005E0
:10067600F10007087106FE39710687007208F0005E
:1006860002300310F00CFF3E031D442B70080139A5
:10069600F100F10D07087106FD3971068700720831
:1006A600F0000310700C0139F100F10DF10D07088F
:1006B6007106FB397106870072080139F000F00DEA
:1006C600F00DF00D07087006F7397006870007165B
:1006D6006C2B6D2B0000831203130712722B732BE6
:1006E60000000830F1002330F000F00B782BF10BFE
:1006F600782B08008316031307108710071187113C
:100706000712871283120313071087100711871128
:10071600071287120830F4002330F300F30B912BF5
:10072600F40B912B0830F4002330F300F30B992BD4
:10073600F40B992B0830F4002330F300F30BA12BB4
:10074600F40BA12B0830F4002330F300F30BA92B94
:10075600F40BA92B0830F4002330F300F30BB12B74
:10076600F40BB12B0830F4002330F300F30BB92B54
:10077600F40BB92BF501F50A043075020318EC2BBE
:1007860083120313071087100715871507128712A0
:10079600071087100715871507168712D22BD32B3C
:1007A6000000831203130710871007158715071219
:1007B60087120830F4002330F300F30BE02BF40B20
:1007C600E02B0130F3007308F50704307502031CB3
:1007D600C32B8312031307108710071587110712FF
:1007E6008712071087100715871107168712FB2B2C
:1007F600FC2B0000831203130710871007158711BF
:10080600071287120830F4002330F300F30B092C8B
:10081600F40B092C2830F3007308F50075080A124A
:100826008A1144220A128A111030F3007308F50067
:1008360075080A128A1144220A128A11F501F50A6C
:1008460075080A128A1144220A128A110F30F3001F
:100856007308F50075080A128A11442208008312EB
:100866000313AB002130A3002308A6000130A00724
:10087600FF30200784000A128A1103200A128A1107
:10088600A3002308AC002C080319012D25302C06E3
:100896000319592C2C08A3002B0884002308831362
:1008A60080000130A3002308AB07392CA7010130D3
:1008B600A007FF30200784000A128A1103200A12BB
:1008C6008A11AC00003A0319012D643A03196F2C02
:1008D6000D3A03196F2C392C26088400831300085F
:1008E600A900840A0008AA000230A3002308A6076C
:1008F600AA1F862C0330A3002308A704A909AA0966
:10090600A90A0319AA0AAC01AC0A05302C06031978
:10091600AD2C2C08A3002307013E84000A128A117D
:1009260003200A128A11A4000A128A1103200A124D
:100936008A11A50025082A02031DA32C24082902D2
:10094600031CAD2C0130A3002308AC0705302C0690
:10095600031D8C2C270803390319BC2C2D30A3004A
:100966002B0884002308831380000130A30023088A
:10097600AB072C08A3002308A800FF30A300230818
:10098600A807280A0319392C0A30F8000030F900A4
:100996002808A3002307013E84000A128A110320B7
:1009A6000A128A11F0000A128A1103200A128A1109
:1009B600F1002A08F3002908F2000A128A11C82158
:1009C6000A128A117108FB007008FA000A128A11CD
:1009D6005D210A128A117808303E83120313A4009F
:1009E6002408AC002C08A3002B08840023088313DA
:1009F60080000130A3002308AB07C02C2B0884001D
:100A06008313800108000730831603139F000A1220
:100A16008A117D230A128A1101300A128A11442290
:100A26000A128A110C300A128A1144220A128A11F9
:100A3600823083120313AE00DD30AD00AD0B212DE5
:100A4600AE0B212D83160313061086140A3083126B
:100A56000313C4000030C5004508803AFF0080300B
:100A66007F02031D382D01304402031C7A2D3530D8
:100A760083120313AD002D08A0004508A200440808
:100A8600A10030300A128A1132240A128A11F301A7
:100A9600F30A303083120313AD002D08F400013041
:100AA6000A128A118F210A128A1102308312031345
:100AB600AF008630AE009830AD00AD0B602DAE0BAA
:100AC600602DAF0B602D0000FF3083120313C407A7
:100AD6000318C50AFF30C5074508803AFF00803075
:100AE6007F02031D782D0130440203183A2D013090
:100AF6000A128A1144220A128A11F301F30A2E30CD
:100B060083120313AD002D08F40001300A128A1176
:100B160004220A128A11063083120313AF0013301F
:100B2600AE00AD30AD00AD0B962DAE0B962DAF0BD6
:100B3600962D083083120313AD002D08F3002530DF
:100B4600AE002E08F40002300A128A1104220A129C
:100B56008A11063083120313AF001330AE00AD3096
:100B6600AD00AD0BB42DAE0BB42DAF0BB42D0130D3
:100B76000A128A1144220A128A11F301F30A70300A
:100B860083120313AD002D08F40001300A128A11F6
:100B960033210A128A11023083120313AF00043084
:100BA600AE00B930AD00AD0BD62DAE0BD62DAF0BCA
:100BB600D62DDD2D023083120313AD002D08F30070
:100BC6006930AE002E08F40001300A128A11332172
:100BD6000A128A11023083120313AF000430AE00EA
:100BE600B930AD00AD0BF52DAE0BF52DAF0BF52DD8
:100BF600FC2D033083120313AD002D08F300633080
:100C0600AE002E08F40001300A128A1133210A12AE
:100C16008A11023083120313AF000430AE00B930DC
:100C2600AD00AD0B142EAE0B142EAF0B142E1B2ED7
:100C3600043083120313AD002D08F3003130AE00EB
:100C46002E08F40001300A128A1133210A128A1181
:100C5600023083120313AF000430AE00B930AD008A
:100C6600AD0B332EAE0B332EAF0B332E3A2E053093
:100C760083120313AD002D08F3003630AE002E08A4
:100C8600F40001300A128A1133210A128A11023045
:100C960083120313AF000430AE00B930AD00AD0BC4
:100CA600522EAE0B522EAF0B522E592E06308312F9
:100CB6000313AD002D08F3006630AE002E08F400D5
:100CC60001300A128A1133210A128A110230831264
:100CD6000313AF000430AE00B930AD00AD0B712E7A
:100CE600AE0B712EAF0B712E782E073083120313C5
:100CF600AD002D08F3003830AE002E08F4000130A8
:100D06000A128A1133210A128A110230831203133E
:100D1600AF000430AE00B930AD00AD0B902EAE0B77
:100D2600902EAF0B902E972E083083120313AD0032
:100D36002D08F3003730AE002E08F40001300A12F9
:100D46008A1133210A128A11023083120313AF006B
:100D56000430AE00B930AD00AD0BAF2EAE0BAF2EEA
:100D6600AF0BAF2EB62E093083120313AD002D083C
:100D7600F3003730AE002E08F40001300A128A1153
:100D860033210A128A11023083120313AF00043092
:100D9600AE00B930AD00AD0BCE2EAE0BCE2EAF0BE6
:100DA600CE2ED52E0A3083120313AD002D08F30084
:100DB6006130AE002E08F40001300A128A11332188
:100DC6000A128A11023083120313AF000430AE00F8
:100DD600B930AD00AD0BED2EAE0BED2EAF0BED2EFB
:100DE600F42E0B3083120313AD002D08F3002A30C6
:100DF600AE002E08F40001300A128A1133210A12BD
:100E06008A11023083120313AF000430AE00B930EA
:100E1600AD00AD0B0C2FAE0B0C2FAF0B0C2F132F01
:100E26000C3083120313AD002D08F3005430AE00CE
:100E36002E08F40001300A128A1133210A128A118F
:100E4600023083120313AF000430AE00B930AD0098
:100E5600AD0B2B2FAE0B2B2FAF0B2B2F322F0D30B5
:100E660083120313AD002D08F3006530AE002E0883
:100E7600F40001300A128A1133210A128A11023053
:100E860083120313AF000430AE00B930AD00AD0BD2
:100E96004A2FAE0B4A2FAF0B4A2F512F0E3083121B
:100EA6000313AD002D08F3007330AE002E08F400D6
:100EB60001300A128A1133210A128A110230831272
:100EC6000313AF000430AE00B930AD00AD0B692F8F
:100ED600AE0B692FAF0B692F702F0F3083120313E0
:100EE600AD002D08F3007430AE002E08F40001307A
:100EF6000A128A1133210A128A110230831203134D
:100F0600AF000430AE00B930AD00AD0B882FAE0B8C
:100F1600882FAF0B882F8F2F103083120313AD004D
:100F26002D08F3002A30AE002E08F40001300A1214
:100F36008A1133210A128A11023083120313AF0079
:100F46000430AE00B930AD00AD0BA72FAE0BA72F06
:100F5600AF0BA72FAE2F031083120313061C031427
:100F6600031CB92F831203130614BC2F8312031319
:100F760006108618E72FF301F30A1C30AD002D0882
:100F8600F40001300A128A1104220A128A11F301AE
:100F9600F30A0B3083120313AD002D08F400023060
:100FA6000A128A1104220A128A11063083120313C6
:100FB600AF001330AE00AD30AD00AD0BE02FAE0B81
:100FC600E02FAF0BE02FED2F01300A128A114422D9
:100FD6000A128A11033083120313AF008A30AE005F
:100FE6005530AD00AD0BF52FAE0BF52FAF0BF52F32
:0A0FF600AE2F83010A128A11062DA6
:02400E00B93FB8
:00000001FF
