:020000040000fa
:080000000001040000000000f3
:020000040000fa
:040008002a020000c8
:020000040000fa
:04000c002a020000c4
:020000040000fa
:040010002a020000c0
:020000040000fa
:040014002a020000bc
:020000040000fa
:040018002a020000b8
:020000040000fa
:04001c002a020000b4
:020000040000fa
:040020002a020000b0
:020000040000fa
:040024002a020000ac
:020000040000fa
:040028002a020000a8
:020000040000fa
:04002c002a020000a4
:020000040000fa
:040030002a020000a0
:020000040000fa
:040034002a0200009c
:020000040000fa
:040038002a02000098
:020000040000fa
:04003c002a02000094
:020000040000fa
:040040002a02000090
:020000040000fa
:04004400cc010000eb
:020000040000fa
:040048002a02000088
:020000040000fa
:04004c002a02000084
:020000040000fa
:040050002a02000080
:020000040000fa
:040054002a0200007c
:020000040000fa
:040058002a02000078
:020000040000fa
:04005c002a02000074
:020000040000fa
:040060002a02000070
:020000040000fa
:040064002a0200006c
:020000040000fa
:040068002a02000068
:020000040000fa
:04006c002a02000064
:020000040000fa
:040070002a02000060
:020000040000fa
:040074002a0200005c
:020000040000fa
:040078002a02000058
:020000040000fa
:04007c002a02000054
:020000040000fa
:040080002a02000050
:020000040000fa
:040084002a0200004c
:020000040000fa
:040088002a02000048
:020000040000fa
:04008c002a02000044
:020000040000fa
:040090002a02000040
:020000040000fa
:040094002a0200003c
:020000040000fa
:040098002a02000038
:020000040000fa
:04009c002a02000034
:020000040000fa
:0400a0002a02000030
:020000040000fa
:0400a4002a0200002c
:020000040000fa
:0400a8002a02000028
:020000040000fa
:0400ac002a02000024
:020000040000fa
:0400b0002a02000020
:020000040000fa
:0400b4002a0200001c
:020000040000fa
:0400b8002a02000018
:020000040000fa
:0400bc002a02000014
:020000040000fa
:0400c0002a02000010
:020000040000fa
:0400c4002a0200000c
:020000040000fa
:0400c8002a02000008
:020000040000fa
:0400cc002a02000004
:020000040000fa
:0400d0002a02000000
:020000040000fa
:0400d4002a020000fc
:020000040000fa
:0400d8002a020000f8
:020000040000fa
:040108002a020000c7
:020000040000fa
:04010c002a020000c3
:020000040000fa
:040110002a020000bf
:020000040000fa
:040114002a020000bb
:020000040000fa
:040118002a020000b7
:020000040000fa
:04011c002a020000b3
:020000040000fa
:040120002a020000af
:020000040000fa
:040124002a020000ab
:020000040000fa
:040128002a020000a7
:020000040000fa
:04012c002a020000a3
:020000040000fa
:040130002a0200009f
:020000040000fa
:040134002a0200009b
:020000040000fa
:040138002a02000097
:020000040000fa
:04013c002a02000093
:020000040000fa
:040140002a0200008f
:020000040000fa
:040144002a0200008b
:020000040000fa
:040148002a02000087
:020000040000fa
:04014c002a02000083
:020000040000fa
:040150002a0200007f
:020000040000fa
:040154002a0200007b
:020000040000fa
:040158002a02000077
:020000040000fa
:04015c002a02000073
:020000040000fa
:040160002a0200006f
:020000040000fa
:040164002a0200006b
:020000040000fa
:040168002a02000067
:020000040000fa
:04016c002a02000063
:020000040000fa
:040170002a0200005f
:020000040000fa
:040174002a0200005b
:020000040000fa
:040178002a02000057
:020000040000fa
:04017c002a02000053
:020000040000fa
:040180002a0200004f
:020000040000fa
:040184002a0200004b
:020000040000fa
:040188002a02000047
:020000040000fa
:04018c002a02000043
:020000040000fa
:040190002a0200003f
:020000040000fa
:040194002a0200003b
:020000040000fa
:040198002a02000037
:020000040000fa
:04019c002a02000033
:020000040000fa
:0401a0002a0200002f
:020000040000fa
:0401a4002a0200002b
:020000040000fa
:0401a8002a02000027
:020000040000fa
:0401ac002a02000023
:020000040000fa
:0401b0002a0200001f
:020000040000fa
:0401b4002a0200001b
:020000040000fa
:0401b8002a02000017
:020000040000fa
:0401bc002a02000013
:020000040000fa
:0401c0002a0200000f
:020000040000fa
:0401c4002a0200000b
:020000040000fa
:0401c8002a02000007
:020000040000fa
:0401cc002a02000003
:020000040000fa
:0401d0002a020000ff
:020000040000fa
:0401d4002a020000fb
:020000040000fa
:0401d8002a020000f7
:020000040000fa
:100200008f8920000eff20000e01880000000000f2
:10021000000020000000e000020032000001200089
:100220002002880014000700410307000000e000de
:1002300003003a0020a42100010020000200370042
:100240000000200001002000810f7000010032003a
:1002500014000700000020000000e000020032004f
:100260000000020000000000fe1802000000000074
:100270000040da000000fe004440a90040042000d5
:100280000000e0000300320000002000a001880010
:100290004440a800000006008a1f78008b1f7800e9
:1002a0000000060091018800800478000000eb0047
:1002b0001a003700e284440032a0b4009905ba0065
:1002c000e284440032a0b4009906ba00e2844400fb
:1002d00032a0b4000006eb00476fde00fd07b2005d
:1002e000636ce10003003a00ebff07000000eb0045
:1002f0000a003700606ce10004003a00005deb008a
:100300008b05e900fdff3e00040037006168e10055
:10031000010032000086eb000b00070019c7ba008d
:100320001905ba000e04e00003003a000a00e000dc
:10033000e0ff3a0000000600fe07b2009e018800c0
:100340008a047800f5ff3700395dba008b05e900b3
:100350000c003200295dba008b05e900080032006c
:100360000c00e00003003a00e284440032a0b40034
:10037000f5ff370019ddba008b05e900faff3a00f6
:100380008904e800e184440032a0b40000000600c3
:1003900000000000000000003600f800809fbe0052
:1003a000829fbe00849fbe00869fbe000000fa00b0
:1003b000004080001140800002002000a36724005c
:1003c0008f03070002002000f3372400d902070042
:1003d0001a03070000007800600c880020408000ad
:1003e0003140800002002000a3672400840307003e
:1003f00002002000f3372400ce0207000f0307009d
:1004000000007800300c880040408000514080009f
:1004100002002000a36724007903070002002000e7
:10042000f3372400c302070004030700000078002c
:10043000000c880084e0a9000080fa004f03be0091
:100440004f02be004f01be004f00be003600f90053
:10045000004006000040da000000fe000200fa0042
:10046000004f780079020700cb22a900cb42a900f7
:10047000cb62a900cb82a900e2a2a900e242a900b6
:10048000e282a900c722a900c742a900c762a90049
:10049000c782a900dea2a900de42a900de82a9006f
:1004a00000c3b3005b0107006802070000c3b3008c
:1004b000580107009202070000c3b300550107006e
:1004c0008f02070000cfb3001e40600051010700fb
:1004d0001e4078004f0107006d020700c0c0b30046
:1004e0004c0107006a02070010c0b3004901070071
:1004f0006702070060c0b300460107000080fa00f1
:10050000000006000200fa00004f7800e2a2a900f5
:10051000e242a900c722a900c742a900c762a900f8
:10052000c782a900cb22a8009e00fb000004200087
:10053000008060004680de0000407800614060007e
:100540000080fb00610060004a00dd005116800061
:1005500001a0a10001007000501688009e00fb0061
:1005600000022000008060004580de00004078002e
:10057000614060000080fb00610060004b00dd0016
:100580005116800001b0a1000100700050168800d3
:100590001e00fb00700060004480de000040780018
:1005a000614060000080fb00610060004c00dd00e5
:1005b0005116800001c0a100010070005016880093
:1005c000e282a80015020700e282a900e2a2a900c7
:1005d000e242a9001e00fb00680060004380de00cc
:1005e00000407800614060000080fb006100600016
:1005f0004900dd00511680000190a100010070004b
:10060000501688001e00fb00640060004280de007f
:1006100000407800614060000080fb0061006000e5
:100620004a00dd005116800001a0a1000100700009
:10063000501688001e00fb00620060000080d100a0
:1006400000407800614060000080fb0061006000b5
:100650004b00dd005116800001b0a10001007000c8
:10066000501688001e4078006140600061406000c4
:10067000614060000080fb00610060004c00dd0014
:100680005116800001c0a1000100700050168800c2
:10069000e282a800e1010700e282a900c722a800c7
:1006a000c742a800c762a800c782a80014020700ba
:1006b0000080fa00000006000000fa00c722a8002f
:1006c000c742a800c762a800c782a800e2a2a8008b
:1006d000e242a900d1010700e282a800cf01070091
:1006e0004116800000202000008060000000e00033
:1006f00004003200e282a900f601070010c0b30036
:1007000003003700e282a900f20107000040eb007d
:100710000080fa00000006000c00fa00c722a800c2
:10072000c742a800c762a800c782a800e2a2a8002a
:10073000e242a900b9010700e282a800b701070060
:10074000401680004a00de0061406000204f9800a3
:100750002e4890000000fb004600dd0000407800bd
:10076000204f9800401680004b00de006140600082
:10077000104f98001e4890000000fb004500dd006f
:1007800000407800104f9800401680004c00de00ba
:1007900061406000004f98000e4890000000fb0090
:1007a0004400dd0000407800004f9800e282a9007c
:1007b000e2a2a800e242a900e282a8009701070095
:1007c000401680004900de006140600070479800dc
:1007d0007e4090000000fb004300dd0000407800f8
:1007e00070479800401680004a00de0061406000bb
:1007f000604798006e4090000000fb004200dd0062
:100800000040780060479800401680004b00de00f2
:1008100061406000504798005e4090000000fb007f
:1008200000004000004078005047980040168000cb
:100830004c00de006140600040479800e282a90061
:100840000000eb001007980008003700e4004700a4
:100850001e00900000804000104078001e4f700085
:100860001e0090000000e800100798001e00900095
:10087000e70f5000f5ff34001e4078000080fa00ba
:10088000000006000c00fa00c722a800c742a8001a
:10089000c762a800c782a800e2a2a800e242a8009e
:1008a0005e010700e282a8005c010700401680009c
:1008b0004900de0061406000304f98003e489000e3
:1008c0000000fb004700dd0000407800304f98003a
:1008d000401680004a00de0061406000204f980012
:1008e0002e4890000000fb004600dd00004078002c
:1008f000204f9800401680004b00de0061406000f1
:10090000104f98001e4890000000fb004500dd00dd
:1009100000407800104f9800401680004c00de0028
:1009200061406000004f98000e4890000000fb00fe
:100930004400dd0000407800004f9800e282a900ea
:10094000e2a2a800e242a800e282a8003301070068
:10095000401680004900de0061406000704798004a
:100960007e4090000000fb004300dd000040780066
:1009700070479800401680004a00de006140600029
:10098000604798006e4090000000fb004200dd00d0
:100990000040780060479800401680004b00de0061
:1009a00061406000504798005e4090000000fb00ee
:1009b000000040000040780050479800401680003a
:1009c0004c00de006140600040479800e282a900d0
:1009d0000000eb001007980008003700e400470013
:1009e0001e00900000804000104078001e4f7000f4
:1009f0001e0090000000e800100798001e00900004
:100a0000e70f5000f5ff34001e4078000080fa0028
:100a1000000006000200fa00004f7800e2a2a900e0
:100a2000e242a900c722a900c742a900c762a900e3
:100a3000c782a9009e00fb00000820000080600023
:100a40004780de0000407800614060000080fb00cd
:100a5000610060004900dd00511680000190a10096
:100a600001007000501688009e00fb00000420006a
:100a7000008060004680de00004078006140600039
:100a80000080fb00610060004a00dd00511680001c
:100a900001a0a10001007000501688009e00fb001c
:100aa00000022000008060004580de0000407800e9
:100ab000614060000080fb00610060004b00dd00d1
:100ac0005116800001b0a10001007000501688008e
:100ad0001e00fb00700060004480de0000407800d3
:100ae000614060000080fb00610060004c00dd00a0
:100af0005116800001c0a10001007000501688004e
:100b0000e282a800c5000700e282a900e2a2a900d3
:100b1000e242a9001e00fb00680060004380de0086
:100b200000407800614060000080fb0061006000d0
:100b30004900dd00511680000190a1000100700005
:100b4000501688001e00fb00640060004280de003a
:100b500000407800614060000080fb0061006000a0
:100b60004a00dd005116800001a0a10001007000c4
:100b7000501688001e00fb00620060000080d1005b
:100b800000407800614060000080fb006100600070
:100b90004b00dd005116800001b0a1000100700083
:100ba000501688001e40780061406000614060007f
:100bb000614060000080fb00610060004c00dd00cf
:100bc0005116800001c0a10001007000501688007d
:100bd000e282a80091000700e282a9000000000064
:100be000b5fe07000004e000fdff3a000080fa00b7
:100bf000000006000200fa00004f7800e2a2a900ff
:100c0000e242a800c722a900c742a900c762a90002
:100c1000c782a9009e00fb00000820000080600041
:100c20004780de0000407800614060000080fb00eb
:100c3000610060004900dd00511680000190a100b4
:100c400001007000501688009e00fb000004200088
:100c5000008060004680de00004078006140600057
:100c60000080fb00610060004a00dd00511680003a
:100c700001a0a10001007000501688009e00fb003a
:100c800000022000008060004580de000040780007
:100c9000614060000080fb00610060004b00dd00ef
:100ca0005116800001b0a1000100700050168800ac
:100cb0001e00fb00700060004480de0000407800f1
:100cc000614060000080fb00610060004c00dd00be
:100cd0005116800001c0a10001007000501688006c
:100ce000e282a8004d000700e282a900e2a2a9006a
:100cf000e242a8001e00fb00680060004380de00a6
:100d000000407800614060000080fb0061006000ee
:100d10004900dd00511680000190a1000100700023
:100d2000501688001e00fb00640060004280de0058
:100d300000407800614060000080fb0061006000be
:100d40004a00dd005116800001a0a10001007000e2
:100d5000501688001e00fb00620060000080d10079
:100d600000407800614060000080fb00610060008e
:100d70004b00dd005116800001b0a10001007000a1
:100d8000501688001e40780061406000614060009d
:100d9000614060000080fb00610060004c00dd00ed
:100da0005116800001c0a10001007000501688009b
:100db000e282a80019000700e282a900c722a80069
:100dc000c742a800c762a800c782a800e242a900e3
:100dd0000000000038fe07000004e000fdff3a00bc
:100de0000080fa00000006000200fa00000f780000
:100df000040037001e007800104078007dff0700d7
:100e00001e0fe8001e007800104078000004e0008b
:100e1000f8ff3a000080fa00000006000200fa0025
:100e20000000eb00000f7800020037000060fe00b9
:100e30001e0fe800100320009e007800808f5000f5
:100e4000faff34000080fa00000006000400fa00f7
:100e50006000b800008fbe00050037000060fe0093
:100e600012002000030020001e0f41005e97490081
:100e7000f0872300110020001e01be00800f5100ea
:100e8000818f5900f5ff34000080fa000000060051
:100e90000400fa006000b800008fbe0005003700b3
:100ea0000060fe0012002000030020001e0f410021
:100eb0005e97490070322200010020001e01be0032
:100ec000800f5100818f5900f5ff34000080fa0037
:100ed000000006000200fa000000eb00000f78009e
:100ee000020037000060fe001e0fe8001e007800c0
:100ef000e90f5000fbff34000080fa0000000600fc
:100f00000200fa000000eb00000f7800020037003a
:100f10000060fe001e0fe800703e20009e0078007a
:100f2000808f5000faff34000080fa0000000600b5
:100f300000000500889fbe008a9fbe008c1f7800bd
:100f4000970007009e00330003866c006450e100a8
:100f50002e0032006420e100330032006150e100d5
:100f60002f0032006120e1003100320085855500fc
:100f7000eb07b0000900200008042000050037003e
:100f80000804440089844c000a0031000603430031
:100f900087834b000001530081815b00f8ff330021
:100fa0000203be000800a0000804440089844c002d
:100fb000f6ff3900c639dd008301730001003200fd
:100fc000130020008904d1000884d3000998a300ed
:100fd000050032000800a7000300a0008904d1002a
:100fe0000884d3008b05e8008904d1000884d3006d
:100ff0000001eb000281d2002e00070001f0a100e9
:101000000cf0a70001f0a000760037006420e1009a
:10101000780032000801be000200be00f7ff370072
:101020006120e100730032006000b800f3ff370078
:101030000000200001f82700f0ff37000001be008b
:10104000420007000470a70003f0a10003f8a3000a
:1010500013003a006509b1001000320009003500a4
:101060006928e100020035000100280000000500a9
:1010700000004000818048008502e900fcff3a0042
:1010800000000600f88f4200050035008100d10005
:101090000080d3008502e800fcff3a000000060053
:1010a0008000eb00000005004f89de00820178001f
:1010b0008700370081002000618055000b003d0053
:1010c0000b00200061fe2f000100e1001d00340034
:1010d00082817100610164008904d1000884d30019
:1010e0000000e800faff3a0071002000610064008f
:1010f0000300700002006000090032006104440037
:10110000e0844c000988a500050032008b05e8004a
:101110006808e10002003a008904d1000884d30085
:10112000f20f20000258e10005003d00c75ddd0020
:10113000f907b200898075000800780000000600f9
:101140000bf827008b00780000000500c70ade00be
:10115000f107b200f50fb20008003200e1cf420003
:10116000020032000170a00024000500810f700011
:10117000010032000408050044000500810f7000e2
:1011800002003a00140005008502e900000040005a
:1011900081c04800fcff3b000170a0002400050056
:1011a0000004be00e9ff07000003be000405be0006
:1011b0000200be00e5ff0700844f75000000060036
:1011c0000200be006450e100050036006420e1002a
:1011d000020036000968a30001003a000800be00c2
:1011e0000160a0004f0678004f05be004f04be000e
:1011f00000000600f0ff2f00f1ff2700f9ff370085
:10120000889fbe008a9fbe008c1f7800e4ff070005
:10121000ebff330003866c006450e10024003200d1
:101220006420e100270032006150e100220032001a
:101230006120e100210032008b854200eb07b10004
:101240000134b800003ab8000804420089844a001a
:10125000013ab8000030b8008880400009014a0017
:101260000400330000004000818048000201490072
:101270008b05e900c909dd0083017000010032001f
:1012800013002000c814de004814dd004709de000a
:101290001200b200c808de000884700085ff070055
:1012a00001f0a1000cf0a70001f0a000cdff370075
:1012b0006120e100cfff32000801be000200be0045
:1012c000f7ff37006150e100fcff3a00c9ff37002b
:1012d000881f7800030478000300e00007003d0049
:1012e00060001000e080180060011900e081190022
:1012f00002003b0001f02d0003003700040007004e
:1013000008f0a70001f0a0004f04780000000600dc
:10131000889fbe008a9fbe00008270000402710098
:1013200004827100260032000004be000200be00ec
:101330006011b8006b092000950220000182cf00e7
:101340000a0039000541b1000082cf0007003900d2
:101350000541b1000982cf00040039000541b10008
:101360000882cf00010039000541b100054252005a
:10137000120032000a003b008281710061016400aa
:101380008100d1000080d3008984d3000884d30079
:101390008b05e8000442e800f7ff3a000700370039
:1013a0000804440089844c00000048008180480003
:1013b0008b05e9000442e900f9ff3a003dff070010
:1013c0004f05be004f04be0000000600881f7800d5
:1013d0000204780008017800c400070008004000fb
:1013e0004f047800000006000000fa00881f780013
:1013f00000047800ea8157003fb997008800780020
:10140000609e2000070007000000e0000200350099
:101410008040eb00017478004f0478000080fa00ef
:10142000000006006200fa00889fbe008a1f780054
:1014300000057800810478000204780083007800b9
:1014400080f92f000f004000770107009a979f0056
:10145000a9979f000000eb00b09f9f001885fb003c
:101460008a04fb000a05ea004f55de005002200006
:10147000808f54000d003200e10f55000b003a0040
:101480000a017800880078002f9097009f919700bc
:1014900003000100a0979f000000e0008e003200d2
:1014a0003f9897000000e800b09f9f000a044400a6
:1014b00050022000808f5400040032000900e00038
:1014c000e6ff3a003f989700840037000000eb00e9
:1014d000909f9f00809f9f00f0979f00e0979f0044
:1014e000d0979f00c0979f00070037000189200018
:1014f0000100500000004000418820006100780099
:10150000df98970001007000d09f9f00880478004a
:1015100009047800384578008a00fb000089200023
:10152000790007000000e000f0ff3a00a1c2b3001c
:10153000814f55000e003a00cf8897000180e900e6
:10154000c08f9f0010007800c09f9f000000e00047
:1015500005003d000000ea00c09f9f005f989700d3
:101560000020a000d09f9f000904e8000f00370072
:10157000c09f9f000000eb0005003700f2ff27002e
:10158000820f5000020032006a01b9000280400060
:101590000904780088047800b900fb000103b10059
:1015a000e98f5000f5ff3600c09f9f00e0c2b300f6
:1015b000984f1000020032000080eb001900370045
:1015c000a0c2b300d84f100007003a00cf889700a0
:1015d0000180e900c08f9f0010007800a09f9f004d
:1015e0000804e800100037000000eb00a09f9f00f7
:1015f0008800780005003700f3ff2700830f5000b4
:10160000020032006a02b9000400410001047800bf
:10161000880078003101fb000203b100e90f51009e
:10162000f5ff3600a09f9f00984478008900fb00da
:10163000c0872000340007000000e00002003200f4
:101640000804e800010037008044eb00c97f9f00d8
:1016500080c6b30080cf540004003a0098cf140035
:101660000a003a006640500006003700c0c6b300ca
:1016700080cf540005003a0098cf140003003a00d0
:1016800065404000c07f9f000804e8001801fb008f
:10169000e3fb2f008f81410081f92f008f804000f4
:1016a000a0f92f000f004000e10007000000e0005b
:1016b00009003a00e1fb2f008f804000a0f92f00c5
:1016c0000f0040001c0007000000e0000200350091
:1016d0000804e80061ff37000080eb004f05780048
:1016e0004f04be000080fa00000006008001780070
:1016f00002003700b15978000201e9000200e00061
:10170000fcff3a0000000600020037000304e0007e
:10171000060032000001780002007800b041780035
:1017200081cf5100f9ff3a00010037000001eb00c2
:1017300002007800000006000400fa00889fbe0046
:101740008a9fbe008c1f7800000478000106780094
:10175000f80d9000780090008085550008089000f2
:101760008085550018089000808555002808900055
:101770008085550038089000808555004808900005
:10178000808555000002220090bf9f0000032300c7
:10179000a0bf9f00081090000028a30015003a0089
:1017a0000b00e000130034000b0578008a04780079
:1017b000e20f55000100360029002000c80190000a
:1017c00009017800ee8057005800900003000100e6
:1017d000500498000000e0008c003200680890007f
:1017e00009004000600c9800090555004240a9001e
:1017f000eeff3c00780190000200e0000c00340095
:10180000c80190008c00780058009000030001008f
:10181000500498008080eb000000e0007c00320063
:10182000e80890007800900000804000600c98006c
:10183000880c90000900e0001100340009057800d0
:10184000e28f5400010036002a002000c8019000f9
:101850000a017800ec805700580090000300010056
:10186000500498000000e000680032006808900012
:101870000a004000600c98008a845400edff370095
:10188000180990000200e0000c003400c80190002c
:10189000e8009000580090000300010050049800f8
:1018a0008080eb000000e00059003200e808900062
:1018b0001808900000804000600c9800a80c900070
:1018c0000900e0001100340009057800e28f54009f
:1018d000010036002a002000c80190000a017800ab
:1018e000ec8057005800900003000100500498005d
:1018f0000000e00045003200680890000a00400047
:10190000600c98008a845400edff3700380990007d
:101910000200e0000e003400e8009000180890007b
:1019200080804000c8019000580090000300010032
:10193000500498008080eb000000e000340032008a
:10194000e80890003808900000804000600c980083
:10195000c80c90000900e00011003400090578006f
:10196000e28f5400010036002a002000c8019000d8
:101970000a017800ec805700580090000300010035
:10198000500498000000e000200032006808900039
:101990000a004000600c98008a845400edff370074
:1019a000081090008000eb000028a300180032000f
:1019b0000b00e000160034008b0478000905780065
:1019c000e28f5400010036002a002000c801900078
:1019d0000a017800ee8057005800900003000100d3
:1019e000500498000000e0000800320068089000f1
:1019f0000a004000600c98008a8454004240a9000c
:101a0000eeff3c008000eb00010037008080eb001f
:101a1000010078004f0678004f05be004f04be005d
:101a20000080fa00000006000108780000000600af
:101a3000889fbe008a1f78000004780082447800e6
:101a40000305780070c4b30080cf54000a003c0046
:101a500000c0e90080cf54000f003d0050c2b30029
:101a600080cf5400350032007c40400080cf5400cd
:101a700035003a000800370010c6b30080cf54008c
:101a80000500320030003500b0c9b30000c044008a
:101a9000e24f50002c003e0028619000c0c4b3000b
:101aa000804f510006003a00110178006800510093
:101ab000800878005001be004000be0005003700dd
:101ac0001101780064005100800878001000be0009
:101ad000a3030700009cbe000294be00b800900063
:101ae000780090000100e00002003d00d1c2b30088
:101af00008003700881090000118a300020032008f
:101b0000b1c2b300030037000108a3000400320093
:101b100001c2b300017578000000e800700498006d
:101b200078009000000545006a0498008900fb00d9
:101b300008007800100007000b00370078009000c4
:101b40000975780006003700780090000005450010
:101b50000904e00001003a0059c2b300094d7800c1
:101b60000000e800700498000000eb004f057800ca
:101b70004f04be00000006002f04b000889fbe0086
:101b80008a9fbe008c9fbe008e1f780000077800e1
:101b900081f79f003e04be002e05be005e08900047
:101ba0000000e00002003d0060002000500f98009f
:101bb0008e00780020fb2f000f0040003a02070043
:101bc000e20f50000a003a0030002000100f980089
:101bd000b1c9b3000ff0970081404000808220001f
:101be000e1cf50000d003e00408220000b00370086
:101bf0000000e0000f00340030002000100f9800bb
:101c0000b1c9b3000ff1970081404100008320006b
:101c1000e1cf500001003e00c0822000ee009000a5
:101c2000b0487800b0687800104078009040980084
:101c3000f30037000000e00005003a0022fb2f000f
:101c40000f014100001978008001eb00e700370028
:101c50006022b8006033b8000800be000a01be0070
:101c6000870207000000e00001003d000bf0a20029
:101c7000705927009f9897000088b900026a2800d1
:101c800013002000e2020700640650009c9f9f00a2
:101c900013003b0063061600c0ff2f00000666001d
:101ca0008c01ea00939f9f004d8320000800be0036
:101cb0000a01be00070037000c08a3000300320031
:101cc0003d02be002d03be00730307000c86d10049
:101cd000e88646000c00e000f7ff3c0018003700e3
:101ce0000c00e00018003200c0ff2f000006660064
:101cf0009c9f9f004d8320006000b80002002000e0
:101d000003ff2300070037000c08a3000300320084
:101d10003d02be002d03be005f0307000c86d1000c
:101d2000e88646000c00e000f7ff3c000002be0021
:101d30000203be000800be000a01be005a020700ee
:101d40000004be000205be00de08900060c6b300bd
:101d50000ff29700804f5200040032006000200014
:101d600062c4b300824f520002003a009f9a97006b
:101d70006a80420081004000f1b79f0001037800b3
:101d8000f30f53000200340037012000f7b79f0023
:101d900000c3b300c0779f0056fb2f000f03430022
:101da0000e007800a0b79f00060778003d003700be
:101db0000800be000a01be00080307000006be00be
:101dc0007fb1970068015100f2b79f004240a9001f
:101dd0000c0034002d0307000002be000203be0009
:101de0000800be000a01be00a10307006022b8007f
:101df00046782d0077192400270307000004be0051
:101e00000205be00e80047008e0020000802be0068
:101e10000a03be00b4b79f00c5b79f00d6b79f00a6
:101e2000e7b79f000c01be00010478000c003700ea
:101e3000a400200005002000c0fd2f000f0040007e
:101e4000840107006fa89700ffa897000fb19700c3
:101e50009fb1970005c3b300056441000001be00b7
:101e6000e00f5100e08f5900030034000e07e90035
:101e7000e10f4700eeff3a00880078003fb497007a
:101e8000cfb497005fb59700efb597000200370019
:101e900000c3b300806078000e07e900fcff3b0040
:101ea000688740007fb397000600e0000700340019
:101eb0006022b8006033b8000800be000a01be000e
:101ec000f40107000000e000b9ff3c000e037800b9
:101ed0002fb7970051fb2f008f8040000103530064
:101ee0009f9b970067804300909f9f0002003700f0
:101ef0000603e9000000e900010178008200780093
:101f000003c3b300b1cf1100f9ff3200909f9f00cf
:101f1000de09900061c6b3000ff29700814f5200b6
:101f20000300320061c4b300814f520002003a0046
:101f30000000e8000a0037001000200051c6b3007e
:101f40008ff2970081cf52000500320005407800e3
:101f500050c4b2000080fb000000e9004f00de002a
:101f600083014000868f5100010034008601780013
:101f70000300e0001d00350000c3b300868f510050
:101f800006003d0062c279006940400041c3b300d1
:101f9000814f520001003c00694050008300e9007d
:101fa0008100410001003700840178000302e9004c
:101fb00001037800a142780080cf5200faff32007e
:101fc00091c3b300814f500001003a00054be80077
:101fd0000400e00005003d000201e9008301e80083
:101fe0001f9b97000603e800969f9f008ff39700c2
:101ff0008700fb001f9a97000e007800060007007c
:102000004f0778004f06be004f05be004f04be00cc
:102010002f04b10000000600f0874700889fbe0033
:102020008a9fbe008c9fbe008e1f7800000478003f
:10203000814478000205be00040678000b00e00031
:1020400002003c001b0020006a89200060c6b3002b
:1020500080cf54000e00320060c4b30080cf540023
:102060000b00320070c6b30080cf54000300320072
:1020700070c4b30080cf540081003a00e40f4600e2
:102080007f00350058089000800f56007c003d000e
:102090000c06e80060c6b30080cf54001000320088
:1020a00060c4b30080cf54000d00320008109000cf
:1020b0000038a30004003a0058089000808f5500b3
:1020c00001003d005b0c9800580890000c00500087
:1020d000500c980002003b000000eb00500c9800f0
:1020e00018089000e80090000c00e00026003c007a
:1020f00002c3b300827078000000e800100c980062
:10210000d80890000100e00003003c008810900017
:102110000138a30005003200e8009000e2c2b300dd
:10212000827078000000e800100c980058089000b9
:102130008c00ea00810f500001003d000006ea001b
:102140008c00ea00210c9800000646005c0c980008
:102150008b0f5600010034000b0678003c0c9800f1
:10216000e800900018089000008040000c01780002
:102170008a0078005dfd0700580890000c065000aa
:102180004c0c9800900037008c8f550018003d00d3
:10219000008040000b0178008a00780053fd0700a2
:1021a0001808900000804500100c98008b05560020
:1021b0002b0c9800d80890000100e00003003c00c0
:1021c000881090000138a30006003200e80090005b
:1021d000e2c2b30082707800380890000000e80086
:1021e000300c980058089000400c9800760037009a
:1021f000008040000c0178008a0078003bfd070059
:102200001808900000004600100c98008c855500be
:10221000d80890000100e00003003c008810900006
:102220000138a30005003200e8009000e2c2b300cc
:10223000827078000000e800100c980058089000a8
:10224000808f55000100340080057800e800900080
:1022500018089000008040008c0045000b017800b9
:1022600022fd0700180890000b004000100c980099
:10227000580890008b0550002b0c98005200370036
:1022800018089000e80090009a7078000000e800bc
:10229000100c9800d80890000100e00003003c00fa
:1022a000881090000138a30005003200e80090007b
:1022b000e2c2b300827078000000e800100c9800c1
:1022c000580890000000e000100034008b05e90081
:1022d000808f55000100340080057800e8009000f0
:1022e00018089000008040008a00e8000b01780088
:1022f000fefc0700180890000b004000100c98002e
:10230000580890008b0550002b0c9800e8009000b6
:102310001808900000804000095878000007e80085
:102320000c00e00004003500b1c2b30001487800a1
:102330008e04780004003700d1c2b3000148780051
:102340008e0478000c06ea007d8557008006eb00bd
:1023500009003700a20020008c007800728057002e
:10236000310007007fb097008fb89700016d7800ab
:10237000000678008d06e8000c00e000f5ff3c0048
:102380000d00e00009003a008e04780000c3b3009d
:10239000805c7800050037008d06e900fc8057005e
:1023a00061c07e0002c3b300825c40000d00e0000b
:1023b000f9ff3c00e8009000180890000080400001
:1023c00080845400390c980008109000740060005c
:1023d000f00f50000e003a0098089000780090002e
:1023e00000804000a808900001004000b80890005c
:1023f00001004000c808900001004000f80890006b
:10240000810f500002003d0000805000000c980039
:102410004f0778004f06be004f05be004f04be00b8
:102420000f01b1000000060080027800010378006f
:10243000110009000203d80080017800830a7800a7
:102440000299b90002015300920298000500780039
:1024500000000600881f78008a9fbe008c9fbe0087
:10246000000478000205be000406be000401be00a0
:102470000a00be00e6000700008cbe000c01be0092
:102480000d0207000005550081855d002a049800b3
:102490003b049800080078004f06be004f05be00c0
:1024a0004f04780000000600889fbe0000047800fa
:1024b000e68440001900d0004500de00f27f2000d5
:1024c000820f500010003a00000ceb0099047800d5
:1024d0006f816400200020001b003a002101900061
:1024e0000200e00018003a00110190000200e00034
:1024f00015003a00100020001100e0001200320028
:1025000020002000100037000000e00004003a0026
:10251000010078000e0007000000e00008003c0009
:10252000f20028001901610001fe2300810c7100f6
:1025300021c02f00010c40000080eb00020037009a
:10254000000ceb000000eb004f04be000000060092
:10255000e6004000110178000500280085026100b6
:102560006f01610082087800020032001200200032
:1025700011003700a0019000120020000300e000cd
:102580000d003a00900190000300e0000a003a00bc
:102590001000e00008003a003600370064034000f5
:1025a0009608780080017800530b78009009780035
:1025b0000408780070015100110278000400e00066
:1025c000f6ff320013003700640240001403780065
:1025d0004f33de008381410083087300800178005f
:1025e000d3037800cf3bde001403780006034300da
:1025f000068a730013027800040242001003780078
:102600004f33de0086097200900178000388410094
:102610000201e90091017800ef8f5100eaff3600d6
:102620001000370080017800530378004f33dd003d
:102630001002d10004087300640240009403780083
:10264000cf3bdd001303d1008689730011037800ae
:102650004f33dd009401d100030a73009108d100cb
:102660000201e80091017800ff8f5100edff3e006c
:10267000ef88610091887200020078000000060077
:102680008f1fd100100207008f87e9000000e000d3
:1026900000000600809feb000b0207008f87e90017
:1026a0000000e000000006002800fa00889fbe003d
:1026b0008a9fbe008c9fbe0003866b008f000700c0
:1026c0006400e100440032006408e1004a00320086
:1026d0006100e100460032006108e100490032007b
:1026e000ec0647006000b8003d02be003d03be009e
:1026f000f48657006011b8003d04be003d05be00e1
:102700007d0320000b0037000000a0008d06e900cb
:10271000130032000402420085824a0006034b0087
:1027200087834b000000400081804800020149007f
:10273000838149000802520089825a000a035b0023
:102740008b835b00f0ff3b000802420089824a0055
:102750000a034b008b834b008d06e900edff3a0026
:102760008482720086827200f707b200878272004c
:1027700001003200150020001e0490003e0b900066
:1027800006035400e63fb0000368a30007003200d0
:102790000000a7000500a0008301d1000281d30042
:1027a0008180d3000080d3000603e8008301d100bc
:1027b0000281d3008180d3000080d3000002eb00af
:1027c0000482d2002100070003f0a1000cf0a70052
:1027d00003f0a0005d003700640247006408e100d8
:1027e000570032003400be003401be00f6ff37004f
:1027f0006108e100520032006011b8006000b800ca
:10280000f1ff370003ff270002002000fbff370025
:10281000839f68000100e00002003d00600010009e
:10282000e08018000300e00002003d00600111009c
:10283000e0811900100107004f00e00002003b009a
:1028400060001000e0801800000006001800200062
:1028500057002000080453000d003d000600200032
:1028600097fc2f000740e1001e00340084827200b4
:10287000610260008301d1000281d3008180d30016
:102880000080d3000804e800f8ff3a004700200069
:102890006104600005047400040464000d0032004b
:1028a00061004000e080480060014900e08149008b
:1028b00003b8a500070032000603e8006538e10010
:1028c00004003a008301d1000281d3008180d3004b
:1028d0000080d300f87f20000830e10003003500bd
:1028e000080378006000b8006011b8004433dd00d0
:1028f000f300b20083017300000006006804470083
:102900000294be000094be00fc0447008694be0002
:102910008494be0009007800b40107000800780024
:10292000b201070099007800814f70000b003b0056
:102930000800be008d0107004f00b1000300370002
:10294000f3ff2700f2ff2f006110b9004f06be0011
:102950004f05be004f04be000080fa0000000600d4
:1029600081037800f9f907000001be006000b8009b
:102970000478a30013003a006220e10015003e0035
:102980000d0039008301d1000281d3008180d30082
:102990008301d1000281d3008180d3008301d10063
:1029a0000281d3008180d3000538b000c42add0045
:1029b000f300b2008381720007f0a70003f0a000cb
:1029c00000000600f3ff2700f2ff2f006110b9009e
:1029d000fbff370003ff2700f7ff37001400fa0062
:1029e000889fbe008a9fbe008c9fbe000004be0070
:1029f0000205be00680047000a90be000890be00b5
:102a00007a0107000070a7000bf0a10030432000fe
:102a10009e02900080825200b0fe2f000028e1004c
:102a200011003d00b0fc2f000028e100150034002b
:102a30001e0990008e0890007e0090000501b000f5
:102a40000201d1008180d3000080d3008502e8001c
:102a5000fbff3a000b00e000bcff3b0060001000f1
:102a6000e0801800b9ff3700f0ff2f00f1ff2700ca
:102a70000b00e000b5ff3b00010028000000200033
:102a8000b2ff37006000b800b0ff37004f89de00aa
:102a9000820178007c0137002800fa00889fbe0080
:102aa0008a9fbe008c9fbe0003866b0093ff0700c9
:102ab0000028a30064003a000128a30067003a0040
:102ac0000008a30062003a000108a30065003a0074
:102ad0001e009000be08900081064000ed3fb1004e
:102ae000f4805700ee019000111ab8008e09900092
:102af000311bb8009e099000311cb800511db80070
:102b0000f485570046000700fe0190003a000700d8
:102b10008b85e8003e0007008e099000400007000a
:102b2000ee019000340007008b85e80038000700b4
:102b30008e099000400007009e0990001b18b80005
:102b4000890440000a854800fe0190003400070017
:102b50008b85e80038000700ee0190003000070088
:102b60008e0990001b18b800890440000a854800af
:102b70000a98a30008003a000402420085824a0035
:102b800006034b0087834b0008044c0089844c00eb
:102b90000a054d008d06e9008482720085027300eb
:102ba0004c3add0085027200010032001500200061
:102bb000443ade001400b2004538de00cb45dd00ab
:102bc0000b007000c540de00cb4ddd008b80700037
:102bd0004549de00cb55dd000b017100c551de001b
:102be0000d03780019ff070003f0a1000cf0a70007
:102bf00003f0a00055ff37001b18b8008502400005
:102c000006834800e0834b0060044c000700370057
:102c10001b18b8000603400087834800faff3700fe
:102c20001b18b8008703400008844800e0844c006b
:102c300060054d00000006001b18b80008044000a5
:102c400089844800faff37000108a3003cff3a00de
:102c50005800be005801be00e3ff37000008a30083
:102c600037ff3a0009047800f9ff37000000000040
:102c700007f0a200160037006022b800060220000c
:102c80000000d0008180d2000482d2008582d20070
:102c90000000a0000202520083825a0003003100ab
:102ca0000202420083824a000000a1000603e900fc
:102cb000f3ff3a0000000600020ab900001bb90049
:102cc0000200b800810042008100430000000600bd
:102cd0002800fa00889fbe008a9fbe008c9fbe001d
:102ce00007067800878669000c003b000304780023
:102cf0008704780008f0a10009f0a100840f5000bb
:102d0000858f5800860f5900890f5c00030033003f
:102d10000cf0a20001003a000cf0a100f7fe070041
:102d20006400e1005f003200780147006408e100c0
:102d3000610032006c014700748557003200be000c
:102d40001201be003a04be001a05be001e03900028
:102d5000be0a90008503530006003d000004fd00fc
:102d60008104fd000205fd008305fd008703ea00e4
:102d7000050378000df8a30004003200600414007d
:102d8000e0841c0060051d00e0851d006022b80085
:102d90007d0320000d38e1008006eb000b003900b8
:102da0004433dd00f300b2008301730039003700c3
:102db000848272000d027800e10664008b85d100e8
:102dc0000a85d3008984d3000884d3008703e900ef
:102dd000f7ff3b0008004000898048000a014900d5
:102de0008b81490004003b0060001000e080180067
:102df00060011900e08119000358a30009003200a6
:102e00008d82720084827200610260008301d100b1
:102e10000281d3008180d3000080d3000603e80044
:102e20001b0037000348a30017003a000600e0002b
:102e3000170034000603e9000d00a300000048005d
:102e40008180480002014900838149000348a300b2
:102e50000f003a000600e000090034000603e90014
:102e60000000400081804800020149008381490040
:102e700001003a000003eb000348a300f5ff320015
:102e80006022b8000200370084827200618266000e
:102e90006efe070003f0a1000cf0a70003f0a000f5
:102ea000aafe3700640147006408e10002003a000e
:102eb0000df8a300a2fe3a003200be001201be00cf
:102ec000a2fe370000000000889fbe008a9fbe005f
:102ed0008c9fbe000404be000605be00809fbe009d
:102ee000829fbe002f000700040678000800be0085
:102ef0000a01be002b000700840678004f03be00c5
:102f00004f02be008d4f76007fb097001300330054
:102f1000f0ff2f008b8f6b0006003b000d06660054
:102f20000c00a7000a00370007f0a60010002000e0
:102f30000a003700880f5200898f5a008a0f5b0001
:102f40008b8f5b00030039001000200001003e0061
:102f50000000200007f0a7000000ea004f06be00b6
:102f60004f05be004f04be0000000600e482400092
:102f70001078a30007003200640240001178a3001b
:102f80003400be001401be00040032000330a7006c
:102f9000000006003500be001501be000330a00091
:102fa0000000060005ff27000582610007003200cf
:102fb0000428e1000100320024000500060007009b
:102fc00001003a0044000500040805000200070063
:102fd000f9ff3a00140005006f8261008102700061
:102fe00085027100850272000000060080007800f2
:102ff0005002be005003be004439de00f700b200ac
:10300000f37f200003016100090032000218e10093
:1030100016003a00850172008301730083817300fa
:103020000008200015003a0040002000130037007f
:1030300085017200830173008381730005003a00eb
:1030400004a8be0006a8be00100020000b00370038
:103050000201e9000402420085824a0006034b0097
:1030600087834b000748a300f9ff32000740a00008
:1030700004a8be0006a8be00200020008000980022
:103080009200980000000600881f78000304780072
:103090000300e00007003d0060001000e080180021
:1030a00060011900e081190002003b0001f02d00d1
:1030b000030037000400070008f0a70003f0a00099
:1030c0004f04780000000600889fbe000082700058
:1030d0000402710004827100240032003643200093
:1030e000c50020008383cf000a0039000541b100ec
:1030f0008283cf00070039000541b1008183cf00f2
:10310000040039000541b1008083cf00010039007f
:103110000541b10085c353006022b800120032009f
:103120000a003b0084827200610260008301d100ca
:103130000281d3008180d3000080d3000603e80021
:103140008743e800f7ff3a0007003700000040001f
:103150008180480002014900838149000603e9009b
:103160008743e900f9ff3a00b8fd07004f04be00ad
:043170000000060055
:020000040000fa
:10317400506f0000747300002041000044430000bd
:10318400202000002020000020200000202000003b
:10319400202000002020000020000000202000004b
:1031a400202000002020000020200000202000001b
:1031b400202000002020000020200000202000000b
:1031c400202000002000000052200000252e0000d6
:1031d4003066000020470000202500002e3000004b
:1031e4006620000000420000202500002e30000070
:0831f40066200000000000004d
:020000040000fa
:1031fc000400fa00c602a800c622a800c642a80015
:10320c00a802a900a822a900a842a90011158000b3
:10321c00f0ff21000080600000f0a0001015880075
:10322c002115800000fc2f00008060000000a00031
:10323c0020158800a042a90001158000f0f12f0094
:10324c000080600000158800a1e2a8000a21ef00b0
:10325c0000e823007008880091088000f0fc2f0023
:10326c00008060000040a000900888001221a90096
:10327c0013e1a80084e0a9008ce0a800b104800050
:10328c000000270001007000b004880000f4210049
:10329c00700c8800e0002000800c88009061a80071
:1032ac0000f42100400c8800e0002000500c880045
:1032bc008a61a80000f42100100c8800e0002000b6
:1032cc00200c88008461a800f0c2b30060f40700f1
:1032dc0000000000f5f407000004e000fdff3a00d8
:1032ec00a08b2900bdf6070000c4b30082f40700d0
:1032fc00008d2900b9f607000000eb00000f7800e4
:10330c00120037001e0078004300070010079800d9
:10331c001e009000cf80de0060f707000200200046
:10332c00f3372400b3f7070002002f00f3572400f3
:10333c00fdf607001e017800c211dd00028020009e
:10334c00028141000089be001e0fe8001e007800bb
:10335c00e20f5000ebff340022408000334080002d
:10336c000040800011408000829fbe00809fbe0004
:10337c00608e2900801f78000081200017f807005c
:10338c00ea8757000040eb005bf407000081200047
:10339c0092f607004040800051408000809fbe00a4
:1033ac00508f2900801f7800008120000bf8070047
:1033bc00e687570000c4b3004ff4070000812000db
:1033cc0086f60700ccff37000600fa0020079800ad
:1033dc0010002000000f78000000eb001007980090
:1033ec00070037001e0fe8001e0078000000e00008
:1033fc00fcff3a001e0090000000e8001007980047
:10340c009e0090002e009000808f5000f6ff35003b
:10341c000080fa00000006000200fa00000f78009d
:10342c001e007800004078006f4060000080fb00b8
:10343c006f0060003215800001ff2f0081006100d9
:10344c000100700030158800a022a800a000200008
:10345c00ddff0700a022a90000000000001580007d
:10346c00610060000000e000fcff320000148000ee
:08347c000080fa0000000600c8
:020000040000fa
:103484000008000024000000000000007c08000088
:103494001a00000002000000686a6c00747a4c0094
:1034a40000000100000200000400080000100000f9
:1034b400000020002b2d2300300000002408000011
:1034c40058000000020000006e616e00004e4100d2
:1034d4004e0069006e660000494e46000000000080
:1034e4000000000000244000000000000000000074
:1034f40059400000000000000088c30040000000a4
:1035040000008400d79741000080e0003779c300b1
:10351400414317006e05b500b5b8930046f5f900b0
:103524003fe903004f384d00321d3000f948770061
:10353400825a3c00bf737f00dd4f15007500000008
:1035440096080000020000000200000030000000a5
:043554000000000073
:020000040000fa
:0200000401f009
:04000000e7bf000056
:020000040000fa
:0200000401f009
:04000400ffff0000fa
:020000040000fa
:0200000401f009
:04000800ffff0000f6
:020000040000fa
:0200000401f009
:04001400ffff0000ea
:020000040000fa
:0200000401f009
:04001800ffff0000e6
:00000001FF
