:020000040000fa
:080000000001040000000000f3
:020000040000fa
:04000800c80100002b
:020000040000fa
:04000c00c801000027
:020000040000fa
:04001000c801000023
:020000040000fa
:04001400c80100001f
:020000040000fa
:04001800c80100001b
:020000040000fa
:04001c00c801000017
:020000040000fa
:04002000c801000013
:020000040000fa
:04002400c80100000f
:020000040000fa
:04002800c80100000b
:020000040000fa
:04002c00c801000007
:020000040000fa
:04003000c801000003
:020000040000fa
:04003400c8010000ff
:020000040000fa
:04003800c8010000fb
:020000040000fa
:04003c00c8010000f7
:020000040000fa
:04004000c8010000f3
:020000040000fa
:04004400c8010000ef
:020000040000fa
:04004800c8010000eb
:020000040000fa
:04004c00c8010000e7
:020000040000fa
:04005000c8010000e3
:020000040000fa
:04005400c8010000df
:020000040000fa
:04005800c8010000db
:020000040000fa
:04005c00c8010000d7
:020000040000fa
:04006000c8010000d3
:020000040000fa
:04006400c8010000cf
:020000040000fa
:04006800c8010000cb
:020000040000fa
:04006c00c8010000c7
:020000040000fa
:04007000c8010000c3
:020000040000fa
:04007400c8010000bf
:020000040000fa
:04007800c8010000bb
:020000040000fa
:04007c00c8010000b7
:020000040000fa
:04008000c8010000b3
:020000040000fa
:04008400c8010000af
:020000040000fa
:04008800c8010000ab
:020000040000fa
:04008c00c8010000a7
:020000040000fa
:04009000c8010000a3
:020000040000fa
:04009400c80100009f
:020000040000fa
:04009800c80100009b
:020000040000fa
:04009c00c801000097
:020000040000fa
:0400a000c801000093
:020000040000fa
:0400a400c80100008f
:020000040000fa
:0400a800c80100008b
:020000040000fa
:0400ac00c801000087
:020000040000fa
:0400b000c801000083
:020000040000fa
:0400b400c80100007f
:020000040000fa
:0400b800c80100007b
:020000040000fa
:0400bc00c801000077
:020000040000fa
:0400c000c801000073
:020000040000fa
:0400c400c80100006f
:020000040000fa
:0400c800c80100006b
:020000040000fa
:0400cc00c801000067
:020000040000fa
:0400d000c801000063
:020000040000fa
:0400d400c80100005f
:020000040000fa
:0400d800c80100005b
:020000040000fa
:04010800c80100002a
:020000040000fa
:04010c00c801000026
:020000040000fa
:04011000c801000022
:020000040000fa
:04011400c80100001e
:020000040000fa
:04011800c80100001a
:020000040000fa
:04011c00c801000016
:020000040000fa
:04012000c801000012
:020000040000fa
:04012400c80100000e
:020000040000fa
:04012800c80100000a
:020000040000fa
:04012c00c801000006
:020000040000fa
:04013000c801000002
:020000040000fa
:04013400c8010000fe
:020000040000fa
:04013800c8010000fa
:020000040000fa
:04013c00c8010000f6
:020000040000fa
:04014000c8010000f2
:020000040000fa
:04014400c8010000ee
:020000040000fa
:04014800c8010000ea
:020000040000fa
:04014c00c8010000e6
:020000040000fa
:04015000c8010000e2
:020000040000fa
:04015400c8010000de
:020000040000fa
:04015800c8010000da
:020000040000fa
:04015c00c8010000d6
:020000040000fa
:04016000c8010000d2
:020000040000fa
:04016400c8010000ce
:020000040000fa
:04016800c8010000ca
:020000040000fa
:04016c00c8010000c6
:020000040000fa
:04017000c8010000c2
:020000040000fa
:04017400c8010000be
:020000040000fa
:04017800c8010000ba
:020000040000fa
:04017c00c8010000b6
:020000040000fa
:04018000c8010000b2
:020000040000fa
:04018400c8010000ae
:020000040000fa
:04018800c8010000aa
:020000040000fa
:04018c00c8010000a6
:020000040000fa
:04019000c8010000a2
:020000040000fa
:04019400c80100009e
:020000040000fa
:04019800c80100009a
:020000040000fa
:04019c00c801000096
:020000040000fa
:0401a000c801000092
:020000040000fa
:0401a400c80100008e
:020000040000fa
:0401a800c80100008a
:020000040000fa
:0401ac00c801000086
:020000040000fa
:0401b000c801000082
:020000040000fa
:0401b400c80100007e
:020000040000fa
:0401b800c80100007a
:020000040000fa
:0401bc00c801000076
:020000040000fa
:0401c000c801000072
:020000040000fa
:0401c400c80100006e
:020000040000fa
:0401c800c80100006a
:020000040000fa
:0401cc00c801000066
:020000040000fa
:0401d000c801000062
:020000040000fa
:0401d400c80100005e
:020000040000fa
:0401d800c80100005a
:020000040000fa
:100200004f8020000eff20000e018800000000003b
:10021000000020000000e000020032000001200089
:1002200020028800140007005b0007000000e000c7
:1002300003003a00c0372000010020000200370010
:100240000000200001002000810f7000010032003a
:1002500014000700000020000000e000020032004f
:100260000000020000000000f40202000000000094
:100270000040da000000fe004440a9000000200019
:100280000000e0000300320000002000a001880010
:100290004440a800000006008a1f78008b1f7800e9
:1002a0000000060091018800800478000000eb0047
:1002b0001a003700e284440032a0b4009905ba0065
:1002c000e284440032a0b4009906ba00e2844400fb
:1002d00032a0b4000006eb00476fde00fd07b2005d
:1002e000636ce10003003a00ebff07000000eb0045
:1002f0000a003700606ce10004003a00005deb008a
:100300008b05e900fdff3e00040037006168e10055
:10031000010032000086eb000b00070019c7ba008d
:100320001905ba000e04e00003003a000a00e000dc
:10033000e0ff3a0000000600fe07b2009e018800c0
:100340008a047800f5ff3700395dba008b05e900b3
:100350000c003200295dba008b05e900080032006c
:100360000c00e00003003a00e284440032a0b40034
:10037000f5ff370019ddba008b05e900faff3a00f6
:100380008904e800e184440032a0b40000000600c3
:0c0390000040da000000fe000000050044
:020000040000fa
:10039c000400fa00000f7800214798002e409000ce
:1003ac000000fb00a01088009e00780000002800d0
:1003bc0000804000601088000f42a8000080fa0006
:1003cc00000006000400fa00000f78002147980096
:1003dc002e4090000000fb00f01088009e0078007a
:1003ec000000280000804000b01088001942a800ce
:1003fc000080fa00000006000200fa00000f7800ee
:10040c001e007800801088000080fa0000000600b2
:10041c000200fa00000f78001e007800d01088004f
:10042c000080fa00000006000200fa00000f7800bd
:10043c000700370010002000530007001e00780052
:10044c00104078000000fb001e0fe800eaff0700d8
:10045c001e007800104078000004e000f5ff3a0020
:10046c00d0002000e4ff07000080fa000000060026
:10047c000200fa00000f780007003700100020007f
:10048c00410007001e007800104078000000fb00bf
:10049c001e0fe800deff07001e00780010407800f9
:1004ac000004e000f5ff3a00d0002000d8ff070060
:1004bc000080fa00000006000200fa00000f78002d
:1004cc0007003700100020002f0007001e007800e6
:1004dc00104078000000fb001e0fe800c6ff07006c
:1004ec001e007800104078000004e000f5ff3a0090
:1004fc000080fa00000006000200fa00000f7800ed
:10050c0007003700100020001f0007001e007800b5
:10051c00104078000000fb001e0fe800bcff070035
:10052c001e007800104078000004e000f5ff3a004f
:10053c000080fa00000006000000fa000000000035
:10054c0070108000610060000000e000fcff3200d1
:10055c0090108000004078000080fa000000060037
:10056c000000fa0000000000c01080006100600074
:10057c000000e000fcff3200e0108000004078003a
:10058c000080fa00000006000600fa002007980020
:10059c000000eb00000f78000a003700ae0090005e
:1005ac0011079800030037001e0090000000e900be
:1005bc00100798001e0090000000e000faff3c00bd
:1005cc001e0fe800703222009e007800808f5000d1
:1005dc00f2ff34000080fa00000006000200fa006e
:1005ec00c602a800c622a800a802a900a822a90039
:1005fc0011158000f0ff21000080600000f0a000c9
:10060c00101588003115800000ff2f00008060005d
:10061c003015880031158000f00f2f00008060002d
:10062c000080a0003015880021158000f003200008
:10063c000100700020158800a1e2a800a202a80009
:10064c00a042a80021158000f00f2e0080806000d1
:10065c00003020000100700020158800011580007a
:10066c00000e20000100700000158800111580009c
:10067c0030fc2f00008060000030a00010158800b6
:10068c0031c4b300000028004eff0700c602a900c9
:10069c00a802a9000100370000000000b0ff07000d
:1006ac00004f78001e00fb0021032000810f50003a
:1006bc000800320031032000810f50000700320087
:1006cc0011032000810f5000f3ff3a00ca02a8006a
:1006dc0005003700ca02a90003003700ca02a900ae
:0c06ec00ca02a80000000000ecff37006c
:020000040000fa
:1006f8000008000004000000020000000080430021
:080708000000000000000000e9
:020000040000fa
:0200000401f009
:04000000e7bf000056
:020000040000fa
:0200000401f009
:04000400ffff0000fa
:020000040000fa
:0200000401f009
:04000800ffff0000f6
:020000040000fa
:0200000401f009
:04001400ffff0000ea
:020000040000fa
:0200000401f009
:04001800ffff0000e6
:00000001FF
